{
  "input": {
    "data": "0x157df932cf14e98191f7ea110e8ac9dfb42a520a330afa9d4475005f98659266446914a13ebe396337ebbcde13663cb5347eb99f5c2c0e9ca6446a53a2f11acf96ea50c0bae60e69f22cdc5041009a8e41f7ae20b6e4ade70b108c3a0964b5857ba419a500f7f43fdffd057c3302d269ff047bfe5786ed8ed3df0d2a985ce4aedee6895e699e9e0710cb1088bad72ed2cb17bf8add34ab8a0ec2d1a1f54845d949693d61f413f785318704b50f29aa8d27d93efc266ec8c1fabe78ec60c0a7a1432f4df799c61d5b1f6935c5aa0c7cabd6934481207c59add89d9ec188fef83acb409a08fc4dd8af86adcd830f34c9b92735a2f4c3d715040071e6663efc304fab0ffd74e281165c7209d98289450a37020c416799266d439c4d751748287330c618abb88605ec7d96e7802d0dcdea395e15372cc87434d11edee079d82ec0ac7058cc5e9119c47895b68eff29872b130ecb808dd11e359dc23b63a38f3be2b61237b69a290e60500ca11d1c6a1fa6a1be6964f4ec55ff2dbfa02c855ffa68d36bf4d9a6af5c63f36e53ed87ee37557c2e3e6f9df029f66eb53e03c41ea9a764e24f4e75555df3145136e559ab13070cc792c28aee02898c02e43bec1cc64caa695c5321235e144f714d663ca7a4d54c73d548d5cbfb2b6b0e78c2962cda4d3239fbe5c080719894532105e6880d049e98186ee1e42fec78112a568b12e1f4cae28e403c0ecd817c00f4c3ba7b146be6875c9f7e1dc2d59adebf3572619de073cd1ee84fba886963c93a38a8ec60f616b66c0e735590e8f569b3d55921ae1ede4c539fbb3f43056425ac01c0bee124d4a508a99a631cd6418173382ddc0e7cf0660aad473cd3302eaef2aedb119ae264ed835d0b04bea1a2e2bc34fcdeb3d784cd86e7db85d2985e4b40157e414538ff18a6476bd4fc787afe3e7bf0cc6c06444e61a524d3c07208a90f1da66ccd8233dbbcb8ca211a1f249141205736770b3d6e35aab070c7ad1fd494e9dab6f404f47d39d2d0ed91726967111f28abe002b942b41ca9154905b234dd5f025d5101ee02f23c27a9cf176bcd6996357051e75b99393fdfcf112641999aa70a0c7c2bc216aaea09522034a0d2f4b35c351beba4b48cc8780a9cef54b1a9e36587705642cca163c156c797f634b5983497d671ecf9e8a2c7ab3f5c79325686620deda9bfbe7b62cdcbcbddb762db2afd46cdb487b32b797b2b2a2e46b4627fd0bfbf557591ad1d41966d847f67a203257963987cc8467de1124421d3460bbb058ba3a7804a722cd7fb1e0080fb43b61106e0842c008dcf1a189f81942730c5a7b19e17b79adcb4259673cb0bff78d07a6cc3fdfe42f602d69c5dd26732572a998d13090f9668ceeb27f6925899d7004dcfc3c18306207c840fd2ccacacf1eb23192709e507b7aaa8955021acc7614c6f77da28a3",
    "gasPrice": 2278501348,
    "nonce": 678893,
    "to": "0x33623a500fd1fd09985104fa1243e3fec7df18fd",
    "value": 9007199254740991,
    "chain": 1,
    "accessList": [
      {
        "address": "0x5436587f63209bfad7dcbd59d7ba82a440b994ba",
        "storageKeys": [
          "0x589cd3b17587042e572c08297cd7ab2c481cc5e663c1e81f8bad4d222137e8a0",
          "0xe9d09a22dc4e0d154bb78cd10d6968727691cd339b519d1390177cb36ebb3e95",
          "0x89350298c8fe602a5f529d6a77b67180bdf6180d7cf1a8f5a266e01a3919a55d"
        ]
      },
      {
        "address": "0x5d0f91ab0a809ca01629028b6ce10b32a94b52f8",
        "storageKeys": [
          "0xad459b62169fa0cc5a1ac9bf5ed899b1480c5d8d4412c870e2a61d6cc64385be",
          "0x7b930d5b33d71d0f08aca739f6046140606dad984262b930474bde6bb1e6490d"
        ]
      },
      {
        "address": "0xf09e212e027cc75e18b8860ca28b89e4692d8e0e",
        "storageKeys": [
          "0x701241d1feb85170a1b216ad1c7de8aa200a04a6299a990c4affc08219280df5",
          "0x44d1f6875e5a2bd691bce0a63f36d5b4c42ccb90586754b14280005388139e2a"
        ]
      },
      {
        "address": "0xafcc72ccb02873c642f106836f911432a678a0b6",
        "storageKeys": [
          "0x8aed1a329ba0ea201926f9b6e0c6a2ffa713193e056917e665af827018b0b7c2",
          "0xf4038d6ad8a58c2832f593913ecb637cd16bcdb3eccf86a0c238428bc1f2fbbb",
          "0x4e8fbc94f91c2893faa6b3ab8f849d871fd431dcb0e235ab263d346fce3c51e3"
        ]
      }
    ],
    "type": "0x01",
    "gas": 1254566620
  },
  "privateKey": "0x7c521356efeacac2948e2abf498e472a16330373639198b194bcbdc25d865712",
  "output": {
    "v": 1,
    "r": "0x39ae8cacff16e197af5dcab26329f0177ac05adc63a0eb271260da77eff7e0aa",
    "s": "0x5ea54f48cb114ecd519f608dbae51a6ca13694d906833b258448552f1b4b3170",
    "hash": "0x6a95068c204b4d47d9e70bc54864da07e572400351ee030acced1cd9926a708d",
    "rawUnsigned": "01f905e001830a5bed8487cf2be4844ac72adc9433623a500fd1fd09985104fa1243e3fec7df18fd871fffffffffffffb90400157df932cf14e98191f7ea110e8ac9dfb42a520a330afa9d4475005f98659266446914a13ebe396337ebbcde13663cb5347eb99f5c2c0e9ca6446a53a2f11acf96ea50c0bae60e69f22cdc5041009a8e41f7ae20b6e4ade70b108c3a0964b5857ba419a500f7f43fdffd057c3302d269ff047bfe5786ed8ed3df0d2a985ce4aedee6895e699e9e0710cb1088bad72ed2cb17bf8add34ab8a0ec2d1a1f54845d949693d61f413f785318704b50f29aa8d27d93efc266ec8c1fabe78ec60c0a7a1432f4df799c61d5b1f6935c5aa0c7cabd6934481207c59add89d9ec188fef83acb409a08fc4dd8af86adcd830f34c9b92735a2f4c3d715040071e6663efc304fab0ffd74e281165c7209d98289450a37020c416799266d439c4d751748287330c618abb88605ec7d96e7802d0dcdea395e15372cc87434d11edee079d82ec0ac7058cc5e9119c47895b68eff29872b130ecb808dd11e359dc23b63a38f3be2b61237b69a290e60500ca11d1c6a1fa6a1be6964f4ec55ff2dbfa02c855ffa68d36bf4d9a6af5c63f36e53ed87ee37557c2e3e6f9df029f66eb53e03c41ea9a764e24f4e75555df3145136e559ab13070cc792c28aee02898c02e43bec1cc64caa695c5321235e144f714d663ca7a4d54c73d548d5cbfb2b6b0e78c2962cda4d3239fbe5c080719894532105e6880d049e98186ee1e42fec78112a568b12e1f4cae28e403c0ecd817c00f4c3ba7b146be6875c9f7e1dc2d59adebf3572619de073cd1ee84fba886963c93a38a8ec60f616b66c0e735590e8f569b3d55921ae1ede4c539fbb3f43056425ac01c0bee124d4a508a99a631cd6418173382ddc0e7cf0660aad473cd3302eaef2aedb119ae264ed835d0b04bea1a2e2bc34fcdeb3d784cd86e7db85d2985e4b40157e414538ff18a6476bd4fc787afe3e7bf0cc6c06444e61a524d3c07208a90f1da66ccd8233dbbcb8ca211a1f249141205736770b3d6e35aab070c7ad1fd494e9dab6f404f47d39d2d0ed91726967111f28abe002b942b41ca9154905b234dd5f025d5101ee02f23c27a9cf176bcd6996357051e75b99393fdfcf112641999aa70a0c7c2bc216aaea09522034a0d2f4b35c351beba4b48cc8780a9cef54b1a9e36587705642cca163c156c797f634b5983497d671ecf9e8a2c7ab3f5c79325686620deda9bfbe7b62cdcbcbddb762db2afd46cdb487b32b797b2b2a2e46b4627fd0bfbf557591ad1d41966d847f67a203257963987cc8467de1124421d3460bbb058ba3a7804a722cd7fb1e0080fb43b61106e0842c008dcf1a189f81942730c5a7b19e17b79adcb4259673cb0bff78d07a6cc3fdfe42f602d69c5dd26732572a998d13090f9668ceeb27f6925899d7004dcfc3c18306207c840fd2ccacacf1eb23192709e507b7aaa8955021acc7614c6f77da28a3f901aef87a945436587f63209bfad7dcbd59d7ba82a440b994baf863a0589cd3b17587042e572c08297cd7ab2c481cc5e663c1e81f8bad4d222137e8a0a0e9d09a22dc4e0d154bb78cd10d6968727691cd339b519d1390177cb36ebb3e95a089350298c8fe602a5f529d6a77b67180bdf6180d7cf1a8f5a266e01a3919a55df859945d0f91ab0a809ca01629028b6ce10b32a94b52f8f842a0ad459b62169fa0cc5a1ac9bf5ed899b1480c5d8d4412c870e2a61d6cc64385bea07b930d5b33d71d0f08aca739f6046140606dad984262b930474bde6bb1e6490df85994f09e212e027cc75e18b8860ca28b89e4692d8e0ef842a0701241d1feb85170a1b216ad1c7de8aa200a04a6299a990c4affc08219280df5a044d1f6875e5a2bd691bce0a63f36d5b4c42ccb90586754b14280005388139e2af87a94afcc72ccb02873c642f106836f911432a678a0b6f863a08aed1a329ba0ea201926f9b6e0c6a2ffa713193e056917e665af827018b0b7c2a0f4038d6ad8a58c2832f593913ecb637cd16bcdb3eccf86a0c238428bc1f2fbbba04e8fbc94f91c2893faa6b3ab8f849d871fd431dcb0e235ab263d346fce3c51e3",
    "bytes": "0x01f9062301830a5bed8487cf2be4844ac72adc9433623a500fd1fd09985104fa1243e3fec7df18fd871fffffffffffffb90400157df932cf14e98191f7ea110e8ac9dfb42a520a330afa9d4475005f98659266446914a13ebe396337ebbcde13663cb5347eb99f5c2c0e9ca6446a53a2f11acf96ea50c0bae60e69f22cdc5041009a8e41f7ae20b6e4ade70b108c3a0964b5857ba419a500f7f43fdffd057c3302d269ff047bfe5786ed8ed3df0d2a985ce4aedee6895e699e9e0710cb1088bad72ed2cb17bf8add34ab8a0ec2d1a1f54845d949693d61f413f785318704b50f29aa8d27d93efc266ec8c1fabe78ec60c0a7a1432f4df799c61d5b1f6935c5aa0c7cabd6934481207c59add89d9ec188fef83acb409a08fc4dd8af86adcd830f34c9b92735a2f4c3d715040071e6663efc304fab0ffd74e281165c7209d98289450a37020c416799266d439c4d751748287330c618abb88605ec7d96e7802d0dcdea395e15372cc87434d11edee079d82ec0ac7058cc5e9119c47895b68eff29872b130ecb808dd11e359dc23b63a38f3be2b61237b69a290e60500ca11d1c6a1fa6a1be6964f4ec55ff2dbfa02c855ffa68d36bf4d9a6af5c63f36e53ed87ee37557c2e3e6f9df029f66eb53e03c41ea9a764e24f4e75555df3145136e559ab13070cc792c28aee02898c02e43bec1cc64caa695c5321235e144f714d663ca7a4d54c73d548d5cbfb2b6b0e78c2962cda4d3239fbe5c080719894532105e6880d049e98186ee1e42fec78112a568b12e1f4cae28e403c0ecd817c00f4c3ba7b146be6875c9f7e1dc2d59adebf3572619de073cd1ee84fba886963c93a38a8ec60f616b66c0e735590e8f569b3d55921ae1ede4c539fbb3f43056425ac01c0bee124d4a508a99a631cd6418173382ddc0e7cf0660aad473cd3302eaef2aedb119ae264ed835d0b04bea1a2e2bc34fcdeb3d784cd86e7db85d2985e4b40157e414538ff18a6476bd4fc787afe3e7bf0cc6c06444e61a524d3c07208a90f1da66ccd8233dbbcb8ca211a1f249141205736770b3d6e35aab070c7ad1fd494e9dab6f404f47d39d2d0ed91726967111f28abe002b942b41ca9154905b234dd5f025d5101ee02f23c27a9cf176bcd6996357051e75b99393fdfcf112641999aa70a0c7c2bc216aaea09522034a0d2f4b35c351beba4b48cc8780a9cef54b1a9e36587705642cca163c156c797f634b5983497d671ecf9e8a2c7ab3f5c79325686620deda9bfbe7b62cdcbcbddb762db2afd46cdb487b32b797b2b2a2e46b4627fd0bfbf557591ad1d41966d847f67a203257963987cc8467de1124421d3460bbb058ba3a7804a722cd7fb1e0080fb43b61106e0842c008dcf1a189f81942730c5a7b19e17b79adcb4259673cb0bff78d07a6cc3fdfe42f602d69c5dd26732572a998d13090f9668ceeb27f6925899d7004dcfc3c18306207c840fd2ccacacf1eb23192709e507b7aaa8955021acc7614c6f77da28a3f901aef87a945436587f63209bfad7dcbd59d7ba82a440b994baf863a0589cd3b17587042e572c08297cd7ab2c481cc5e663c1e81f8bad4d222137e8a0a0e9d09a22dc4e0d154bb78cd10d6968727691cd339b519d1390177cb36ebb3e95a089350298c8fe602a5f529d6a77b67180bdf6180d7cf1a8f5a266e01a3919a55df859945d0f91ab0a809ca01629028b6ce10b32a94b52f8f842a0ad459b62169fa0cc5a1ac9bf5ed899b1480c5d8d4412c870e2a61d6cc64385bea07b930d5b33d71d0f08aca739f6046140606dad984262b930474bde6bb1e6490df85994f09e212e027cc75e18b8860ca28b89e4692d8e0ef842a0701241d1feb85170a1b216ad1c7de8aa200a04a6299a990c4affc08219280df5a044d1f6875e5a2bd691bce0a63f36d5b4c42ccb90586754b14280005388139e2af87a94afcc72ccb02873c642f106836f911432a678a0b6f863a08aed1a329ba0ea201926f9b6e0c6a2ffa713193e056917e665af827018b0b7c2a0f4038d6ad8a58c2832f593913ecb637cd16bcdb3eccf86a0c238428bc1f2fbbba04e8fbc94f91c2893faa6b3ab8f849d871fd431dcb0e235ab263d346fce3c51e301a039ae8cacff16e197af5dcab26329f0177ac05adc63a0eb271260da77eff7e0aaa05ea54f48cb114ecd519f608dbae51a6ca13694d906833b258448552f1b4b3170"
  }
}
