{
  "input": {
    "data": "0x04b1f265c27cf09cf5590052a3ca61fec222768b50b37a42f55783205c25ce048e62a8e860050fb9a224e98d1f2f74c5afedbf3cd675a5d8420496bb70fef8eac4be3e74b411f26c364026f0bbd279f1a3ab34fa4030ba96ab156f2d2c587ef95c0d938aeb8b295bcd205f34da3b9b987b2d73d79ac0de9838468a6ce8af8ffe01a80efd369e22b10b1206e366e3371a9385edc59f8fa90f0a46399ac2cf626d0d85c98a2d65b47398b54133942700e52ab5c68d1558aea265bd44467dcee99163588c50df7aacf143806bade657421f6cacddfae2c0fbdff941e05fc90d476855cc10355d5e1841a127a927f461f354d4b0561afd29c1c66d31b7b8cec3ad29b4b13a5c740d0648f93042ce34da66e327688f7c0badc5cf8e87e9ac0aa1fa98c21f9d03e525d93fa3b30204825b5bd5721c8e1fcd59948e4cc90387211b9dfd1dea5ee18cefa0f9b7b63123ac413244d8344d6e8fe90575748cb4189db12e30be5342a85082fd406f2f542e6d6d20934c2d3abb448690bd813ef69b11b78181ca9b6eaae994c6a7e140b35a04613982168460c5e77d976f371853d52ff0e713896b8c39162cbcb2954672edea6bbc2994667c1a08a8e52a7f20a055507a8b1b1c0bfb6594b6b8c55b52e1b04708b5b7a8de7c75bcfb049915d48658f808ccfb03804f4ee1b570f89d40936a1799bb8195b6af8106d0d574a2fa7dad9e43027f59ececf5eb93cc6ddb4f6760ef4ec70665e3d8a7a3ccc9a49f9b7ed50f0a1bc358a1b6bd1fd6455adc2ea275335fff971a80b6f19336c3cf401f7311d4a531051d4200ef2a44165b7998952f67ee7a8485e8d1fa11526e0cdaefaf9c2c905bd14eb90d1322dc91ebbde070d94a08e4e8d87eaccabf54b5284b775134365a64ea79b5f8ef088136346352b4aa8497722926df1fc73990c00a43986df5e3942ef0995181ffc5399bbd6d1cce921dae0627f482ac970acedd91a8aa54115d779c1e1f0ae8bd1850a969851dbeef5a05eb4deaa8f26cc2a05f8dd989b56b975526f9451abe3a570b53651a0ead5333cdbae74b957fe88121df873ddcb5e008701cc7842e2c39108b3a363c3cc2d476a1bde463386344258e036ae7ffd996581a0cc2c334b62016c83806b1145d23dc2114a7e9bc2ba57dca1a18125d72aef375903d2228f5576eef22595c0e2038c63f7b5f16705ee303e264b6a1e5603ca0855b94b9c502dce4740c63704efb67559bfee195c99b7b6958f3d095ae14da28f8bbb0ed6b5129ff4e5ccf1ad9ca96ae331330d65a45d8ccc1f24cb49ffcbe1e72620eb9a6ba5f360ee877959e369cf6cbb379210d6c111bc145e0834f03a8e8ab2af7272cbdd24eafcbc2eac3cc1d49d8952157c91581bb75869aa2f70c62dd5f2700b1ec793c6dc4a903b366da5579e5d92f8fbf6f3b436368591b27b201cd96bfbb",
    "gasPrice": 2729239662,
    "nonce": 221437,
    "to": "0x983837e1c0c20a80941170d5e271b0af4871e111",
    "value": 9007199254740991,
    "chain": 1,
    "gas": 3024071626
  },
  "privateKey": "0x6a9aa28107db188bc4ce15d283678f1b4959b08f8b73971a2683b3b004b75cd3",
  "output": {
    "v": 37,
    "r": "0xfc1ada770895b2d46684195863d7e83dfdd9af6782298c8374c3e4c4b6cd8323",
    "s": "0x059824701a39dfc5c29c3c3a2f0da7e74cc399010ff07014948577e7da839964",
    "bytes": "0xf90471830360fd84a2ace46e84b43fabca94983837e1c0c20a80941170d5e271b0af4871e111871fffffffffffffb9040004b1f265c27cf09cf5590052a3ca61fec222768b50b37a42f55783205c25ce048e62a8e860050fb9a224e98d1f2f74c5afedbf3cd675a5d8420496bb70fef8eac4be3e74b411f26c364026f0bbd279f1a3ab34fa4030ba96ab156f2d2c587ef95c0d938aeb8b295bcd205f34da3b9b987b2d73d79ac0de9838468a6ce8af8ffe01a80efd369e22b10b1206e366e3371a9385edc59f8fa90f0a46399ac2cf626d0d85c98a2d65b47398b54133942700e52ab5c68d1558aea265bd44467dcee99163588c50df7aacf143806bade657421f6cacddfae2c0fbdff941e05fc90d476855cc10355d5e1841a127a927f461f354d4b0561afd29c1c66d31b7b8cec3ad29b4b13a5c740d0648f93042ce34da66e327688f7c0badc5cf8e87e9ac0aa1fa98c21f9d03e525d93fa3b30204825b5bd5721c8e1fcd59948e4cc90387211b9dfd1dea5ee18cefa0f9b7b63123ac413244d8344d6e8fe90575748cb4189db12e30be5342a85082fd406f2f542e6d6d20934c2d3abb448690bd813ef69b11b78181ca9b6eaae994c6a7e140b35a04613982168460c5e77d976f371853d52ff0e713896b8c39162cbcb2954672edea6bbc2994667c1a08a8e52a7f20a055507a8b1b1c0bfb6594b6b8c55b52e1b04708b5b7a8de7c75bcfb049915d48658f808ccfb03804f4ee1b570f89d40936a1799bb8195b6af8106d0d574a2fa7dad9e43027f59ececf5eb93cc6ddb4f6760ef4ec70665e3d8a7a3ccc9a49f9b7ed50f0a1bc358a1b6bd1fd6455adc2ea275335fff971a80b6f19336c3cf401f7311d4a531051d4200ef2a44165b7998952f67ee7a8485e8d1fa11526e0cdaefaf9c2c905bd14eb90d1322dc91ebbde070d94a08e4e8d87eaccabf54b5284b775134365a64ea79b5f8ef088136346352b4aa8497722926df1fc73990c00a43986df5e3942ef0995181ffc5399bbd6d1cce921dae0627f482ac970acedd91a8aa54115d779c1e1f0ae8bd1850a969851dbeef5a05eb4deaa8f26cc2a05f8dd989b56b975526f9451abe3a570b53651a0ead5333cdbae74b957fe88121df873ddcb5e008701cc7842e2c39108b3a363c3cc2d476a1bde463386344258e036ae7ffd996581a0cc2c334b62016c83806b1145d23dc2114a7e9bc2ba57dca1a18125d72aef375903d2228f5576eef22595c0e2038c63f7b5f16705ee303e264b6a1e5603ca0855b94b9c502dce4740c63704efb67559bfee195c99b7b6958f3d095ae14da28f8bbb0ed6b5129ff4e5ccf1ad9ca96ae331330d65a45d8ccc1f24cb49ffcbe1e72620eb9a6ba5f360ee877959e369cf6cbb379210d6c111bc145e0834f03a8e8ab2af7272cbdd24eafcbc2eac3cc1d49d8952157c91581bb75869aa2f70c62dd5f2700b1ec793c6dc4a903b366da5579e5d92f8fbf6f3b436368591b27b201cd96bfbb25a0fc1ada770895b2d46684195863d7e83dfdd9af6782298c8374c3e4c4b6cd8323a0059824701a39dfc5c29c3c3a2f0da7e74cc399010ff07014948577e7da839964"
  }
}
