{
  "input": {
    "data": "0x1c31d995f53bcda3f1cdce30cf54f08a96445281852036fd04823842fa249f975ac8d6c31b1e4d30b6101324c0c2ee04688c322f3f42623244b8f077b1065a5fc351e4743f449286afcca276b9639209e5ee9dece9b007c914e41c6b4f3a6ee8400b50906f19a81a5ea229a83edb72a1dd9c5ce7a1023543702bd2c227d322eee86710bc1da914ad0ba2b766415acfef2154d09cb13f12dbcc5961780b0453a58d3ec3b0083c22106b4452587892789d80adc9b1ecf3042dc56ffb0e88ca43274de08a31dde9b63ce507336929a55fa3b3b61f884f69c84c572d3f60e8697a2bf990a61e625dc15957cf3901267012809b39222f98d412c76828bce530a13369d4b8a55c0b754bcdc82ab3d7ba1d4a733caaa2a0a93b4bc29a661d3cdfbbbfb3e23223930946f711576d6ac60f728c329cbc5a2fdc4ea970191e000f6a87685e463c0ee84dc7e71c340537f0a441551a6caab0e3a0999ce75b118560f2b0b0314510286b38f844872739099515080ff879a04d2fc4899208cd87b0881cdd7b11f81a173b25c052e4dfb6db61ed18f8864bae08a565563c6d5888cae249812154ea3e3383664142e825d0d25116623b3d0358329bfe2489fd029e64c4fc4e5ef8b7800fb49539cdbba59c8fd7b235f9464a0bd585fa4a7907c01fa36b24412e846f8f4770fd1fec49d7550cacabed829dc7a114f3e6070838db3037e22157cd89c70399c4938d552fbea8655d14f697f189294009e5e0e6851bc50d62060e0af507550901fa4c168b01662ce9dd0433031f3fea2b1a4d8f950c396b014ecd648d439c3ad8dbaebbef6fac949281079e5d70195f74998d4c148b0d76fa87704d57c62a6d04f08e74d6c61dc4809517635f51688fd8b5a153d3cd674ae62a5a4842a8d4b3fd6e206d6fc45e6b5f98c2220835a473d87ad38396ab76f3e790f1102dc7cf81c6280546bc0754a0e381ce9c7b4f550069502969a480cd5df44d45fd5afe0b1700b6eb84da70cad381bfeade7664a585ed1fcbe3433296687c299d5dd1559c97cf56865a51e3c28b243563d15a9c39f0baadec20e5dba722c7631d113c1c959ba4107d50e9765bb5a4dbee9267b27a86f3a01d18bc52c416b5496251c42088aaf05ff95c500a6f08e4ebe3cbf1528f064e4d4303e7e9448aca75a27eaabb30286b0e8c46025d3e339f55a72933a042ed9d9ceecef92126735c9c49ac2b4a0759dc12dd614a4dcdbf0c9f145ec0b058d3d57a213e28a6359b3a3e97f39c59ec30f77af4243b7a33e9815b17be5b257e84735b24a1f109678368f72b9235850a8bb91c67f7758bb6f4e274d05c47468591bf7aa8da1115e5843a3947378355bc855b3203f672fd8c86096c6ff18c5153056d1766b5d28b86455755ac9e848888baf69d04f8dbcfc5ef7bb80e6119f65ca43bc9a9942480347e542af75e5d",
    "gasPrice": 2318695637,
    "nonce": 342834,
    "to": "0xed0624131bb01995c75f388793549a580c08d2ca",
    "value": 9007199254740991,
    "chain": 1,
    "gas": 3340577579
  },
  "privateKey": "0x200682c791ca583af79ee532e9fe6ab622f55af0d434ba18e0bdc6e8549d21e3",
  "output": {
    "v": 37,
    "r": "0x3b3a06e5740d9717976f1133e77b7efe7e1dc9f36f0cc258bb23891ccf7a4f08",
    "s": "0x0000d8ba0bc9f58f5533c8ae8fb4065f18cf052f9e11486e1afa313e4237ac95",
    "hash": "0x4139a68af5f274fb9d63355accbaf0822f5ac77b6fcc0688ece5c441b413d788",
    "bytes": "0xf9046f83053b32848a347cd584c71d2b2b94ed0624131bb01995c75f388793549a580c08d2ca871fffffffffffffb904001c31d995f53bcda3f1cdce30cf54f08a96445281852036fd04823842fa249f975ac8d6c31b1e4d30b6101324c0c2ee04688c322f3f42623244b8f077b1065a5fc351e4743f449286afcca276b9639209e5ee9dece9b007c914e41c6b4f3a6ee8400b50906f19a81a5ea229a83edb72a1dd9c5ce7a1023543702bd2c227d322eee86710bc1da914ad0ba2b766415acfef2154d09cb13f12dbcc5961780b0453a58d3ec3b0083c22106b4452587892789d80adc9b1ecf3042dc56ffb0e88ca43274de08a31dde9b63ce507336929a55fa3b3b61f884f69c84c572d3f60e8697a2bf990a61e625dc15957cf3901267012809b39222f98d412c76828bce530a13369d4b8a55c0b754bcdc82ab3d7ba1d4a733caaa2a0a93b4bc29a661d3cdfbbbfb3e23223930946f711576d6ac60f728c329cbc5a2fdc4ea970191e000f6a87685e463c0ee84dc7e71c340537f0a441551a6caab0e3a0999ce75b118560f2b0b0314510286b38f844872739099515080ff879a04d2fc4899208cd87b0881cdd7b11f81a173b25c052e4dfb6db61ed18f8864bae08a565563c6d5888cae249812154ea3e3383664142e825d0d25116623b3d0358329bfe2489fd029e64c4fc4e5ef8b7800fb49539cdbba59c8fd7b235f9464a0bd585fa4a7907c01fa36b24412e846f8f4770fd1fec49d7550cacabed829dc7a114f3e6070838db3037e22157cd89c70399c4938d552fbea8655d14f697f189294009e5e0e6851bc50d62060e0af507550901fa4c168b01662ce9dd0433031f3fea2b1a4d8f950c396b014ecd648d439c3ad8dbaebbef6fac949281079e5d70195f74998d4c148b0d76fa87704d57c62a6d04f08e74d6c61dc4809517635f51688fd8b5a153d3cd674ae62a5a4842a8d4b3fd6e206d6fc45e6b5f98c2220835a473d87ad38396ab76f3e790f1102dc7cf81c6280546bc0754a0e381ce9c7b4f550069502969a480cd5df44d45fd5afe0b1700b6eb84da70cad381bfeade7664a585ed1fcbe3433296687c299d5dd1559c97cf56865a51e3c28b243563d15a9c39f0baadec20e5dba722c7631d113c1c959ba4107d50e9765bb5a4dbee9267b27a86f3a01d18bc52c416b5496251c42088aaf05ff95c500a6f08e4ebe3cbf1528f064e4d4303e7e9448aca75a27eaabb30286b0e8c46025d3e339f55a72933a042ed9d9ceecef92126735c9c49ac2b4a0759dc12dd614a4dcdbf0c9f145ec0b058d3d57a213e28a6359b3a3e97f39c59ec30f77af4243b7a33e9815b17be5b257e84735b24a1f109678368f72b9235850a8bb91c67f7758bb6f4e274d05c47468591bf7aa8da1115e5843a3947378355bc855b3203f672fd8c86096c6ff18c5153056d1766b5d28b86455755ac9e848888baf69d04f8dbcfc5ef7bb80e6119f65ca43bc9a9942480347e542af75e5d25a03b3a06e5740d9717976f1133e77b7efe7e1dc9f36f0cc258bb23891ccf7a4f089ed8ba0bc9f58f5533c8ae8fb4065f18cf052f9e11486e1afa313e4237ac95"
  }
}
