{
  "input": {
    "data": "0xf7ae6feb8993126db6682d9113699330a991e42db409fa486d8ef6b04eb1ba27a65d5cddca27c09cc0c5fd6c4997859981e7d7ae5b62cb67e6cc039c20b2140bf0b0a343dced6dc6485844d3a50e3c3db1a5e07a5bf1eaec8e2e8b54c18e2e677cd5f111f27759a13777470ccf815b7f2c02b9742d8a817a8a323760e940a679c4a8b874525d8a27e2ea2ae7d6101af0617d0dbab3c2d30d52492c4c02857064aa4f70a050f888133e31e89a2768cc2641ae5f393cde99630a374b460aa16100272876f5203f50793ea25cd5a9b89754d2360350921b18a0ff829368fd9a6841ac1f9a62a50dc7bbd8f1eded5d2a6928d78372afe1acb352c54b5bff25db91d8460b8372c159e77938a14ebfe26049d25488b00db69de078ae815d5eeb0890982298d21d5b5ed459663923facc781734b793595bfaa9307428fa296bc5e10c8024093731a294c3ebbcbec89e22557599c8def254cf2216e79da63de9cc173489b14d6db957a26d3a98f707ca6e7b77842097d3ac6bd44c067c38819e31a640df54255771f652a066f17ebbe2dfcfff8a5b793c97160a58294b037ec45ad7bc4a6878649774fc0fc7be58eacf5797433ac699fe357e74b24362120b6881857309d80230ee5d97c855819ea331c1c445e51acae963c79ca39cf8883fa1fc451eadf1b4c85b250aa28eec51ff570715cd8aaa3737befb9db7c4b05c47dfde52997f2ce51d8240d5503715031fd9d3165004b0bd40748071e3f3b5e15ad0ca9b5b38a0ae91cf9dd27bf7c9b72dd3665c1b649a23acbde4fa57e91faf24acaec65db837de57fa7c46f171de29037cfc9b205f13d06b8da2757d2ba0417545cc2664d36447fe41d49591e269fe6fb844df26441344eceba09ff814413e0499b8f6e700f151c49583e7ac962eeaffb3e4d888a415d8aa2b7587d8a913b467ac317ad744a0d5e3819bb89a5a3e8a761087b6025445e1ffe1f42cba79b4f8c6cd139ecfcf6437a6083c8b4b4278351e6342d47b05df9e9b49ecfd2e3ed901445c3927f0547bf5253df53d6e4852e69315c22f21abfe985806154e61ac5cb9df72eae599c125f1940b04c99b036676efe48fdaccbc5d17916ac23ff062abd31f7a48acac55883560eeb3da0a0018af527fce6d93a2c6dae67b2cf15fac713aa5131760a91af1477d6bee67a356d0e60b03441aab7c65d455eda7347518e4828ba89529844b17d36d4035786ba8ce691ce61d85343dcba97cff3ff487fae5ca93908d536b824721dc1d13f2b56c7c69d6f90eb8c1574f2c9eddce2a976419ba5d299f2b3197635797703b8cf732850d602f683b0bfcd444d69de86fea65fced49b78b8728db1c1392b4d5bd9427663c00d094780d99c16d0ebd10a011019b4f61a70bc7faea0ed4501f21bab7cd952c713881c640c0d01b0fd1687da99645b97d504e9e3194",
    "gasPrice": 2524793843,
    "nonce": 721963,
    "to": "0xad8c8421c81c668d5d389250f6899f6a48c5d4dd",
    "value": 9007199254740991,
    "chain": 1,
    "gas": 2092793796
  },
  "privateKey": "0x23a45d9200bcc91d732b7ee79de47ec5876d987f9d54727a0991d84b8ef015e2",
  "output": {
    "v": 37,
    "r": "0xded0e1a03427870e001d588694b605d95bb377747b5a0ecfbf8f72846022eaa8",
    "s": "0x3efaa900a03333a6e4dc1dd533475f2a835c7dd75ec3a88532bea1e066b92c1e",
    "hash": "0x5c5f6e8f9a64c9f5ceac76942e623d5d9bc7305da1c13857e1ddeab227271a8c",
    "bytes": "0xf90471830b042b84967d4bf3847cbd7fc494ad8c8421c81c668d5d389250f6899f6a48c5d4dd871fffffffffffffb90400f7ae6feb8993126db6682d9113699330a991e42db409fa486d8ef6b04eb1ba27a65d5cddca27c09cc0c5fd6c4997859981e7d7ae5b62cb67e6cc039c20b2140bf0b0a343dced6dc6485844d3a50e3c3db1a5e07a5bf1eaec8e2e8b54c18e2e677cd5f111f27759a13777470ccf815b7f2c02b9742d8a817a8a323760e940a679c4a8b874525d8a27e2ea2ae7d6101af0617d0dbab3c2d30d52492c4c02857064aa4f70a050f888133e31e89a2768cc2641ae5f393cde99630a374b460aa16100272876f5203f50793ea25cd5a9b89754d2360350921b18a0ff829368fd9a6841ac1f9a62a50dc7bbd8f1eded5d2a6928d78372afe1acb352c54b5bff25db91d8460b8372c159e77938a14ebfe26049d25488b00db69de078ae815d5eeb0890982298d21d5b5ed459663923facc781734b793595bfaa9307428fa296bc5e10c8024093731a294c3ebbcbec89e22557599c8def254cf2216e79da63de9cc173489b14d6db957a26d3a98f707ca6e7b77842097d3ac6bd44c067c38819e31a640df54255771f652a066f17ebbe2dfcfff8a5b793c97160a58294b037ec45ad7bc4a6878649774fc0fc7be58eacf5797433ac699fe357e74b24362120b6881857309d80230ee5d97c855819ea331c1c445e51acae963c79ca39cf8883fa1fc451eadf1b4c85b250aa28eec51ff570715cd8aaa3737befb9db7c4b05c47dfde52997f2ce51d8240d5503715031fd9d3165004b0bd40748071e3f3b5e15ad0ca9b5b38a0ae91cf9dd27bf7c9b72dd3665c1b649a23acbde4fa57e91faf24acaec65db837de57fa7c46f171de29037cfc9b205f13d06b8da2757d2ba0417545cc2664d36447fe41d49591e269fe6fb844df26441344eceba09ff814413e0499b8f6e700f151c49583e7ac962eeaffb3e4d888a415d8aa2b7587d8a913b467ac317ad744a0d5e3819bb89a5a3e8a761087b6025445e1ffe1f42cba79b4f8c6cd139ecfcf6437a6083c8b4b4278351e6342d47b05df9e9b49ecfd2e3ed901445c3927f0547bf5253df53d6e4852e69315c22f21abfe985806154e61ac5cb9df72eae599c125f1940b04c99b036676efe48fdaccbc5d17916ac23ff062abd31f7a48acac55883560eeb3da0a0018af527fce6d93a2c6dae67b2cf15fac713aa5131760a91af1477d6bee67a356d0e60b03441aab7c65d455eda7347518e4828ba89529844b17d36d4035786ba8ce691ce61d85343dcba97cff3ff487fae5ca93908d536b824721dc1d13f2b56c7c69d6f90eb8c1574f2c9eddce2a976419ba5d299f2b3197635797703b8cf732850d602f683b0bfcd444d69de86fea65fced49b78b8728db1c1392b4d5bd9427663c00d094780d99c16d0ebd10a011019b4f61a70bc7faea0ed4501f21bab7cd952c713881c640c0d01b0fd1687da99645b97d504e9e319425a0ded0e1a03427870e001d588694b605d95bb377747b5a0ecfbf8f72846022eaa8a03efaa900a03333a6e4dc1dd533475f2a835c7dd75ec3a88532bea1e066b92c1e"
  }
}
