{
  "input": {
    "data": "0x2fdaf47fe903c5c3efcac37fc5c7156654b6d6a40a2b35bb1e487e59edd397a61394e3f3ea399f804ec7073c51c8a7db5e1c2f94d1ef6e540c7737e974b1e2e89013f30708407cfbe72d7207c976d491f96a99cbfa01f986a9766edf74c97cd6bdd5a73222d8f4659b36c6496e42bd044ece5a8e580169fa68d9f9ec8749e4cafad25793e978cac159c8cf12fcd5aba9ae55cb2c3a12cf5548715bddc883cbc4cd3deb4220e8ff298ec7212ac0c2c3eabb1a6f5c066bf6eccbc5a83170a902135a0a98092904a9199bb558440e3a384cfa8c690ad4803172aa3df41c75af720be592cc1889da7f90f797571bfc6fbc7eb48ec2406ddffc915c1f7e25bed855b7b390db56806824bc4c3041bd761afb3de0deaa4ffe823fa9053677a8821f7b3ec566e1017c45daede8d3c08e3b30307504ccb8371d3c0c5b778602ebf6134981af51f495252b1fc23b57f121fb4caf76056a3e96af42082d76135b4e6392a46793238ae45e0630a0d6db74c6945d376d9c266eadcdebb49abf217512d16098581c902ddfc9567c1abaa9ae1d173f4df75b53c72339e169fd583a36b654c41ea01599fbd82f04df3e89886097d051bf39ab1a09b7d6b5a9cb1128e5ec25541c97689d5101ba65918ddebad9b50e07058c51dd00b0eca8934a0252a5937273a1c8a8cb491e58aa3481f094cf900c1d9abfbe0a876624d7523c2566c3613939516ed2173b58160fd5728d2d8cf46b91e2633a82658fc51acb2a2c84862e1203a2ed7645810592422bf92d488b6b19eef449bb5b2f496d80a2f70fa15b8357c3328a9273ba100192a9fb99778d48a56673a8fad771ff2263c16a8be050a7854ed11cdf8ee39e184a1434a82645e8db3875dca8abecee47810269775a2dfbe25851feee74a7c13532c25dd990966e08dd95b67a637df4ea191063239bfbfac063a36e14ed874a2b1a261d93b3143e8f1b79cf38650d016a137fe7bd4f2394be397b0b083a66a584452b6857b637750807087516365d703d3b54b958bdcdc595e8c4d1cb8f7d508a53179f1671d4daed4c777b8638cd3c032c9b7cb65d6c9a1b9af02810189d8515b1fa36823ef82e230fcd8b5272d131997f80bad59044ef6ab92e804399d4c81b4f767e5744adfdda13439e4f25b4c452635914bb112f378eb4dd8e4813ca2c2cf382906ebdfa7928dc8e7d13597f9593392b6118e206061885bfcac6a9a8a6e251bd6153ce96fc79d9ac342db59e03b93fccebe05bbf6d941cd27411430beff0dd552d871052955a2d452d9e811819865554e20cd11c536b5e2c70c313dce034a642ef08956130c5be030779c925b27f220468332e84f25611ab3250a987d3320eb116da6b0fd8ffb36ca27abe91883e818f89345c3487774da62fd1d44603d59042c2031bfbc48f43880c2e908d90a00d31b29995004b55303c01",
    "maxPriorityFeePerGas": 1921604311,
    "maxFeePerGas": 4115761933,
    "nonce": 1011350,
    "to": "0x1f26e47159d9c1cd41cd008d7534d9c61d549eaa",
    "value": 9007199254740991,
    "chain": 1,
    "accessList": [
      {
        "address": "0x336e674b0161fcb98b95bd5c3915f1bc2b7547b8",
        "storageKeys": [
          "0x333edd7b2fc2fd2d3e44987aef42322e9c843e295b4def3cad756049da34e581"
        ]
      },
      {
        "address": "0x4eda1a6837a31615d50852537e53828b8cc550e0",
        "storageKeys": [
          "0x2248bdbe13c7cc88bcfd38530d8d966f482647aa31e7390c8ca124a6051a6cce"
        ]
      },
      {
        "address": "0x2901e5892e97bb0f96d85428330b3f35973155c9",
        "storageKeys": [
          "0x61c34cbd68ee598dd6a9ef1d71cfed7cd40d311b68790c40cbffb32d706447d7",
          "0x7a4bbe3eebe089b09664a730892057ce79c44e467310f8a791e8e1c7ee547ffb"
        ]
      }
    ],
    "type": "0x02",
    "gas": 3594618018
  },
  "privateKey": "0xf8f11ed48e08a91ba7cc7c1c555f40eebf278f532f767be4489976fe207e14a2",
  "output": {
    "v": 1,
    "r": "0x99844e40f4763c8cf8bf20c87ddef817dbf2fd16d3d40607ec56a726f6e4914a",
    "s": "0x7c93e9b5de55a92b822e40d86d34ca31f7f00727279301548b37a08a4cb59707",
    "hash": "0xd98df0ee3c050a0ea396abdbea551af15c33ef02f40b3356a300f5e74a93fa19",
    "bytes": "0x02f9054401830f6e968472895ad784f5518b0d84d64184a2941f26e47159d9c1cd41cd008d7534d9c61d549eaa871fffffffffffffb904002fdaf47fe903c5c3efcac37fc5c7156654b6d6a40a2b35bb1e487e59edd397a61394e3f3ea399f804ec7073c51c8a7db5e1c2f94d1ef6e540c7737e974b1e2e89013f30708407cfbe72d7207c976d491f96a99cbfa01f986a9766edf74c97cd6bdd5a73222d8f4659b36c6496e42bd044ece5a8e580169fa68d9f9ec8749e4cafad25793e978cac159c8cf12fcd5aba9ae55cb2c3a12cf5548715bddc883cbc4cd3deb4220e8ff298ec7212ac0c2c3eabb1a6f5c066bf6eccbc5a83170a902135a0a98092904a9199bb558440e3a384cfa8c690ad4803172aa3df41c75af720be592cc1889da7f90f797571bfc6fbc7eb48ec2406ddffc915c1f7e25bed855b7b390db56806824bc4c3041bd761afb3de0deaa4ffe823fa9053677a8821f7b3ec566e1017c45daede8d3c08e3b30307504ccb8371d3c0c5b778602ebf6134981af51f495252b1fc23b57f121fb4caf76056a3e96af42082d76135b4e6392a46793238ae45e0630a0d6db74c6945d376d9c266eadcdebb49abf217512d16098581c902ddfc9567c1abaa9ae1d173f4df75b53c72339e169fd583a36b654c41ea01599fbd82f04df3e89886097d051bf39ab1a09b7d6b5a9cb1128e5ec25541c97689d5101ba65918ddebad9b50e07058c51dd00b0eca8934a0252a5937273a1c8a8cb491e58aa3481f094cf900c1d9abfbe0a876624d7523c2566c3613939516ed2173b58160fd5728d2d8cf46b91e2633a82658fc51acb2a2c84862e1203a2ed7645810592422bf92d488b6b19eef449bb5b2f496d80a2f70fa15b8357c3328a9273ba100192a9fb99778d48a56673a8fad771ff2263c16a8be050a7854ed11cdf8ee39e184a1434a82645e8db3875dca8abecee47810269775a2dfbe25851feee74a7c13532c25dd990966e08dd95b67a637df4ea191063239bfbfac063a36e14ed874a2b1a261d93b3143e8f1b79cf38650d016a137fe7bd4f2394be397b0b083a66a584452b6857b637750807087516365d703d3b54b958bdcdc595e8c4d1cb8f7d508a53179f1671d4daed4c777b8638cd3c032c9b7cb65d6c9a1b9af02810189d8515b1fa36823ef82e230fcd8b5272d131997f80bad59044ef6ab92e804399d4c81b4f767e5744adfdda13439e4f25b4c452635914bb112f378eb4dd8e4813ca2c2cf382906ebdfa7928dc8e7d13597f9593392b6118e206061885bfcac6a9a8a6e251bd6153ce96fc79d9ac342db59e03b93fccebe05bbf6d941cd27411430beff0dd552d871052955a2d452d9e811819865554e20cd11c536b5e2c70c313dce034a642ef08956130c5be030779c925b27f220468332e84f25611ab3250a987d3320eb116da6b0fd8ffb36ca27abe91883e818f89345c3487774da62fd1d44603d59042c2031bfbc48f43880c2e908d90a00d31b29995004b55303c01f8cbf794336e674b0161fcb98b95bd5c3915f1bc2b7547b8e1a0333edd7b2fc2fd2d3e44987aef42322e9c843e295b4def3cad756049da34e581f7944eda1a6837a31615d50852537e53828b8cc550e0e1a02248bdbe13c7cc88bcfd38530d8d966f482647aa31e7390c8ca124a6051a6ccef859942901e5892e97bb0f96d85428330b3f35973155c9f842a061c34cbd68ee598dd6a9ef1d71cfed7cd40d311b68790c40cbffb32d706447d7a07a4bbe3eebe089b09664a730892057ce79c44e467310f8a791e8e1c7ee547ffb01a099844e40f4763c8cf8bf20c87ddef817dbf2fd16d3d40607ec56a726f6e4914aa07c93e9b5de55a92b822e40d86d34ca31f7f00727279301548b37a08a4cb59707"
  }
}
