{
  "input": {
    "data": "0xc132472f5cf0f16a938d145181f520843e617418ca5471dbb11e084ceec765c1a6d1f194d2aff6acc93e278667c56ca88a1880a9568721c29f1eef740d1aa1909f0d6f55288270553ee1e9d1f5c19c41000b31451cb8880d88fff9240a4f4768615332e334266ac099fb2950be4a87c6da1ebec50a0a8ae842afb0e4d9844ea1c971ec2af930cfebb0e812a7d633b156d37dc107de5b2e85805b6fbea9b030b61e870fdcece1a5c043854b0916cdd01ba8ea38c7736d11fc1d8fe2dc9f880b21a334bb0381183bb132925753ed48bbdd6e79dad41f280f0dfabb3f9bbbee87410bfc115256798b324c39c7f39714c5a104c212c474529ed413d16fd8a173f5ee464085a635d12003fdb76cd45dc8af2e30cb41b919f85be85bc2a2b2ef6d5aedafcd2bc4989e622bfbb371039d0c0c35a77c881aef65443af558f764df290f2766b4a225d7434dc2c34e06f0aae0dc0f95680e64e59981fe207af27e4e14b7ba9514d7f4f6d0620300be1aa537af6e5313b16ffff660fdf054c638074baae80367678c4f3732e7adcbcf81e65e9db58e96769f4d645f440f4cd696517a19ea19817a07c6fe2888fbd3e186574a6c29b09b4fa9752dac4d409e914418f9fa1a5ed6e8ba81c9c510371efcc294e6fbd40131efb46919b50623d4362bdabf8c1f9d752c819a98ff03156fa5ecb802a6b0b0f6ecb9eb44385606602535dd70d27b3b2ac9425dbb7e203838b634ed135918f855d599588ab63ccca9e59e398f60158142f08c14d4212c5423e192d04841c6ae16fbaa15e38b23c2a43035d03994a724e494c123f316c043e43d9a3fb7f49ff10a4a8bcff8f1603407eabc5ea18a5844c63e5b50d9fa97c73e165bbdaa04ff908e71fbed27aab08f5edffabb119b97bfec7dbce8436ac9e58cb6f601ae086042cdd5b7114be326e6271e97816b046f2e15675bac54cb13a31bebd32a5fd92bc849a37a670ecb5f14e8c02eb13c9aa8f5509a89818d565f74bdad3288379e4f1fa22bc21e3699a3c6b473a7d183dc6c1e73613738ff0f53cc17c00da2800a9aa8f0cf2d446516cc71fd61d7f141760a4e1c27f570c0acf0798f7f0039ab499e501d1e3078446d72b6fa4c1d2efc10fabfcc983e50fa8be25dc78839b73c5a9cd98fa704c2c90a7f1b12d9869ef705441577b921f2fbceb9a44c1ea82f02f0699f0050e70fb6cf16908cbc7084a62339744661b092922587666a180431ec41302ba4457ff9505c8a869ff4d40ad3aac9b6eff4cea6d435d9b44090ed04c93e3d110a96d7f25355266fbfe527230ad23c8331c8124f91de53702444715ab3fe2c486c207cbf11b4591488728df1afbd42de6963a684e838467f620aabf6708dc6158f25a4c958d648c45f7b45c01fc2688bc95a4464d183112dcba83357367521ce94eea79c8cb180900300eea3ab1ffc82",
    "gasPrice": 2452587512,
    "nonce": 219909,
    "to": "0x37050ff5cb4020b6884b3c32d0cf8676ea5996be",
    "value": 9007199254740991,
    "chain": 1,
    "gas": 1545632172
  },
  "privateKey": "0x84d01e259798ddcc99b14424ec00706094afa43b9848b5186695a80daddebb4a",
  "output": {
    "v": 37,
    "r": "0x00009ddbcc16337e31ad0f7a9da4edcf70a6ae3e30aaddffa19a21298151f629",
    "s": "0x0b426d3a51eeb09eec42ed83d7dd275a58fbe5e9df1856a38a20e950cd704e17",
    "hash": "0xcaefa8651b1a72d9f68e7e49012fd6a8e301ee761dec7743e574e5f42ed32cbe",
    "bytes": "0xf9046f83035b0584922f83f8845c2079ac9437050ff5cb4020b6884b3c32d0cf8676ea5996be871fffffffffffffb90400c132472f5cf0f16a938d145181f520843e617418ca5471dbb11e084ceec765c1a6d1f194d2aff6acc93e278667c56ca88a1880a9568721c29f1eef740d1aa1909f0d6f55288270553ee1e9d1f5c19c41000b31451cb8880d88fff9240a4f4768615332e334266ac099fb2950be4a87c6da1ebec50a0a8ae842afb0e4d9844ea1c971ec2af930cfebb0e812a7d633b156d37dc107de5b2e85805b6fbea9b030b61e870fdcece1a5c043854b0916cdd01ba8ea38c7736d11fc1d8fe2dc9f880b21a334bb0381183bb132925753ed48bbdd6e79dad41f280f0dfabb3f9bbbee87410bfc115256798b324c39c7f39714c5a104c212c474529ed413d16fd8a173f5ee464085a635d12003fdb76cd45dc8af2e30cb41b919f85be85bc2a2b2ef6d5aedafcd2bc4989e622bfbb371039d0c0c35a77c881aef65443af558f764df290f2766b4a225d7434dc2c34e06f0aae0dc0f95680e64e59981fe207af27e4e14b7ba9514d7f4f6d0620300be1aa537af6e5313b16ffff660fdf054c638074baae80367678c4f3732e7adcbcf81e65e9db58e96769f4d645f440f4cd696517a19ea19817a07c6fe2888fbd3e186574a6c29b09b4fa9752dac4d409e914418f9fa1a5ed6e8ba81c9c510371efcc294e6fbd40131efb46919b50623d4362bdabf8c1f9d752c819a98ff03156fa5ecb802a6b0b0f6ecb9eb44385606602535dd70d27b3b2ac9425dbb7e203838b634ed135918f855d599588ab63ccca9e59e398f60158142f08c14d4212c5423e192d04841c6ae16fbaa15e38b23c2a43035d03994a724e494c123f316c043e43d9a3fb7f49ff10a4a8bcff8f1603407eabc5ea18a5844c63e5b50d9fa97c73e165bbdaa04ff908e71fbed27aab08f5edffabb119b97bfec7dbce8436ac9e58cb6f601ae086042cdd5b7114be326e6271e97816b046f2e15675bac54cb13a31bebd32a5fd92bc849a37a670ecb5f14e8c02eb13c9aa8f5509a89818d565f74bdad3288379e4f1fa22bc21e3699a3c6b473a7d183dc6c1e73613738ff0f53cc17c00da2800a9aa8f0cf2d446516cc71fd61d7f141760a4e1c27f570c0acf0798f7f0039ab499e501d1e3078446d72b6fa4c1d2efc10fabfcc983e50fa8be25dc78839b73c5a9cd98fa704c2c90a7f1b12d9869ef705441577b921f2fbceb9a44c1ea82f02f0699f0050e70fb6cf16908cbc7084a62339744661b092922587666a180431ec41302ba4457ff9505c8a869ff4d40ad3aac9b6eff4cea6d435d9b44090ed04c93e3d110a96d7f25355266fbfe527230ad23c8331c8124f91de53702444715ab3fe2c486c207cbf11b4591488728df1afbd42de6963a684e838467f620aabf6708dc6158f25a4c958d648c45f7b45c01fc2688bc95a4464d183112dcba83357367521ce94eea79c8cb180900300eea3ab1ffc82259e9ddbcc16337e31ad0f7a9da4edcf70a6ae3e30aaddffa19a21298151f629a00b426d3a51eeb09eec42ed83d7dd275a58fbe5e9df1856a38a20e950cd704e17"
  }
}
