{
  "input": {
    "data": "0x6e7b0e4f48cebe97dccb61994e5d38c0562a2e8678d31849af50fc8f5cb01b1bb467d30787e14bc27f8a34db2d96296f521da0e17153e4c799d3b3965b77343d512f96f7f2888eb4798f44264f55b4f12fd0237140c6ccb74013515d7473900b9d1d1252f4b6044884372a21876f26d63cd8450858cd3019538344fe83714ccac293fe698aa62a9c971e25c6661c51fd2672f7b720bead777ced2237ca046de7b97e47fbcec4221b38217e6305996a70bbce14b93a86a6352d117986e42de6d8cae435c1c704a1e0442b8c0caa783e0ce562176bcb7d7112911a6923d4fa7fa9c393b38cb301019c1a0c1f9b94920794d625b9c005e4562614dba114463393453aec15f99c0ceac61875c98589ae329eec53cbe4d9272a4f25eb70a44c4aa0bfb4991be045a9c577f5710fe976ce38b5f997181f4c7d1bfd8fd39f9a37605f252222ea3d28734ae0b79c76e13ce910ed36d4b720224cbaa9d0162e591937f2734f2698c9f52065fefe6c40fe80a475ad9e87f6ff7d603328f5be5f6b61d9d1b0f9018b33e97bf9f8eb92be99d111fce6eac0d8123ac95c89089136e669dac7fa53d3ced0db34eddb76c1bb64cd0222c27652e55b70af16764d2734507751b5e4944979918ef6f25a032c0e8bb16a1b001b6753078c63e7a4ecb3ee6207e17f7d00d506373d6c258d51e5c3347a18fb5962ecc89cbae79e9d6c13d19b0d5125d6494c96dacf9c612a56ba9526984b26f0dd8ddc5be256a33c82630b6f89efd515c3b414638dadf7ba06b1d48e1e1f0850e6163cdab904549c0a73719136219f4c74f848b324f3256ddec2d6edfe601d2191d8ee9d3356483ee8b5dfb2852a83079e34eaeb5cf88deff0bf69b02b0986afc175d0ac047378304d3bf82371105bf1b74aa20eac3b28152235e30f5ec49a366248d99f5650840e6506eabb9539e482fe601c8e18cd4fc83a6f129f6f0ef91d21c61b1410e301c046da8775deb863c3ee80c72c84475ffd9d9eaa2f0c600e720a24b4d1b759f3032f7e10314caf19a8fd7cede00af819961e2e04bf3bd465acf269d8c2e890750fe8258c86bfe1c5b9a96e2a29dc71c566e7445aef9088b1a23af032c620db274663a76bbdde74b069287b8277a9ab38a549b94047cc8d952156c3f9238b7097f7d027b0b2457508bb323cf82f32a066265b3450f05478a2e67bb90621c7ad0afde9bbca5adf564459ece9ac314307dedfcbe21610a1fc3e1561fd3b9d7680880ef13cab20c4c0ce78c0b5ef18ebd1d22e16c0e4acd61dbbf29f6f66c878aa6c27aa1e0fd0d5a124dc79f5c6dc9964b54715cb43c55b09aa51f22648c176574f2a52de0922a5d0cbb5de6e0cb81de2ffc248fe7ddc9e6d732969d12106c383dfc8220547c4f3382b3f6ab67e86e4144f3bfbeb87581e396f581ec7673c48a0713cec127bce81dd61b8",
    "gas": 1119145990,
    "gasPrice": 3185174862,
    "nonce": 796036,
    "to": "0x47d513ed208637d75b602ce0f7b8bac3f00966f4",
    "value": 9007199254740991,
    "chain": 1,
    "accessList": [
      {
        "address": "0xcf5e62ec4f8517d158124018e95f1e7f381a3b70",
        "storageKeys": []
      },
      {
        "address": "0xa07f52f5ea9f585f210496939c79b1e8f57afd28",
        "storageKeys": [
          "0x5f60e37ff02bcc7e867873f27eb8cff31c223df5de7fba39cda453c6b13f620f"
        ]
      },
      {
        "address": "0x3520ba2c6ca46dd65553dfdd81b7b87cf1fbddfa",
        "storageKeys": []
      },
      {
        "address": "0x128d152e6becf41583a64003c42edda532c2489f",
        "storageKeys": []
      }
    ],
    "type": "0x01"
  },
  "privateKey": "0xc7554a7851fa3b442d98a47322b262b49343159a13254ac803bfef7c3e02fd17",
  "output": {
    "v": 1,
    "r": "0xfe6e8486b31f7bb68f961bcdc427b79436c6782e29a7979a087a8d3aabd0246a",
    "s": "0x2002b64b0b7124b485f38513b8d77c9e7ff78aa843a7fa2b3cfc24a3deb666f8",
    "bytes": "0x01f904f101830c258484bdd9e94e8442b4d0069447d513ed208637d75b602ce0f7b8bac3f00966f4871fffffffffffffb904006e7b0e4f48cebe97dccb61994e5d38c0562a2e8678d31849af50fc8f5cb01b1bb467d30787e14bc27f8a34db2d96296f521da0e17153e4c799d3b3965b77343d512f96f7f2888eb4798f44264f55b4f12fd0237140c6ccb74013515d7473900b9d1d1252f4b6044884372a21876f26d63cd8450858cd3019538344fe83714ccac293fe698aa62a9c971e25c6661c51fd2672f7b720bead777ced2237ca046de7b97e47fbcec4221b38217e6305996a70bbce14b93a86a6352d117986e42de6d8cae435c1c704a1e0442b8c0caa783e0ce562176bcb7d7112911a6923d4fa7fa9c393b38cb301019c1a0c1f9b94920794d625b9c005e4562614dba114463393453aec15f99c0ceac61875c98589ae329eec53cbe4d9272a4f25eb70a44c4aa0bfb4991be045a9c577f5710fe976ce38b5f997181f4c7d1bfd8fd39f9a37605f252222ea3d28734ae0b79c76e13ce910ed36d4b720224cbaa9d0162e591937f2734f2698c9f52065fefe6c40fe80a475ad9e87f6ff7d603328f5be5f6b61d9d1b0f9018b33e97bf9f8eb92be99d111fce6eac0d8123ac95c89089136e669dac7fa53d3ced0db34eddb76c1bb64cd0222c27652e55b70af16764d2734507751b5e4944979918ef6f25a032c0e8bb16a1b001b6753078c63e7a4ecb3ee6207e17f7d00d506373d6c258d51e5c3347a18fb5962ecc89cbae79e9d6c13d19b0d5125d6494c96dacf9c612a56ba9526984b26f0dd8ddc5be256a33c82630b6f89efd515c3b414638dadf7ba06b1d48e1e1f0850e6163cdab904549c0a73719136219f4c74f848b324f3256ddec2d6edfe601d2191d8ee9d3356483ee8b5dfb2852a83079e34eaeb5cf88deff0bf69b02b0986afc175d0ac047378304d3bf82371105bf1b74aa20eac3b28152235e30f5ec49a366248d99f5650840e6506eabb9539e482fe601c8e18cd4fc83a6f129f6f0ef91d21c61b1410e301c046da8775deb863c3ee80c72c84475ffd9d9eaa2f0c600e720a24b4d1b759f3032f7e10314caf19a8fd7cede00af819961e2e04bf3bd465acf269d8c2e890750fe8258c86bfe1c5b9a96e2a29dc71c566e7445aef9088b1a23af032c620db274663a76bbdde74b069287b8277a9ab38a549b94047cc8d952156c3f9238b7097f7d027b0b2457508bb323cf82f32a066265b3450f05478a2e67bb90621c7ad0afde9bbca5adf564459ece9ac314307dedfcbe21610a1fc3e1561fd3b9d7680880ef13cab20c4c0ce78c0b5ef18ebd1d22e16c0e4acd61dbbf29f6f66c878aa6c27aa1e0fd0d5a124dc79f5c6dc9964b54715cb43c55b09aa51f22648c176574f2a52de0922a5d0cbb5de6e0cb81de2ffc248fe7ddc9e6d732969d12106c383dfc8220547c4f3382b3f6ab67e86e4144f3bfbeb87581e396f581ec7673c48a0713cec127bce81dd61b8f87dd694cf5e62ec4f8517d158124018e95f1e7f381a3b70c0f794a07f52f5ea9f585f210496939c79b1e8f57afd28e1a05f60e37ff02bcc7e867873f27eb8cff31c223df5de7fba39cda453c6b13f620fd6943520ba2c6ca46dd65553dfdd81b7b87cf1fbddfac0d694128d152e6becf41583a64003c42edda532c2489fc001a0fe6e8486b31f7bb68f961bcdc427b79436c6782e29a7979a087a8d3aabd0246aa02002b64b0b7124b485f38513b8d77c9e7ff78aa843a7fa2b3cfc24a3deb666f8"
  }
}
