{
  "input": {
    "data": "0x38ed17390000000000000000000000000000000000000000000000001bc16d674ec800000000000000000000000000000000000000000000000000000000000099faf20800000000000000000000000000000000000000000000000000000000000000a0000000000000000000000000d53000053e91597add02e491536628c40c9072d8000000000000000000000000000000000000000000000000000000006328052c0000000000000000000000000000000000000000000000000000000000000002000000000000000000000000c99a6a985ed2cac1ef41640596c5a5f9f4e19ef50000000000000000000000000b7007c13325c48911f73a2dad5fa5dcbf808adc",
    "gasPrice": 1000000000,
    "nonce": 2442,
    "to": "0x7d0556d55CA1A92708681E2E231733ebD922597d",
    "value": 0,
    "chain": 1,
    "gas": 250050
  },
  "privateKey": "0x49c481074964b22585b4fb3e662e6ce8f75a22b50267419a8182a4efd1f602a9",
  "output": {
    "v": 37,
    "r": "0x0049cbe6909c004f0d0696ce4ae2aa43d092bc42a2609749a68ff4275dec64b3",
    "s": "0x2de2cbb3efece0ece13d36bb0a8310ca05014ae06e8e5ded2e60ba7449777fa7",
    "hash": "0x4127b4f0ee560ce0eaf0b5568708b98e9c8b35cf755ae2ac0a19093e296000c9",
    "bytes": "0xf9016c82098a843b9aca008303d0c2947d0556d55ca1a92708681e2e231733ebd922597d80b9010438ed17390000000000000000000000000000000000000000000000001bc16d674ec800000000000000000000000000000000000000000000000000000000000099faf20800000000000000000000000000000000000000000000000000000000000000a0000000000000000000000000d53000053e91597add02e491536628c40c9072d8000000000000000000000000000000000000000000000000000000006328052c0000000000000000000000000000000000000000000000000000000000000002000000000000000000000000c99a6a985ed2cac1ef41640596c5a5f9f4e19ef50000000000000000000000000b7007c13325c48911f73a2dad5fa5dcbf808adc25a00049cbe6909c004f0d0696ce4ae2aa43d092bc42a2609749a68ff4275dec64b3a02de2cbb3efece0ece13d36bb0a8310ca05014ae06e8e5ded2e60ba7449777fa7"
  }
}
