{
  "input": {
    "data": "0x0c6916595675f9d4fdd7000d4be1202d308b4485dfe8d6cef4e9beda2d936c124f5d5de17717f4c913deebc08e80d702741a7b7a1ef5b2b53012fe92cda5148459016a08c551ac04f6877cd9db1f51f653fac5258beb9520d22f65fe9261bf451c68a565a7333227b5c491bfc4355a517ec060c3dedec52d8ab8b61398fa2f92f6b59d2f609163f970e6c116d8774e1f9743c61a191ac7fed9e8bbd713013034d097bdd86b5008500a9285fb6ca1b060effa5b4178c9ae5006d7262e82970774933732378ebd816e2838d2b0b685f84c34cb476ad5d78b978deab7ec7eb01b65e9f58678273004044f2ce42a75d0708d6eac4584fe64a4f43aad3feaaf97b11fb3b0e96ff17cec14a334bbaa5250da29003ff4b315088fac2021943fbecc136b082378a321c952b5d72fb850e110b2277f8b7bab9c689fcef5dae8a03b9f0d4db4d9853f094503ea3102f7e196171c488168c0bdeba725bd7426f4e77431abf0b4d8c737679123dfdb3948fa3fcb723186e9febd313f3b0f01bb0839570c14669ba74547e1df56041b8cf1eea9e9741c855cb389650fa4b4a0f6ba3f225927caa8eca45401ba39113a2c18b68c54c52ab3c55e479ccafc7f26142fd84985526f3d17c17d1fbce7bec5306d11780ade8814b416f668b6161fe1610ab1b70535e5f00fbf5a845c98636af6bd7cb6583d2c2fef741fbc47313b96c82870108d4b1469df2c1d83d48ba470fa2ff7add340a33b81d666755b8f219168e9d897cca8b3cb30312e12b8a9498dd5a6d9d2097161ea9c8d09a7992347fecad43d63dc0930af6dcdfc75af3bef75a2ce00e853467995e268ef392438bee83aeabbb933cd09e0e71121af0e043aabd910929aaa6a43ea3e4a484489f8290dbab458022ed954ae77fda63010e6e74302e08b1b907d3af9eaa3f74e38956cf01b86a0bb6439dd8224215d1aa34bd833aa94cba4d19f3b8dd9d61c9c6878dbc8a43035f30573002fc41b110400ab7d202c3fab6516da8a6a9aed56fc9837917c1f94c6f4c80cdb3cd24442528e4fa3affbd7c6e7c944ea6da485e8fec815c6af871e383fd1eef1fb8a03b6b5ed133b99f193a0727739658b13bf2bc45892226978546844522b71e353ddf4cbba742010dd7071999067bcb5801db0c296cc418172912aab9741bbbf9f4199a8eff8f4fd55995c9b6bba951c4360606289efc46ced20e26a4c8b587bcc968582f512b758b5e3637ad1e22cded9e6b4eb89258bbf30442a6f5e3fc27216d4f8f557691551993e059d04f258efe9faf8cf17510e5243373a8e66e6bdbde647d51337fcb636ac362ba8614c47a170dfc7b9e6e40c5b740389a26245e21c098c66b64b5248a6e40921e6c26b2c5c68be6b8caeb1bc2c8278e3276237ed38383d3eec1312b33dea25b0bedd83804dc5d83ce9c88a83d4ebe6b09077250e",
    "gasPrice": 2987318823,
    "nonce": 447534,
    "to": "0x212a0ad411e81d55961c9426a3fbf089848d96d0",
    "value": 9007199254740991,
    "chain": 1,
    "gas": 1591903722
  },
  "privateKey": "0x6abcddd9aae4ebb11960d284eb90dd4c839f3ac8a545d650b56c8339191a1cf8",
  "output": {
    "v": 38,
    "r": "0xbff490b6e4a812bca7f61564c9aa479d01b2b005dc94913f592604d7ad896457",
    "s": "0x7bb28a4030553c3be3faaca90233ba7f03b648b5da7978bb06612bdce05ee47b",
    "hash": "0x50417efeef28dcbbac76ea7ac63ff6846d1c65c6102f2b0198e5867e90d74f52",
    "bytes": "0xf904718306d42e84b20ede27845ee285ea94212a0ad411e81d55961c9426a3fbf089848d96d0871fffffffffffffb904000c6916595675f9d4fdd7000d4be1202d308b4485dfe8d6cef4e9beda2d936c124f5d5de17717f4c913deebc08e80d702741a7b7a1ef5b2b53012fe92cda5148459016a08c551ac04f6877cd9db1f51f653fac5258beb9520d22f65fe9261bf451c68a565a7333227b5c491bfc4355a517ec060c3dedec52d8ab8b61398fa2f92f6b59d2f609163f970e6c116d8774e1f9743c61a191ac7fed9e8bbd713013034d097bdd86b5008500a9285fb6ca1b060effa5b4178c9ae5006d7262e82970774933732378ebd816e2838d2b0b685f84c34cb476ad5d78b978deab7ec7eb01b65e9f58678273004044f2ce42a75d0708d6eac4584fe64a4f43aad3feaaf97b11fb3b0e96ff17cec14a334bbaa5250da29003ff4b315088fac2021943fbecc136b082378a321c952b5d72fb850e110b2277f8b7bab9c689fcef5dae8a03b9f0d4db4d9853f094503ea3102f7e196171c488168c0bdeba725bd7426f4e77431abf0b4d8c737679123dfdb3948fa3fcb723186e9febd313f3b0f01bb0839570c14669ba74547e1df56041b8cf1eea9e9741c855cb389650fa4b4a0f6ba3f225927caa8eca45401ba39113a2c18b68c54c52ab3c55e479ccafc7f26142fd84985526f3d17c17d1fbce7bec5306d11780ade8814b416f668b6161fe1610ab1b70535e5f00fbf5a845c98636af6bd7cb6583d2c2fef741fbc47313b96c82870108d4b1469df2c1d83d48ba470fa2ff7add340a33b81d666755b8f219168e9d897cca8b3cb30312e12b8a9498dd5a6d9d2097161ea9c8d09a7992347fecad43d63dc0930af6dcdfc75af3bef75a2ce00e853467995e268ef392438bee83aeabbb933cd09e0e71121af0e043aabd910929aaa6a43ea3e4a484489f8290dbab458022ed954ae77fda63010e6e74302e08b1b907d3af9eaa3f74e38956cf01b86a0bb6439dd8224215d1aa34bd833aa94cba4d19f3b8dd9d61c9c6878dbc8a43035f30573002fc41b110400ab7d202c3fab6516da8a6a9aed56fc9837917c1f94c6f4c80cdb3cd24442528e4fa3affbd7c6e7c944ea6da485e8fec815c6af871e383fd1eef1fb8a03b6b5ed133b99f193a0727739658b13bf2bc45892226978546844522b71e353ddf4cbba742010dd7071999067bcb5801db0c296cc418172912aab9741bbbf9f4199a8eff8f4fd55995c9b6bba951c4360606289efc46ced20e26a4c8b587bcc968582f512b758b5e3637ad1e22cded9e6b4eb89258bbf30442a6f5e3fc27216d4f8f557691551993e059d04f258efe9faf8cf17510e5243373a8e66e6bdbde647d51337fcb636ac362ba8614c47a170dfc7b9e6e40c5b740389a26245e21c098c66b64b5248a6e40921e6c26b2c5c68be6b8caeb1bc2c8278e3276237ed38383d3eec1312b33dea25b0bedd83804dc5d83ce9c88a83d4ebe6b09077250e26a0bff490b6e4a812bca7f61564c9aa479d01b2b005dc94913f592604d7ad896457a07bb28a4030553c3be3faaca90233ba7f03b648b5da7978bb06612bdce05ee47b"
  }
}
