{
  "input": {
    "data": "0xdd7af8901d384e5231121ccbfe00ed3873eea1eb3cf246ce7c75deea348f6c17001867e3f0b02fd7d7368225f4c7c488a5ede0deac24b099080e8270b7f1b5169075d467a6be170e4358f098088753e5fabdb5a0a95115d3e0959babde71c0627455000df214d90cf4e40bb3d4c53620fd6b25bcf0a95d43596c504dc7e07748f0e3e9c319d9859f3d12f75b8769e79dbeb4522e25e67adbd5c8f67d2d75d08130339b9e20546f9a05a176164724aa1eddc0efd0af98b6b45c91e909a1a00e7784228324abd6ad34abfcb28a42a90cd33b7ce826e1197b83754ab02e7dbd7415c0ff17d1d012b024f96a5dc247eb8e3fc8dd5a6565f8ac025f55a89bfc2e1462b8f41621a948d25f5835c8f00e6af6b526a83e8ef291e7ddf386151ad5c7b0190bb2a1362c48ebfcc48ceb58be44e8e26f85e371b812f9c9ed298cbcf324fa6dfb18ffedef5809378231bd8acfe365db16ac2cb6f27949566c9686baa9248b5ded6e8161e23ac7ef0e519a01a1250e248a9b60fd82bdfc83f351c8ad00994b7f88d09c9ec04bea619f0eb4a79dc8a3e23cf2b2a7c3d18817750cc95ae508a0e1ee8ebfae3bf61188b7938291bd3d77ad72c062ad14b1dac90454f00d31453fbe4fe1a49ddfd8687984b1e6c69ee4cf46b9e0febc720aeaf76fa450c25f40c22639b19ca1439275c34b9285dd9c6591d18fb275d133694087e871cc0a9b7b0073ca2ff3a3488da8c9f9316406687579409ee1818f5d0f74cdb7f06ecfcec9319e6c69d3d4007df24e2802230f259c28d876e24d0bfcc1e5a8cc45a84fabb30874f89e813b8c78544850ab78900be53bf1b6dc6ae4a22a654428e07a01963a6b0526ddc556b3df4eb259b02a4fecb0ab0dcd0e2ed7ef9dda2236a2a970bea9d80970cfefd49faabcdb76674604d1a52a5288fd78f2ff9d9c03b6e94a331fc1600e65aa7f95cd2e7d4bae569f3591564a0d6053621eec9f826a16877b33a11e0c037326c4842b2889bc4dee513d34b7d2b4bcba447dddf210f4b8e4eee183aa2a79675d246ccdd7b05d0089655f8daf508212b8bf7bd921ae9be4b118de3574e4a8dc3445cf613744d4ab14341e8798229b519011714d82cc7fb050dc12a1e8d78538914afc8b8ffd85266660c9411b50b884aeed78ecb037e1edb6feae1e8d6cda46bf7c91fe08c057cce46f881f16d44f4bfbd533cc197c54be984c997d5ec2a0d321180f63ec252b54c280247fd1e9dd19b2561cb7a115231cb85206a56f473cde99eda8de3f8ccba74495d3d04998835ee2bc9a8c00ce49df2c7a842d057095551204f640ee4a6e5ec84302e51f328bee3362f9a79d29cb8982187be937a153daa30fc1494f0484012aada9f028747927a888842df9054b86e6c432edd07730a0559d0ca3f797dc0a086fb891e7bcf946e3681cfc35fb1c49cf516fec5598df",
    "gas": 3134520268,
    "gasPrice": 1979679666,
    "nonce": 521841,
    "to": "0x6ff08ea8e01b52ba412a92506c9ba3dbedd80959",
    "value": 9007199254740991,
    "chain": 1,
    "accessList": [
      {
        "address": "0x704e8b9a3118abf4367b3c2d09c02ebe9cabdbb7",
        "storageKeys": [
          "0x906c55fc0628e9e526a113bb2a8ebb30bd8aeb2230cd43756d5ec78469a50737",
          "0x1c2a907225405fd73560fdc12ac32d974eacfbbe4bae8c57013551e0be9b85a6",
          "0xf2077cb62be0e5e758c8b6ec63504de386c5b24e8e65d3cc23cedd7abab3ef83"
        ]
      }
    ],
    "type": "0x01"
  },
  "privateKey": "0x7940359bd4ab694c69c136f64c6b6b38feeff8c45f601a229e3b0a5e88d32911",
  "output": {
    "v": 0,
    "r": "0x84c69b03fe1e6cde0cd5461c456ce045e8ec9432dde5ca729d8b9bd9fbae160e",
    "s": "0x10c4e4b4403d219af217d6a8579093c80f586505afb872af68ac74c96ae2fb4c",
    "bytes": "0x01f904ec018307f6718475ff83b280946ff08ea8e01b52ba412a92506c9ba3dbedd80959871fffffffffffffb90400dd7af8901d384e5231121ccbfe00ed3873eea1eb3cf246ce7c75deea348f6c17001867e3f0b02fd7d7368225f4c7c488a5ede0deac24b099080e8270b7f1b5169075d467a6be170e4358f098088753e5fabdb5a0a95115d3e0959babde71c0627455000df214d90cf4e40bb3d4c53620fd6b25bcf0a95d43596c504dc7e07748f0e3e9c319d9859f3d12f75b8769e79dbeb4522e25e67adbd5c8f67d2d75d08130339b9e20546f9a05a176164724aa1eddc0efd0af98b6b45c91e909a1a00e7784228324abd6ad34abfcb28a42a90cd33b7ce826e1197b83754ab02e7dbd7415c0ff17d1d012b024f96a5dc247eb8e3fc8dd5a6565f8ac025f55a89bfc2e1462b8f41621a948d25f5835c8f00e6af6b526a83e8ef291e7ddf386151ad5c7b0190bb2a1362c48ebfcc48ceb58be44e8e26f85e371b812f9c9ed298cbcf324fa6dfb18ffedef5809378231bd8acfe365db16ac2cb6f27949566c9686baa9248b5ded6e8161e23ac7ef0e519a01a1250e248a9b60fd82bdfc83f351c8ad00994b7f88d09c9ec04bea619f0eb4a79dc8a3e23cf2b2a7c3d18817750cc95ae508a0e1ee8ebfae3bf61188b7938291bd3d77ad72c062ad14b1dac90454f00d31453fbe4fe1a49ddfd8687984b1e6c69ee4cf46b9e0febc720aeaf76fa450c25f40c22639b19ca1439275c34b9285dd9c6591d18fb275d133694087e871cc0a9b7b0073ca2ff3a3488da8c9f9316406687579409ee1818f5d0f74cdb7f06ecfcec9319e6c69d3d4007df24e2802230f259c28d876e24d0bfcc1e5a8cc45a84fabb30874f89e813b8c78544850ab78900be53bf1b6dc6ae4a22a654428e07a01963a6b0526ddc556b3df4eb259b02a4fecb0ab0dcd0e2ed7ef9dda2236a2a970bea9d80970cfefd49faabcdb76674604d1a52a5288fd78f2ff9d9c03b6e94a331fc1600e65aa7f95cd2e7d4bae569f3591564a0d6053621eec9f826a16877b33a11e0c037326c4842b2889bc4dee513d34b7d2b4bcba447dddf210f4b8e4eee183aa2a79675d246ccdd7b05d0089655f8daf508212b8bf7bd921ae9be4b118de3574e4a8dc3445cf613744d4ab14341e8798229b519011714d82cc7fb050dc12a1e8d78538914afc8b8ffd85266660c9411b50b884aeed78ecb037e1edb6feae1e8d6cda46bf7c91fe08c057cce46f881f16d44f4bfbd533cc197c54be984c997d5ec2a0d321180f63ec252b54c280247fd1e9dd19b2561cb7a115231cb85206a56f473cde99eda8de3f8ccba74495d3d04998835ee2bc9a8c00ce49df2c7a842d057095551204f640ee4a6e5ec84302e51f328bee3362f9a79d29cb8982187be937a153daa30fc1494f0484012aada9f028747927a888842df9054b86e6c432edd07730a0559d0ca3f797dc0a086fb891e7bcf946e3681cfc35fb1c49cf516fec5598dff87cf87a94704e8b9a3118abf4367b3c2d09c02ebe9cabdbb7f863a0906c55fc0628e9e526a113bb2a8ebb30bd8aeb2230cd43756d5ec78469a50737a01c2a907225405fd73560fdc12ac32d974eacfbbe4bae8c57013551e0be9b85a6a0f2077cb62be0e5e758c8b6ec63504de386c5b24e8e65d3cc23cedd7abab3ef8380a084c69b03fe1e6cde0cd5461c456ce045e8ec9432dde5ca729d8b9bd9fbae160ea010c4e4b4403d219af217d6a8579093c80f586505afb872af68ac74c96ae2fb4c"
  }
}
