{
  "input": {
    "data": "0x8c569b42e6f816a3ba2454b9d21993173b20a61ad99ce755921585082654bc798a569ef8df716676d3e2e32100df7ed5b6286272dea824359d4e15867d04d2fa203e947660d227f018279a5612da073cb0093423bc424a0e29807b5387329e9715fc510fc7932e50f81795a944d75b63a78915d644dd7c8f127cf7445897bbf8cd34fb5d5cca4b3474fe5c21670e90015156a76b2f3d98789c885f108b7e8fe074b283c1de4e0e93f9f812cbc5e85e7e9462dada739bb0f1ddacce812cd404a3483250f82cb638585faf800470c06cfc393b7b14a7d1d53a0034899d9de0b04a8c226c6baf5619a2bdfe2a9fa4fdda94b82eb8c96961e2beb56049613a514bafef204287ac32797cdd02b58366ded62bd564ce7e0eadaaf9158ad65eadebffb57f5efeccece84a55539f446b85fdca1db81c51a148726e9d390bf953a08c2313891c12443643df7f597d626284738288a01b0b28ef5f65b44a61b98f9b56bcd7cb4f670fbd25cd0c9f13f56ca0f86e693c8ab859cb687973592b8d2967911be3a444947077d00b560777f4b1ef4f212df0f9452d11f0e5f31707f9a9e2ac1bcc5cb7ea07eb41d907fa94fd5e76a95f52683c1ccf156dc6e225a5fa5ab4ac40b13bfd0507366d4e945492487bdf3c5f6515fc659a41efd0bb423d080ddcb87e3a12e905cb03c55848a57e8bcceb884b2a7ea0c402126fa027f37c78a5c395cc0adfc4ef7538a21db129cfcc709ddcccb0bcef32b19ca1ab2b3176bd494d4e11fd38247b470396b18a67100be4fbaf18136e27113c7df5357fa34dedfd1331bf9ef506f970da8b4f8af5ccec27d718d26434481a0b0a4ad5d5cb6c30a330706298382566f829b8d51d19826ca2d0e6b4b390f3a0fd24ebc7eac3e4f7debc688b4af5a9670eb8450f63a238127ab52bf3a0c3536f66ea192414a91af1c753c0766ac2d34ff0148935d77bcc67216d603d47aaa4e9f647f7a014645fdf74c0b384423f88e050487b4fcff2abc91a40798dc3f3df48d378fdb4dc2839819a4a33027cf153988040cbcd60accc9e823e272af7ac48c17c3fecfc923322bd94b227dbcc43b9a08892ef61a9030243cdac6a82e564e1df8dc84a4874d2ef15997cc2a9752f5465ac0c0fa40a44bc637a0b78349c1f77697d3a5ff0d9ec3483313df0b1128e15c1e8d4f4e4483b50097f91a268529327f982ee15d0945e6e701dfcdc2b71c06ac5e0795f28c1f607fd8731cf4ad1aa3afd4d58188bb5931099fd15c2ec714ab1d42ba80d67e443787d84dadc7f695647975fb5f230a3129f6c06c9367bb59c354cc02529e540b92aebe2b471f9fa799915f1c20f639f8cecb0678ae5d3ca0d994d6de431e1c44ba4c363d00da0cde4c8074aebe2032c9cae0f98678b7ca13313946144e52a0b72e7b2dfe82a2367a150a86a36e9aa4356cc8de571193001",
    "gasPrice": 3461030822,
    "nonce": 587460,
    "to": "0x3f0ef8c1f94b1cdde576e8c855245ce227278293",
    "value": 9007199254740991,
    "chain": 1,
    "gas": 164930674
  },
  "privateKey": "0x49c481074964b22585b4fb3e662e6ce8f75a22b50267419a8182a4efd1f602a9",
  "output": {
    "v": 37,
    "r": "0x5c5317e2ca7850bb107682c3cafeec887975699aecaad31a961e58d88536604a",
    "s": "0x32e880ee4ade3eb69499e5ac592bd6f4e10577dab74bf4b3e5718eea52e38b4b",
    "hash": "0xd9edc446bda97bb0139d5df4170bb9ee88c7da193345e6249b28648e8a493f84",
    "bytes": "0xf904718308f6c484ce4b23a68409d4a472943f0ef8c1f94b1cdde576e8c855245ce227278293871fffffffffffffb904008c569b42e6f816a3ba2454b9d21993173b20a61ad99ce755921585082654bc798a569ef8df716676d3e2e32100df7ed5b6286272dea824359d4e15867d04d2fa203e947660d227f018279a5612da073cb0093423bc424a0e29807b5387329e9715fc510fc7932e50f81795a944d75b63a78915d644dd7c8f127cf7445897bbf8cd34fb5d5cca4b3474fe5c21670e90015156a76b2f3d98789c885f108b7e8fe074b283c1de4e0e93f9f812cbc5e85e7e9462dada739bb0f1ddacce812cd404a3483250f82cb638585faf800470c06cfc393b7b14a7d1d53a0034899d9de0b04a8c226c6baf5619a2bdfe2a9fa4fdda94b82eb8c96961e2beb56049613a514bafef204287ac32797cdd02b58366ded62bd564ce7e0eadaaf9158ad65eadebffb57f5efeccece84a55539f446b85fdca1db81c51a148726e9d390bf953a08c2313891c12443643df7f597d626284738288a01b0b28ef5f65b44a61b98f9b56bcd7cb4f670fbd25cd0c9f13f56ca0f86e693c8ab859cb687973592b8d2967911be3a444947077d00b560777f4b1ef4f212df0f9452d11f0e5f31707f9a9e2ac1bcc5cb7ea07eb41d907fa94fd5e76a95f52683c1ccf156dc6e225a5fa5ab4ac40b13bfd0507366d4e945492487bdf3c5f6515fc659a41efd0bb423d080ddcb87e3a12e905cb03c55848a57e8bcceb884b2a7ea0c402126fa027f37c78a5c395cc0adfc4ef7538a21db129cfcc709ddcccb0bcef32b19ca1ab2b3176bd494d4e11fd38247b470396b18a67100be4fbaf18136e27113c7df5357fa34dedfd1331bf9ef506f970da8b4f8af5ccec27d718d26434481a0b0a4ad5d5cb6c30a330706298382566f829b8d51d19826ca2d0e6b4b390f3a0fd24ebc7eac3e4f7debc688b4af5a9670eb8450f63a238127ab52bf3a0c3536f66ea192414a91af1c753c0766ac2d34ff0148935d77bcc67216d603d47aaa4e9f647f7a014645fdf74c0b384423f88e050487b4fcff2abc91a40798dc3f3df48d378fdb4dc2839819a4a33027cf153988040cbcd60accc9e823e272af7ac48c17c3fecfc923322bd94b227dbcc43b9a08892ef61a9030243cdac6a82e564e1df8dc84a4874d2ef15997cc2a9752f5465ac0c0fa40a44bc637a0b78349c1f77697d3a5ff0d9ec3483313df0b1128e15c1e8d4f4e4483b50097f91a268529327f982ee15d0945e6e701dfcdc2b71c06ac5e0795f28c1f607fd8731cf4ad1aa3afd4d58188bb5931099fd15c2ec714ab1d42ba80d67e443787d84dadc7f695647975fb5f230a3129f6c06c9367bb59c354cc02529e540b92aebe2b471f9fa799915f1c20f639f8cecb0678ae5d3ca0d994d6de431e1c44ba4c363d00da0cde4c8074aebe2032c9cae0f98678b7ca13313946144e52a0b72e7b2dfe82a2367a150a86a36e9aa4356cc8de57119300125a05c5317e2ca7850bb107682c3cafeec887975699aecaad31a961e58d88536604aa032e880ee4ade3eb69499e5ac592bd6f4e10577dab74bf4b3e5718eea52e38b4b"
  }
}
