{
  "input": {
    "data": "0x460e9516e6ec97e8a83bf906a13471bda244baf883de5c3465ae659d7c31c4021d8bb701d24e03fea6daaa014bce4de3f22540c64c4938c7deb23092b8dcd907a0a502a3ded6750caa66a456dac6b940421fba79c95bc4f91f5ae6d3ef9161b3c667bc3205caabdba4a6416d669adfa5ba5af874ea4fc70a04eae3c664fe6d45ba2eb705da776dd9ab767311a11bfa762887919f50308dfcb90137155c5e106472c7eb50626f1acc00aba2f0eccf2e31c2020a2e8dfe01eec27d437add9a96eef96fed213b6438b3de205a506843bdea9d7968de71ef7f071b8cb6987a5cf867264b6e5d85c42317d94783475e256ed34a970d90ab7623f0cffef427c5bfba785f3367cea5f7707435d092289cffc54f3b44afcfdceff05b8449ed7a059267fc3327aa1ddf0cdc56b7442c277d7d06f70e442da537452ed736b736700fdd53589b5592a99d3f6283a21a332d3b69b23e90219853cbfdedfae5cca310ca9f2ca19a327b9611cb49d881a8d10771dea27df5a387b312672a29fad8a0827b8d27f68788923b096225f2043102c3673dbe0939920d3438e7d676cdbeebac0f211a47a34a2ae76fef7b652ebcc84e62af86195169987ddd3e13a2e24db3c78404c9ef3a4b00b41ded8c14cdae1c9c5383cbcf75950780faab7e429ab9ea80a45145fccadda56b81c92068d50a9d44c1079b36fdabb8c17f374991e47ba82000a1b0ff076183cd3dbf2cb5e3f94b4955e56d234ba57d1d1579aedca33aa2ff7379e4b7595018327866cdcf50c2735fd411f68beb8e4064508f933ba41f9ce8be709f8298026aa27bf2271fdbfebcd2708cdb71f794c9d75f32ce01d0807af6784fe05203dede06dc4ba2c091e9ae9ea046531d8425a350120dacd39d2cb55bfd1e6b4754b43bd69aeb963525a2e5095640c1b2afd3191a30deae39bb76d6e8272184aa69c767342a83f38389d28573eb8e7e4c6be5cf2d839f5fd26bc6ae52b10ebb7a018c8e49688ee73a5a4f8618a43015d7daab7904f4c28f30aba9b561ef1c4a89b2566bc3f74fe46ed8445d48cee261b915e3a940378907e477b573ad041f65b7318a4ccd2fbf666b5391c23d397776145091a40e5b65ce25de687cf0779dfa94aa9b6b3b4088a113c7ea732c2a2afd12391f06180fcc6d81a9867d71050281ccaa93983f56580498fe4b852b259bcaa2c0342e2566dde9bc10ded7bda12a69c361aeab9e7c0b9acda81c015c90b19badaeeb71677524bf592d761fad2526a4859411a74e07b58ae842dcb27c15326694749b49f9d43387b4df251a10284fa89caae9908675380894f4da2e566169f5c5f8b21977ca85b1e7b215aec5c858cbb2ea06ceec9127516c5a852db93c44502140f8309eabcdf3afb11a530c632e3dcec1b4ea82658aaa6e808ec4e983ea650c7fca8f5daad83ef0a7bf172cd2905ad4",
    "gas": 2750380438,
    "gasPrice": 1235426288,
    "nonce": 476932,
    "to": "0x4e4a4a01bbe441bad37b2081dfc0f12c84da6e58",
    "value": 9007199254740991,
    "chain": 1
  },
  "privateKey": "0x927be9301d8decc6b7a98b3bf3f3969cdba1e95546053e3820e4747832691178",
  "output": {
    "v": 38,
    "r": "0xf5027ed93b7ae64563c028bb3324ecf59e85facee0f2007a66c8aa72792b4c6a",
    "s": "0x1a584bb9586026b6af8f9e54421b4976887306db702371f8af36b69c522a5a03",
    "bytes": "0xf90471830747048449a31bf084a3ef7996944e4a4a01bbe441bad37b2081dfc0f12c84da6e58871fffffffffffffb90400460e9516e6ec97e8a83bf906a13471bda244baf883de5c3465ae659d7c31c4021d8bb701d24e03fea6daaa014bce4de3f22540c64c4938c7deb23092b8dcd907a0a502a3ded6750caa66a456dac6b940421fba79c95bc4f91f5ae6d3ef9161b3c667bc3205caabdba4a6416d669adfa5ba5af874ea4fc70a04eae3c664fe6d45ba2eb705da776dd9ab767311a11bfa762887919f50308dfcb90137155c5e106472c7eb50626f1acc00aba2f0eccf2e31c2020a2e8dfe01eec27d437add9a96eef96fed213b6438b3de205a506843bdea9d7968de71ef7f071b8cb6987a5cf867264b6e5d85c42317d94783475e256ed34a970d90ab7623f0cffef427c5bfba785f3367cea5f7707435d092289cffc54f3b44afcfdceff05b8449ed7a059267fc3327aa1ddf0cdc56b7442c277d7d06f70e442da537452ed736b736700fdd53589b5592a99d3f6283a21a332d3b69b23e90219853cbfdedfae5cca310ca9f2ca19a327b9611cb49d881a8d10771dea27df5a387b312672a29fad8a0827b8d27f68788923b096225f2043102c3673dbe0939920d3438e7d676cdbeebac0f211a47a34a2ae76fef7b652ebcc84e62af86195169987ddd3e13a2e24db3c78404c9ef3a4b00b41ded8c14cdae1c9c5383cbcf75950780faab7e429ab9ea80a45145fccadda56b81c92068d50a9d44c1079b36fdabb8c17f374991e47ba82000a1b0ff076183cd3dbf2cb5e3f94b4955e56d234ba57d1d1579aedca33aa2ff7379e4b7595018327866cdcf50c2735fd411f68beb8e4064508f933ba41f9ce8be709f8298026aa27bf2271fdbfebcd2708cdb71f794c9d75f32ce01d0807af6784fe05203dede06dc4ba2c091e9ae9ea046531d8425a350120dacd39d2cb55bfd1e6b4754b43bd69aeb963525a2e5095640c1b2afd3191a30deae39bb76d6e8272184aa69c767342a83f38389d28573eb8e7e4c6be5cf2d839f5fd26bc6ae52b10ebb7a018c8e49688ee73a5a4f8618a43015d7daab7904f4c28f30aba9b561ef1c4a89b2566bc3f74fe46ed8445d48cee261b915e3a940378907e477b573ad041f65b7318a4ccd2fbf666b5391c23d397776145091a40e5b65ce25de687cf0779dfa94aa9b6b3b4088a113c7ea732c2a2afd12391f06180fcc6d81a9867d71050281ccaa93983f56580498fe4b852b259bcaa2c0342e2566dde9bc10ded7bda12a69c361aeab9e7c0b9acda81c015c90b19badaeeb71677524bf592d761fad2526a4859411a74e07b58ae842dcb27c15326694749b49f9d43387b4df251a10284fa89caae9908675380894f4da2e566169f5c5f8b21977ca85b1e7b215aec5c858cbb2ea06ceec9127516c5a852db93c44502140f8309eabcdf3afb11a530c632e3dcec1b4ea82658aaa6e808ec4e983ea650c7fca8f5daad83ef0a7bf172cd2905ad426a0f5027ed93b7ae64563c028bb3324ecf59e85facee0f2007a66c8aa72792b4c6aa01a584bb9586026b6af8f9e54421b4976887306db702371f8af36b69c522a5a03"
  }
}
