{
  "input": {
    "data": "0xcf55d6cfeebc486c7b47e0485d5f49c98b5d356fb7eced43bcf1ad1d7c059a448c3f2d049892c2173d3b7d2f618d88f2a56a8902505625c0c5c10ee5b9caaab53bbe8f1f9473f0f45d874dbfcf63270d898fe8e55b0431fa917240776c17d991e307d85c8ed98081d26cbead2605b0f83e6eeea30689024b671bf97e0f0789e3f99d3f53a4f3c79bb606c33d534759ddfce1a4f06be18fb0bdea184700d9e792d456f77d58ddc29440b145ee8c1461e16a2ccee2d0fdc80eceb26852cd902a4853ae433e38c0c3c59bf7d906249fc61e76efffc4c879d346d239738efbdd322ace868f44a03f8a082a9bd5ed7bb820199dcfcf4ef8e638a545f8a42abeb496e7751bb55b1b76e20451dcbf6fe6e4b46f5e896222394f252d960e4e4a08ab5a3387ba19dd8d402ef28b505c04c2c90994e1ad8654cb4bb32cc5ee0d641839e7266da71319f2d96222ded9f2fd4027e0e325bb70647ba659398f8c103fbb733a049a588533dcf8e7770b41ca7806fa19daa4b4f77df0f2762e8659eae7827af3189c88b433d695f19a7ffc2bb694f7bf57169638c2a546c6acb4db9bce1195c9272a35145adf5fe7ddcb9c4bb4b103f61ce98fe4c9240178597146b5718af6a8f9e29befdba0ec9ca2c09b56edd7d885ea2a92b7cd01b178bf4e31fe7867251ef70f079936846bef6d6bb686e86eefa299d1e0c13a7cdfd7541bc1879ac30e850970ea973d9193eed4359ca5a5732f9dbb5f4b3a815c9515fa6acbe49e46ef521aff5398d40a2b89d66c8d471f7884ee64f908d7500dd286dbf9fd0caf20f07cc60812b58d742dfde3ff017f085e682e5da5bca7756da5385c561ff7171fa1601057a36cc8128aabd346f2856eed6c24699000701d1bcdda3b2a5f82565ea510370318d80c3427bcc674c64a45d65e6da1348ed8520e08a43c7f954b4cdb0b119a68433e8df85207ce0f78ca5cb63ea32fad68fdfec677f9226eee7ec4fed2a0fd1b2ac4edf9af43b1e9191217481a4850ea570879851068ba1329ce8041ce627b822778413fad826ad55a66828cad9406ea72c52050f7dcf2cbddff1b5543992af4f03061f0f7a351768f9e8b1cccf5eaed163f068bd7b646335caef2dee2133da1e5edbf6e33268caf089cc6398cea52ed1a1c405fcc4a0a24beb6ba8b256a4e036f89c350d65891850ddb2cfbcef85926573639990e11a9d0f520c465bbaf380e5ff11852c858918ffbd46ac2c6a1052a0b504d225c0392f09f63bdcb8ce30884f6148104219d01b2cf30b3990be618ba9b62d99ed3bd98e5bac48d41adccd38f484cb7b0eee78806143f5a65f1ffd64be74c8d3986ee2a5b1a3b1c4977a0fb63ec2b57e1dc054c88dc31b526f8fc1ba6506d8326e2a222428e932327fb2f04929b5845f7c6b49a0152ef0fe20388987129e98826d6313ab4ccd020f7be8ccd",
    "maxPriorityFeePerGas": 393390129,
    "maxFeePerGas": 1024486533,
    "nonce": 15277,
    "to": "0x53c7e31cb84f3cf73dc39eb77d59951bb55896b6",
    "value": 9007199254740991,
    "chain": 1,
    "accessList": [
      {
        "address": "0xdb6349b81e401fd85ca657254105e6b6cf9e0983",
        "storageKeys": [
          "0x1a6c8990554c9d03fbdbce0a66f9ffdf413ba71dbfd3e95f7fb8df906e5ec47c",
          "0x22a22b64fe45b7a66b47e3becb728bee7fee7ed37ada71253feb1b95851b06eb",
          "0x9291530d8c368607bdd1fc4e63129fbad7327e8967c84c5d1b45b62e01cef1fe",
          "0x504b6cce8c4a411165f32221254739ae04980e9da7234c1421a5d81cef99426c"
        ]
      },
      {
        "address": "0x27980df53335fca052280e2c4fd572019966dfed",
        "storageKeys": [
          "0x165a547b129e390704c5c3e98a444a24e0802b6cb2b2ddbc77dd0eadefea3471",
          "0x8fecb0832f10961e30461cc132fbd8032fdbe03c37d19b004cd65468e4d10108"
        ]
      },
      {
        "address": "0x0b77aa729acc29e15bb7a91a44ba69e819e7a12d",
        "storageKeys": [
          "0x73cde68fd67d9131c58b0109f2ac51a9f0e39ee99912cdaca70df164241433b6",
          "0xf67ef85972eaf7c936a7042bdfdd4942a1fbe08a33e0aafd53d17a0d47d30db8"
        ]
      },
      {
        "address": "0xd3f9d37d07d664af8813c4f0e2be6c9a075a191f",
        "storageKeys": [
          "0xc577dbb6f866168b02e78d851aa40bc5a4ba4aecf3b09a1ecea8a090b5973e13",
          "0xa82d1732cd45948eb13ecd239aec307e91aadbe54cadee11cf7168f2f08244a5"
        ]
      }
    ],
    "type": "0x02",
    "gas": 1477324004
  },
  "privateKey": "0x237e1be4fd6a127ee48f242c8c2e9f1928dffdba4ef0e01ec13807077cf768a8",
  "output": {
    "v": 1,
    "r": "0x0f7b54a544cc39e15011a0c13ac64b880c402146cc059f6256072e6f4a9782dd",
    "s": "0x39a1eef0f41a245fecca1d6deb4db40d39df2dffa13f33fbf6fe3d4d2287a243",
    "hash": "0x25950f25318a153aa8c1f814c911cca6e1dbbcd553178d73217df1875a7e5c37",
    "bytes": "0x02f9062701823bad841772a831843d106c8584580e2ce49453c7e31cb84f3cf73dc39eb77d59951bb55896b6871fffffffffffffb90400cf55d6cfeebc486c7b47e0485d5f49c98b5d356fb7eced43bcf1ad1d7c059a448c3f2d049892c2173d3b7d2f618d88f2a56a8902505625c0c5c10ee5b9caaab53bbe8f1f9473f0f45d874dbfcf63270d898fe8e55b0431fa917240776c17d991e307d85c8ed98081d26cbead2605b0f83e6eeea30689024b671bf97e0f0789e3f99d3f53a4f3c79bb606c33d534759ddfce1a4f06be18fb0bdea184700d9e792d456f77d58ddc29440b145ee8c1461e16a2ccee2d0fdc80eceb26852cd902a4853ae433e38c0c3c59bf7d906249fc61e76efffc4c879d346d239738efbdd322ace868f44a03f8a082a9bd5ed7bb820199dcfcf4ef8e638a545f8a42abeb496e7751bb55b1b76e20451dcbf6fe6e4b46f5e896222394f252d960e4e4a08ab5a3387ba19dd8d402ef28b505c04c2c90994e1ad8654cb4bb32cc5ee0d641839e7266da71319f2d96222ded9f2fd4027e0e325bb70647ba659398f8c103fbb733a049a588533dcf8e7770b41ca7806fa19daa4b4f77df0f2762e8659eae7827af3189c88b433d695f19a7ffc2bb694f7bf57169638c2a546c6acb4db9bce1195c9272a35145adf5fe7ddcb9c4bb4b103f61ce98fe4c9240178597146b5718af6a8f9e29befdba0ec9ca2c09b56edd7d885ea2a92b7cd01b178bf4e31fe7867251ef70f079936846bef6d6bb686e86eefa299d1e0c13a7cdfd7541bc1879ac30e850970ea973d9193eed4359ca5a5732f9dbb5f4b3a815c9515fa6acbe49e46ef521aff5398d40a2b89d66c8d471f7884ee64f908d7500dd286dbf9fd0caf20f07cc60812b58d742dfde3ff017f085e682e5da5bca7756da5385c561ff7171fa1601057a36cc8128aabd346f2856eed6c24699000701d1bcdda3b2a5f82565ea510370318d80c3427bcc674c64a45d65e6da1348ed8520e08a43c7f954b4cdb0b119a68433e8df85207ce0f78ca5cb63ea32fad68fdfec677f9226eee7ec4fed2a0fd1b2ac4edf9af43b1e9191217481a4850ea570879851068ba1329ce8041ce627b822778413fad826ad55a66828cad9406ea72c52050f7dcf2cbddff1b5543992af4f03061f0f7a351768f9e8b1cccf5eaed163f068bd7b646335caef2dee2133da1e5edbf6e33268caf089cc6398cea52ed1a1c405fcc4a0a24beb6ba8b256a4e036f89c350d65891850ddb2cfbcef85926573639990e11a9d0f520c465bbaf380e5ff11852c858918ffbd46ac2c6a1052a0b504d225c0392f09f63bdcb8ce30884f6148104219d01b2cf30b3990be618ba9b62d99ed3bd98e5bac48d41adccd38f484cb7b0eee78806143f5a65f1ffd64be74c8d3986ee2a5b1a3b1c4977a0fb63ec2b57e1dc054c88dc31b526f8fc1ba6506d8326e2a222428e932327fb2f04929b5845f7c6b49a0152ef0fe20388987129e98826d6313ab4ccd020f7be8ccdf901aef89b94db6349b81e401fd85ca657254105e6b6cf9e0983f884a01a6c8990554c9d03fbdbce0a66f9ffdf413ba71dbfd3e95f7fb8df906e5ec47ca022a22b64fe45b7a66b47e3becb728bee7fee7ed37ada71253feb1b95851b06eba09291530d8c368607bdd1fc4e63129fbad7327e8967c84c5d1b45b62e01cef1fea0504b6cce8c4a411165f32221254739ae04980e9da7234c1421a5d81cef99426cf8599427980df53335fca052280e2c4fd572019966dfedf842a0165a547b129e390704c5c3e98a444a24e0802b6cb2b2ddbc77dd0eadefea3471a08fecb0832f10961e30461cc132fbd8032fdbe03c37d19b004cd65468e4d10108f859940b77aa729acc29e15bb7a91a44ba69e819e7a12df842a073cde68fd67d9131c58b0109f2ac51a9f0e39ee99912cdaca70df164241433b6a0f67ef85972eaf7c936a7042bdfdd4942a1fbe08a33e0aafd53d17a0d47d30db8f85994d3f9d37d07d664af8813c4f0e2be6c9a075a191ff842a0c577dbb6f866168b02e78d851aa40bc5a4ba4aecf3b09a1ecea8a090b5973e13a0a82d1732cd45948eb13ecd239aec307e91aadbe54cadee11cf7168f2f08244a501a00f7b54a544cc39e15011a0c13ac64b880c402146cc059f6256072e6f4a9782dda039a1eef0f41a245fecca1d6deb4db40d39df2dffa13f33fbf6fe3d4d2287a243"
  }
}
