{
  "input": {
    "data": "0x33e59d42afe657056d1ab1070615205c310e0d6fcd6fc2a28b76b18bff56e395c9c47b4e561974af88ce2020de53099bee8196403580c08d1801080e2f0e683e6f9b7aba7ec376c4be3d05cee034433c4da746d6afdccf231653115818f599eefa6f642aab65c08feb157f0d2c4aa779a81e8404f3abd0b6b88e665e3126027e8a4d0a8cfc786d6325b9b996eef4a8eb93fbe9b72959ea1556d598a09eeac05b7125b56b56cb9b4de4fb0b7b1d9baf5bf186f9c84f81e75840128be776c2ea12f4c34ce85a63c89920387a8d7f50eedf7df15975cf1a2a77cfef217427cc65f1522e4211a6554f9dac53f13b25d34011c4cf0dd9ff803e7251c48e977534c00e6a9d0befc2793d99b18c22d5c6e811a684688045e38a189aedebdd414ee78bc7a84a758aa7cce8633e2e1bc3d2e1936911e8bd0d8096ffcaf6648796cd287a08274cf69654eb0f7dae019680fd9107a55df17d916f236be366f92bb2967536e0f9ffb8398f9d0e5cf9ec50e5dab9e325cd07c3d81bd5901e1d4d026bcf908eb61773a4194cf0a585b87974e4287194cb2a38eba4644c5d31a080b0ebe5de40c23eeaf042e04b92aa9ea2bab06e32d804ebe408a24ea2d35797b3f3b79f5196ced725b2558330f68eef1bb2ab8660cde06d27123469632dc36cd1ab5f991fb26cd4cb125078de724f442de6576a0fb92003af5c5e3636dae10081b5c10f82a2dc8e1be55432dc8afba2c3ea0241479b6c71a60ec15472de6be0be6643ea05db3db0cd1102e2273da2016f74e1ae81fc9262678b00d0870b3d01551fcad2bc3483c3a9b8511dd0bc458f8312cecc8c6640150cb7899eece54f84b83e1e1cf2100a32a407aa6d84cf0772b099e6ad27277780f06a1ac25fa2e3833a8a892d10bc92dcf59857f00f392e6cd6f944d12dae5d830748724e8060bdcd7209698f1fc8741632050dd0eca0b96472c6fbd3a8e69c05cde328a75ffbdc6c393ad3173e07a5bfd0558306ef76125ed9881bfad529254e8a82ca77c3fb7c9f4837c3d02be9b8ac2b45e7c2c58c2cfbb68cc7e069cc3a4a9cc9f7fdfaada665a3414d6fc0bee6b40bd5328340585a55e1ff8e59a382f2f460b46d123b0afa5656b7dc3704bd3bca59e5fb6a44d413e6708cc0c2814e5a11dd7caa7987f1f52960c2c3041c0a23c899556091aa729eb9eaf49d0143d1df3d61660af24a3b6c42b0de25adc6715655deae3e92d70403ba9f97a7ccc0b283f04a20cf2a50be5e8befda167e7cc8086df6698c12f419153a0deca2873ef6c5fdbfe627b3d55ebc41138f833f85d6d2b56642ddcc458892863ab3e0920f13724b589b4236d499570f7a34211560e7efd0bf6baa9ee4c0471b983f13fb48b9008f9ba44222f5de362f21eefd49d51d7f5a48f658167eb8dea75a99d48e5cd5c1bbc246c90b0530af1e7f7a5fc8a268f9",
    "gasPrice": 981158112,
    "nonce": 537289,
    "to": "0xf2ffae6c424a52840484237d1fae3d27ffac24f9",
    "value": 9007199254740991,
    "chain": 1,
    "gas": 3753896374
  },
  "privateKey": "0x58a7d19153985ea602f7e374a0415feb2527b3651335f5698ecc4fb771dadff7",
  "output": {
    "v": 1,
    "r": "0x8c34e9af712314e81a1e77f0089fb74aae69746079e4ed48deadaa8763d555e0",
    "s": "0x0e57ac5e814a42155a1e217a70441e5faeec693f106e831a03d699786dfdd235",
    "bytes": "0xf90471830832c9843a7b48e084dfbfe9b694f2ffae6c424a52840484237d1fae3d27ffac24f9871fffffffffffffb9040033e59d42afe657056d1ab1070615205c310e0d6fcd6fc2a28b76b18bff56e395c9c47b4e561974af88ce2020de53099bee8196403580c08d1801080e2f0e683e6f9b7aba7ec376c4be3d05cee034433c4da746d6afdccf231653115818f599eefa6f642aab65c08feb157f0d2c4aa779a81e8404f3abd0b6b88e665e3126027e8a4d0a8cfc786d6325b9b996eef4a8eb93fbe9b72959ea1556d598a09eeac05b7125b56b56cb9b4de4fb0b7b1d9baf5bf186f9c84f81e75840128be776c2ea12f4c34ce85a63c89920387a8d7f50eedf7df15975cf1a2a77cfef217427cc65f1522e4211a6554f9dac53f13b25d34011c4cf0dd9ff803e7251c48e977534c00e6a9d0befc2793d99b18c22d5c6e811a684688045e38a189aedebdd414ee78bc7a84a758aa7cce8633e2e1bc3d2e1936911e8bd0d8096ffcaf6648796cd287a08274cf69654eb0f7dae019680fd9107a55df17d916f236be366f92bb2967536e0f9ffb8398f9d0e5cf9ec50e5dab9e325cd07c3d81bd5901e1d4d026bcf908eb61773a4194cf0a585b87974e4287194cb2a38eba4644c5d31a080b0ebe5de40c23eeaf042e04b92aa9ea2bab06e32d804ebe408a24ea2d35797b3f3b79f5196ced725b2558330f68eef1bb2ab8660cde06d27123469632dc36cd1ab5f991fb26cd4cb125078de724f442de6576a0fb92003af5c5e3636dae10081b5c10f82a2dc8e1be55432dc8afba2c3ea0241479b6c71a60ec15472de6be0be6643ea05db3db0cd1102e2273da2016f74e1ae81fc9262678b00d0870b3d01551fcad2bc3483c3a9b8511dd0bc458f8312cecc8c6640150cb7899eece54f84b83e1e1cf2100a32a407aa6d84cf0772b099e6ad27277780f06a1ac25fa2e3833a8a892d10bc92dcf59857f00f392e6cd6f944d12dae5d830748724e8060bdcd7209698f1fc8741632050dd0eca0b96472c6fbd3a8e69c05cde328a75ffbdc6c393ad3173e07a5bfd0558306ef76125ed9881bfad529254e8a82ca77c3fb7c9f4837c3d02be9b8ac2b45e7c2c58c2cfbb68cc7e069cc3a4a9cc9f7fdfaada665a3414d6fc0bee6b40bd5328340585a55e1ff8e59a382f2f460b46d123b0afa5656b7dc3704bd3bca59e5fb6a44d413e6708cc0c2814e5a11dd7caa7987f1f52960c2c3041c0a23c899556091aa729eb9eaf49d0143d1df3d61660af24a3b6c42b0de25adc6715655deae3e92d70403ba9f97a7ccc0b283f04a20cf2a50be5e8befda167e7cc8086df6698c12f419153a0deca2873ef6c5fdbfe627b3d55ebc41138f833f85d6d2b56642ddcc458892863ab3e0920f13724b589b4236d499570f7a34211560e7efd0bf6baa9ee4c0471b983f13fb48b9008f9ba44222f5de362f21eefd49d51d7f5a48f658167eb8dea75a99d48e5cd5c1bbc246c90b0530af1e7f7a5fc8a268f926a08c34e9af712314e81a1e77f0089fb74aae69746079e4ed48deadaa8763d555e0a00e57ac5e814a42155a1e217a70441e5faeec693f106e831a03d699786dfdd235"
  }
}
