{
  "input": {
    "data": "0xbc3fe9e3b589b25912c00560b5d31d07dd38c287e3735a1e7ea86332ef89646249d44785f70c047596c8d58aeb532d6fe39dc207b971e0cd5675519ded8911f9d4ed59d84fd19da9611d22df32feec716a0defe9bf897b1cd15a7cbf9310d6d608cd2e5c6c7c07d1f974ab8de956c5a48282521e4d5e05a4645ec789150615d39102932036019edc3110bd0d03043b238784049ee39010f0f1acd2a639e5e3b3f9b3d019553f242539fabeeb56271b15163bf364116100e899dab9f9f683567f4af210943ef49f918ceab90ebf0f638b2a1912396a0de16147a01326087ca56031acbeff9b69a7ce0b071a56adc4ec9a9bd28d279611866385a7423de082dae0b34ab41fdc1a8d0d68d08a30d34be0c1f671b57936e925acacbb533bfac266579529a3ed546108935b0d5980236b137c0e2a4087be96e00d315b92b3cbb15084b86a5482b806232110db539f1d715f1b83a57f330605a24dd7f3ac46cbf69e12072bababc2669ef2eb36a4f07117518ed40d3ce070403dfa9e3c09bdefce41d262d85e656cad935c59b0fe637e5e0c64a5d89a1c00c855d3bc3a27e3b16245077e313df6bba56fee1b66bde1ede60f199e86997d36b5c6f3215396108b8f5652dbff3d36077c3900246066ed10ef2506fb4682f4ab60f98eea41d5e205485a5a8eaeaed8705ae7bb9e2a13a3a671a34906c66dd503234a999b716bb4a0f4c101ad55c08f706fd6630fc1286230c4008fc881e05ba6bf9f82a27df290c4ce25f79097e40b540bb84c9f7c89d08e61bc20858072e615af713b8e7a8cf7119131bc3a01a8fa534dd3bdd382c73aff2df238a408054a48e440db8054f910c706db063a17412edc3e144214f294e027a1d543083ecc83d7ed6dacf4148ccd33ff48a39af02b674218a0cc877bfee27a922944be0b81efbad14253d2577589ff8fdeab7bf7edfea34393381bc3c02312088c9595c1d5f5788713c6c5167bbabcc047681b22cf6cfbd40b94745b1f5a8eb494c83cbe00176db7288fdf3c5b69deccd0c18b3b4070403e30895e2e3dcc1fa746bfe548b1c0504da610884700e46a4e1a08fefe209e99fe9f14a3047432885237b3aed20dcfd1945b913617c6d4d8c29884a97d8455e95d42cf6212403c6f502c3c240485ce703fd75042130cd0637adc2c91625bd265075709f4bdeccd0145495b24b147c036bd65fb27dfbc5d9247efc33051953cd235456a0971d6e5b3a6a0c7a1b543a503277677c4b8c90b60319e449759123af92d4e75164ba4f50d4f116ffd1d26656bf17952bd9f55df7b4d80f4663718bb42583f5857649c96c5800199eed99a4e3c30f5d85fcd086d82baa92ee77ec8e3bca2b8a427d29567ba2cadbc34b85c5517633e074207c6cd3f9f6c1d4b958569874eb01752d44dc703d96f5b237f57d09b33cd9c12d68200b738e7a3",
    "gasPrice": 986095178,
    "nonce": 969327,
    "to": "0xccdf2214c9339695bd84371608b2e178c8f69d4e",
    "value": 9007199254740991,
    "chain": 1,
    "gas": 3728951033
  },
  "privateKey": "0xebd4f47bc3f6f5321851e3809a031eba763c317bf6392168b48868bf00afc04f",
  "output": {
    "v": 37,
    "r": "0x789299a23050632976ae03360681a84e2f2cedcaf7ae386cfcdb8f3a19524d68",
    "s": "0x61ebe266b2b73d98bb0443a99519ce10a2b3ff535f71466bdf7ebdd634f8c9e6",
    "hash": "0xcf9afb7f3ff27a758e83bd93a18503a6df0bcae2b18c094068dc90fa42224234",
    "bytes": "0xf90471830eca6f843ac69e4a84de4346f994ccdf2214c9339695bd84371608b2e178c8f69d4e871fffffffffffffb90400bc3fe9e3b589b25912c00560b5d31d07dd38c287e3735a1e7ea86332ef89646249d44785f70c047596c8d58aeb532d6fe39dc207b971e0cd5675519ded8911f9d4ed59d84fd19da9611d22df32feec716a0defe9bf897b1cd15a7cbf9310d6d608cd2e5c6c7c07d1f974ab8de956c5a48282521e4d5e05a4645ec789150615d39102932036019edc3110bd0d03043b238784049ee39010f0f1acd2a639e5e3b3f9b3d019553f242539fabeeb56271b15163bf364116100e899dab9f9f683567f4af210943ef49f918ceab90ebf0f638b2a1912396a0de16147a01326087ca56031acbeff9b69a7ce0b071a56adc4ec9a9bd28d279611866385a7423de082dae0b34ab41fdc1a8d0d68d08a30d34be0c1f671b57936e925acacbb533bfac266579529a3ed546108935b0d5980236b137c0e2a4087be96e00d315b92b3cbb15084b86a5482b806232110db539f1d715f1b83a57f330605a24dd7f3ac46cbf69e12072bababc2669ef2eb36a4f07117518ed40d3ce070403dfa9e3c09bdefce41d262d85e656cad935c59b0fe637e5e0c64a5d89a1c00c855d3bc3a27e3b16245077e313df6bba56fee1b66bde1ede60f199e86997d36b5c6f3215396108b8f5652dbff3d36077c3900246066ed10ef2506fb4682f4ab60f98eea41d5e205485a5a8eaeaed8705ae7bb9e2a13a3a671a34906c66dd503234a999b716bb4a0f4c101ad55c08f706fd6630fc1286230c4008fc881e05ba6bf9f82a27df290c4ce25f79097e40b540bb84c9f7c89d08e61bc20858072e615af713b8e7a8cf7119131bc3a01a8fa534dd3bdd382c73aff2df238a408054a48e440db8054f910c706db063a17412edc3e144214f294e027a1d543083ecc83d7ed6dacf4148ccd33ff48a39af02b674218a0cc877bfee27a922944be0b81efbad14253d2577589ff8fdeab7bf7edfea34393381bc3c02312088c9595c1d5f5788713c6c5167bbabcc047681b22cf6cfbd40b94745b1f5a8eb494c83cbe00176db7288fdf3c5b69deccd0c18b3b4070403e30895e2e3dcc1fa746bfe548b1c0504da610884700e46a4e1a08fefe209e99fe9f14a3047432885237b3aed20dcfd1945b913617c6d4d8c29884a97d8455e95d42cf6212403c6f502c3c240485ce703fd75042130cd0637adc2c91625bd265075709f4bdeccd0145495b24b147c036bd65fb27dfbc5d9247efc33051953cd235456a0971d6e5b3a6a0c7a1b543a503277677c4b8c90b60319e449759123af92d4e75164ba4f50d4f116ffd1d26656bf17952bd9f55df7b4d80f4663718bb42583f5857649c96c5800199eed99a4e3c30f5d85fcd086d82baa92ee77ec8e3bca2b8a427d29567ba2cadbc34b85c5517633e074207c6cd3f9f6c1d4b958569874eb01752d44dc703d96f5b237f57d09b33cd9c12d68200b738e7a325a0789299a23050632976ae03360681a84e2f2cedcaf7ae386cfcdb8f3a19524d68a061ebe266b2b73d98bb0443a99519ce10a2b3ff535f71466bdf7ebdd634f8c9e6"
  }
}
