{
  "input": {
    "data": "0xa2a3ad610f9dcb8c6179a2ef9b600a23b1846381afb874d40d1aa84a050e3600180db75496fc281224051ec54cafc716a10ab37ea4d7ea396d12cea71c5ac65f7cc49189670c78525962ddb6b373e716c342b030856354fc113e9b2ed472228ffc61e7f77ec8f1e4607a5f42b97f5629da2bdbbd80982e648f73354cdb36870318bb916d60c187eaaf41ac7bc009de4ad98a3df94eff4898f1340913f8ca3c93271dd3939397641e47d6baf494a060013cc016e8d83227792929b51578d19d302a518c02c40cd73fc2ef9c78acf3c5db50d342548718dee14700a79e76dc700faf6c612f812bcd30f98e067f564aaf28398a1b02db84ba7edfde6a07b9b3867d494a77df7c85a75084a80cba87b521a2f47841baaf5b0096367192d84d7bf60ca1b64318b791e8de8c04eb4b232cead2ce081671d6b00d6478ab654a6411e6379bce67653f869a96b31da3aa53a913daf1d062ea60e159a1150cc77b6e5d5c5109b09888229763f0892b7343e287b2beb8225a831a9a2893fe36c2fa9860f814ea1326f6fc72af675d4f8dc24a0bbd997fee93ee02ce17969506afca5d979dcd055a6dff4836862492cad09fade24a8956643751e1c121ee4679dbe2dd2af27a456aff05bd2b1ddaff80dce355d2a6cac4ba9115b0807009bbfffcea2998116fbbe9bc657d8ad650ef16c249c523d6f2127eac7176585451b23a50ed341cb0b8c1d1a41a811417569425007051350b292d70aa01d6fb41635bbc5fb633924d9403e75efb20b4ab0198025a877588e00dcbe1ddb32160b57b8acd95e076be3e6cd908b7580507f3c47e5b8ece5d75e5a6711cf03452f39165773d2938dc9e698281039c6c2bf28b4667088ac12d482e0d9b2342458f813e9674264c4fce4a0e7daf0d5ace50161bab3598f95d58a40e206aea464182da354dd045cf02eea3fb4fdf7b66492e2383ff359f0c346865a645ae84ab31cb47738a77f06e052ca15e3b3be0c6213e5da5a3a2a1b1e10864bd1d1529e778604143b7334c6d48cf62342e3b0ae080b6d9dc885670c3c0aef454add6ffc37a02f76ff494e93066f663e846479cb47be34f5c6391dc5bd96565fc0411d40966f7e3f6fdd0123f5a182bf0cce863ae9bf28311878478f27bb3ba33ae3767d094aeca1eee936e78e7d8f527b3e025260dbe9c0ff70d5f2902a53f0a7ecc8862d4afe3be280c5ec891924add8458d0bae4226caaf9db2bf2e853111605dcc996b955793d0ef5ae82b0c604da7444b2cad21b164499c48c4bc7c42b3ccabb35b383b26c26511e155a6cbd73a72c676cbb0ca23f646eb56bf60ed7674357d475dfa83ed25962100688e643cadb6a00ae9a0f4e52493f8f15628c814ff7d45054c026599787052cf3c463b07c8ac38cd74790e3c6108089e6f5475ec1939572dc356fc6ae6344696f27afc0614176",
    "gas": 2171945266,
    "gasPrice": 2287042611,
    "nonce": 266057,
    "to": "0xcc24902743a65562f0c8392cda3a0a1b83a99a93",
    "value": 9007199254740991,
    "chain": 1,
    "accessList": {
      "list": [
        {
          "address": "0x3f9eca5efca0106b1b4923e3cae98b54cf1dcf0a",
          "storageKeys": [
            "0x03e925fa0ad75a796b690f036108ee977a063e357317c5b7b55d7e0bfbe01333"
          ]
        },
        {
          "address": "0x12bad13b4a4797d9f587af1e3a794d4ad3c13b2c",
          "storageKeys": [
            "0x441559d7a51b5a869b4e81f163393d0a063ff3ae3593e629f2c047fc2bc44322"
          ]
        },
        {
          "address": "0x13896d408bf84c44b6b7d379e292c493ad8ce72b",
          "storageKeys": []
        },
        {
          "address": "0x38920bed52edc54e6a6163a799d285362ef7998c",
          "storageKeys": [
            "0xb8197950cb133adebbc924941c7a5d2b05e18b911b99e5b45909c1773732610a"
          ]
        }
      ]
    },
    "type": "0x01"
  },
  "privateKey": "0x3189385bf8fae41ff2d3f9ce302ea5a947a5c6aa300cabb934672363d6c7c0f0",
  "output": {
    "v": "0x1",
    "r": "0x98669823812617711988048823613091187700481331559504898414399594574148519598964",
    "s": "0x9387413436627687475153632108813425353895017115723025503312602827557042967015",
    "bytes": "0x01f9052f0183040f4984885180338094cc24902743a65562f0c8392cda3a0a1b83a99a93871fffffffffffffb90400a2a3ad610f9dcb8c6179a2ef9b600a23b1846381afb874d40d1aa84a050e3600180db75496fc281224051ec54cafc716a10ab37ea4d7ea396d12cea71c5ac65f7cc49189670c78525962ddb6b373e716c342b030856354fc113e9b2ed472228ffc61e7f77ec8f1e4607a5f42b97f5629da2bdbbd80982e648f73354cdb36870318bb916d60c187eaaf41ac7bc009de4ad98a3df94eff4898f1340913f8ca3c93271dd3939397641e47d6baf494a060013cc016e8d83227792929b51578d19d302a518c02c40cd73fc2ef9c78acf3c5db50d342548718dee14700a79e76dc700faf6c612f812bcd30f98e067f564aaf28398a1b02db84ba7edfde6a07b9b3867d494a77df7c85a75084a80cba87b521a2f47841baaf5b0096367192d84d7bf60ca1b64318b791e8de8c04eb4b232cead2ce081671d6b00d6478ab654a6411e6379bce67653f869a96b31da3aa53a913daf1d062ea60e159a1150cc77b6e5d5c5109b09888229763f0892b7343e287b2beb8225a831a9a2893fe36c2fa9860f814ea1326f6fc72af675d4f8dc24a0bbd997fee93ee02ce17969506afca5d979dcd055a6dff4836862492cad09fade24a8956643751e1c121ee4679dbe2dd2af27a456aff05bd2b1ddaff80dce355d2a6cac4ba9115b0807009bbfffcea2998116fbbe9bc657d8ad650ef16c249c523d6f2127eac7176585451b23a50ed341cb0b8c1d1a41a811417569425007051350b292d70aa01d6fb41635bbc5fb633924d9403e75efb20b4ab0198025a877588e00dcbe1ddb32160b57b8acd95e076be3e6cd908b7580507f3c47e5b8ece5d75e5a6711cf03452f39165773d2938dc9e698281039c6c2bf28b4667088ac12d482e0d9b2342458f813e9674264c4fce4a0e7daf0d5ace50161bab3598f95d58a40e206aea464182da354dd045cf02eea3fb4fdf7b66492e2383ff359f0c346865a645ae84ab31cb47738a77f06e052ca15e3b3be0c6213e5da5a3a2a1b1e10864bd1d1529e778604143b7334c6d48cf62342e3b0ae080b6d9dc885670c3c0aef454add6ffc37a02f76ff494e93066f663e846479cb47be34f5c6391dc5bd96565fc0411d40966f7e3f6fdd0123f5a182bf0cce863ae9bf28311878478f27bb3ba33ae3767d094aeca1eee936e78e7d8f527b3e025260dbe9c0ff70d5f2902a53f0a7ecc8862d4afe3be280c5ec891924add8458d0bae4226caaf9db2bf2e853111605dcc996b955793d0ef5ae82b0c604da7444b2cad21b164499c48c4bc7c42b3ccabb35b383b26c26511e155a6cbd73a72c676cbb0ca23f646eb56bf60ed7674357d475dfa83ed25962100688e643cadb6a00ae9a0f4e52493f8f15628c814ff7d45054c026599787052cf3c463b07c8ac38cd74790e3c6108089e6f5475ec1939572dc356fc6ae6344696f27afc0614176f8bff7943f9eca5efca0106b1b4923e3cae98b54cf1dcf0ae1a003e925fa0ad75a796b690f036108ee977a063e357317c5b7b55d7e0bfbe01333f79412bad13b4a4797d9f587af1e3a794d4ad3c13b2ce1a0441559d7a51b5a869b4e81f163393d0a063ff3ae3593e629f2c047fc2bc44322d69413896d408bf84c44b6b7d379e292c493ad8ce72bc0f79438920bed52edc54e6a6163a799d285362ef7998ce1a0b8197950cb133adebbc924941c7a5d2b05e18b911b99e5b45909c1773732610a01a0da252425bae516c2269aa2def689ddf99d83b5a816f2838786037b00e0c01b74a014c1167494f43a600a23f15b6a560147f81a235f3d24792fca25e5c13d9cd1e7"
  }
}
