{
  "input": {
    "data": "0x384e4b2890cf983f64bab61d3df6c0587556274f7b9893ea5abba5e5dcc754219ca0434724bbb84dd7e1f864e1982b2e2fa7655e8b8b67e2b060d579e0bdad6f49239dfb00bc056b2a6d19f40087c36158f170bbc70764148e37fc5346bbbf754f7fad20093138f0faf44720f31836e84bd71f1f10ecde578b9878f93be17487228d04c8841ea7e0f9b635ad9ca9066fd79b0912fcdf90113aff2295479e142cf88844b74ba6bf3bcb951848f490f0fcd0475ebd18034a59604d47de09870f6f5c3d8dabda54813761bbd60cfff1d115a7ac2334c0979e922d338e10c1ee60d67ea2ac79d54322b6be821dba9dec3c87a74a5adfa73a13ee340bfc973594310050bdc36fb959facd54998e2c063890528ba3cfbc525722941e8bcb82646f1defac151b2b74be724e45db04447d7b95e1b866a05a4e21a7c24c2cac2559df3b703b498d23e404f662733143487f8b556201c1d94b722a4eb9f5d4a95fc22fc273988eb9da1fb0cd8227570f024abc6899876ed3be3ba68bb7a1b4880c9861d7419cf73069a1c79e1442ff93c00ed5c4132a0297634456feb7da5c779dc58d593fa9e72b06e123c1afd08864c7be5050b65442038bd548a423e030a237a6c57bbd533f740ed988df3744a2f6b1601c62c2563910181877344df8c770df9d5547ace2e7768d7622d0f454d2ad33a48c765e62718b5c44d26bd46ea6f8a6d6b2393b26941f6373a62a312d78e2ba8ee216f58ddcfe18c76f1230c26a177e2e301480556016385b3f70dd355db1106c2207784266352bdd55cb9328ea847d762649be6c8946b73e855b82880a9bb82f92665471a572dad12b47b39a82b502b42c2c224319851a8ad2f8be0436040cfc4b70d204851a35293f92fb27afcdadf3652b58770e24f910785fe22bd2df4229b68c31e95133ebd1632bfbf44542a5f1f18ac1c19bdb0bdd139810843645e882bf17d61cfbaea343b1015d81970ae20f72eb01a11f08a4b8c8980ee851de27f905b5c6d2f58ef58f7642fec8cc60bbb3cafddaea4aebc2e558465b34a817bb64e9d228d390bdc1c81eb84dcf48f2cd4b1f2ef4c6e7f6b4f72d015cff7ee586d36184058997acbab49b5497f7720f42b7fc8ee873d1247e1a61783c18edddb3fcdfac57d0c0a0711047349c72b808432a25a8636e21597818418415a4c9896fb25c8469df8cda2624ac138b860059b3225255183df606b3956b04e6ea604fa06e2ddfff4fa4836e1ca53e735ed30177fe9fb2134f70e8ce4c8acff25b645a439d89be25e55a586061160b0f6672f9b8cd4bc1830608dc12d4b3840d46fc5c005b4aeddeb7d2cb6c89d120525e196e3e858cf9d87e3c1fb041ea0aa8ce020b748446cd5ac51db759ab65b08efe4f6de8e6be35bfb9e39836a1149001e7657aa1956f701c56124484ba02ea2dcfc63ec03b357a46",
    "gasPrice": 3659017416,
    "nonce": 693000,
    "to": "0x5898174f469e4c176e501fc36efdb307d25f47d1",
    "value": 9007199254740991,
    "chain": 1,
    "accessList": [
      {
        "address": "0xadc4a17c5220df6f34cf983bcf15fde1d8866493",
        "storageKeys": [
          "0x4770a873299fc73d3067cdd9ba5a6c74070187ceadcb68d6ad1ba134131e2c04",
          "0xabadb3ab6bcd9e1b48c904119fdb218e1e0680b0ac3013beaa9765e04835b2d0"
        ]
      },
      {
        "address": "0x494445799e2b5091e411a0c48885f939e68905c7",
        "storageKeys": [
          "0x79a081fdf51a3b7b2fedf29273749c78b302615a35504094d61712d76c92c5de",
          "0x2248effc9021b9525df69bd618127362c885d66f520b60a34b3dbb17e76b72db",
          "0x94dc1a66828f5d07277021a374f8bcd822480affbe606529ccaa271aae788e2d"
        ]
      },
      {
        "address": "0xc4a69362a469097b6b66915718cacde9ff2bcc69",
        "storageKeys": [
          "0xa86db989176eef9895f9c5c558a0a3bba19c6ebb3c88e0292a0575a1259c5378",
          "0x3347b48b0caf169c57ff2857bb946718fcfde3f62832861447e251f6ed83331e"
        ]
      }
    ],
    "type": "0x01",
    "gas": 3120126287
  },
  "privateKey": "0x7a0d7eabd4f79b96f1b14c572f17a7e4bd654a00ec1b42f6e969a039d33c19a2",
  "output": {
    "v": 1,
    "r": "0xeb55e4b44ba50575545cf85c12b16a87d4f7d4d11fd82563f0dca172b8b799b5",
    "s": "0x4d11d7fb7e347ffc1040dcc5126cdf552c11f8675df52a652c514e9f9faec84c",
    "hash": "0x475252ac090dbdfa4873a10741232ddb9fb63b01424eb7b9f2de211988012a52",
    "rawUnsigned": "01f9056401830a930884da182cc884b9f9594f945898174f469e4c176e501fc36efdb307d25f47d1871fffffffffffffb90400384e4b2890cf983f64bab61d3df6c0587556274f7b9893ea5abba5e5dcc754219ca0434724bbb84dd7e1f864e1982b2e2fa7655e8b8b67e2b060d579e0bdad6f49239dfb00bc056b2a6d19f40087c36158f170bbc70764148e37fc5346bbbf754f7fad20093138f0faf44720f31836e84bd71f1f10ecde578b9878f93be17487228d04c8841ea7e0f9b635ad9ca9066fd79b0912fcdf90113aff2295479e142cf88844b74ba6bf3bcb951848f490f0fcd0475ebd18034a59604d47de09870f6f5c3d8dabda54813761bbd60cfff1d115a7ac2334c0979e922d338e10c1ee60d67ea2ac79d54322b6be821dba9dec3c87a74a5adfa73a13ee340bfc973594310050bdc36fb959facd54998e2c063890528ba3cfbc525722941e8bcb82646f1defac151b2b74be724e45db04447d7b95e1b866a05a4e21a7c24c2cac2559df3b703b498d23e404f662733143487f8b556201c1d94b722a4eb9f5d4a95fc22fc273988eb9da1fb0cd8227570f024abc6899876ed3be3ba68bb7a1b4880c9861d7419cf73069a1c79e1442ff93c00ed5c4132a0297634456feb7da5c779dc58d593fa9e72b06e123c1afd08864c7be5050b65442038bd548a423e030a237a6c57bbd533f740ed988df3744a2f6b1601c62c2563910181877344df8c770df9d5547ace2e7768d7622d0f454d2ad33a48c765e62718b5c44d26bd46ea6f8a6d6b2393b26941f6373a62a312d78e2ba8ee216f58ddcfe18c76f1230c26a177e2e301480556016385b3f70dd355db1106c2207784266352bdd55cb9328ea847d762649be6c8946b73e855b82880a9bb82f92665471a572dad12b47b39a82b502b42c2c224319851a8ad2f8be0436040cfc4b70d204851a35293f92fb27afcdadf3652b58770e24f910785fe22bd2df4229b68c31e95133ebd1632bfbf44542a5f1f18ac1c19bdb0bdd139810843645e882bf17d61cfbaea343b1015d81970ae20f72eb01a11f08a4b8c8980ee851de27f905b5c6d2f58ef58f7642fec8cc60bbb3cafddaea4aebc2e558465b34a817bb64e9d228d390bdc1c81eb84dcf48f2cd4b1f2ef4c6e7f6b4f72d015cff7ee586d36184058997acbab49b5497f7720f42b7fc8ee873d1247e1a61783c18edddb3fcdfac57d0c0a0711047349c72b808432a25a8636e21597818418415a4c9896fb25c8469df8cda2624ac138b860059b3225255183df606b3956b04e6ea604fa06e2ddfff4fa4836e1ca53e735ed30177fe9fb2134f70e8ce4c8acff25b645a439d89be25e55a586061160b0f6672f9b8cd4bc1830608dc12d4b3840d46fc5c005b4aeddeb7d2cb6c89d120525e196e3e858cf9d87e3c1fb041ea0aa8ce020b748446cd5ac51db759ab65b08efe4f6de8e6be35bfb9e39836a1149001e7657aa1956f701c56124484ba02ea2dcfc63ec03b357a46f90132f85994adc4a17c5220df6f34cf983bcf15fde1d8866493f842a04770a873299fc73d3067cdd9ba5a6c74070187ceadcb68d6ad1ba134131e2c04a0abadb3ab6bcd9e1b48c904119fdb218e1e0680b0ac3013beaa9765e04835b2d0f87a94494445799e2b5091e411a0c48885f939e68905c7f863a079a081fdf51a3b7b2fedf29273749c78b302615a35504094d61712d76c92c5dea02248effc9021b9525df69bd618127362c885d66f520b60a34b3dbb17e76b72dba094dc1a66828f5d07277021a374f8bcd822480affbe606529ccaa271aae788e2df85994c4a69362a469097b6b66915718cacde9ff2bcc69f842a0a86db989176eef9895f9c5c558a0a3bba19c6ebb3c88e0292a0575a1259c5378a03347b48b0caf169c57ff2857bb946718fcfde3f62832861447e251f6ed83331e",
    "bytes": "0x01f905a701830a930884da182cc884b9f9594f945898174f469e4c176e501fc36efdb307d25f47d1871fffffffffffffb90400384e4b2890cf983f64bab61d3df6c0587556274f7b9893ea5abba5e5dcc754219ca0434724bbb84dd7e1f864e1982b2e2fa7655e8b8b67e2b060d579e0bdad6f49239dfb00bc056b2a6d19f40087c36158f170bbc70764148e37fc5346bbbf754f7fad20093138f0faf44720f31836e84bd71f1f10ecde578b9878f93be17487228d04c8841ea7e0f9b635ad9ca9066fd79b0912fcdf90113aff2295479e142cf88844b74ba6bf3bcb951848f490f0fcd0475ebd18034a59604d47de09870f6f5c3d8dabda54813761bbd60cfff1d115a7ac2334c0979e922d338e10c1ee60d67ea2ac79d54322b6be821dba9dec3c87a74a5adfa73a13ee340bfc973594310050bdc36fb959facd54998e2c063890528ba3cfbc525722941e8bcb82646f1defac151b2b74be724e45db04447d7b95e1b866a05a4e21a7c24c2cac2559df3b703b498d23e404f662733143487f8b556201c1d94b722a4eb9f5d4a95fc22fc273988eb9da1fb0cd8227570f024abc6899876ed3be3ba68bb7a1b4880c9861d7419cf73069a1c79e1442ff93c00ed5c4132a0297634456feb7da5c779dc58d593fa9e72b06e123c1afd08864c7be5050b65442038bd548a423e030a237a6c57bbd533f740ed988df3744a2f6b1601c62c2563910181877344df8c770df9d5547ace2e7768d7622d0f454d2ad33a48c765e62718b5c44d26bd46ea6f8a6d6b2393b26941f6373a62a312d78e2ba8ee216f58ddcfe18c76f1230c26a177e2e301480556016385b3f70dd355db1106c2207784266352bdd55cb9328ea847d762649be6c8946b73e855b82880a9bb82f92665471a572dad12b47b39a82b502b42c2c224319851a8ad2f8be0436040cfc4b70d204851a35293f92fb27afcdadf3652b58770e24f910785fe22bd2df4229b68c31e95133ebd1632bfbf44542a5f1f18ac1c19bdb0bdd139810843645e882bf17d61cfbaea343b1015d81970ae20f72eb01a11f08a4b8c8980ee851de27f905b5c6d2f58ef58f7642fec8cc60bbb3cafddaea4aebc2e558465b34a817bb64e9d228d390bdc1c81eb84dcf48f2cd4b1f2ef4c6e7f6b4f72d015cff7ee586d36184058997acbab49b5497f7720f42b7fc8ee873d1247e1a61783c18edddb3fcdfac57d0c0a0711047349c72b808432a25a8636e21597818418415a4c9896fb25c8469df8cda2624ac138b860059b3225255183df606b3956b04e6ea604fa06e2ddfff4fa4836e1ca53e735ed30177fe9fb2134f70e8ce4c8acff25b645a439d89be25e55a586061160b0f6672f9b8cd4bc1830608dc12d4b3840d46fc5c005b4aeddeb7d2cb6c89d120525e196e3e858cf9d87e3c1fb041ea0aa8ce020b748446cd5ac51db759ab65b08efe4f6de8e6be35bfb9e39836a1149001e7657aa1956f701c56124484ba02ea2dcfc63ec03b357a46f90132f85994adc4a17c5220df6f34cf983bcf15fde1d8866493f842a04770a873299fc73d3067cdd9ba5a6c74070187ceadcb68d6ad1ba134131e2c04a0abadb3ab6bcd9e1b48c904119fdb218e1e0680b0ac3013beaa9765e04835b2d0f87a94494445799e2b5091e411a0c48885f939e68905c7f863a079a081fdf51a3b7b2fedf29273749c78b302615a35504094d61712d76c92c5dea02248effc9021b9525df69bd618127362c885d66f520b60a34b3dbb17e76b72dba094dc1a66828f5d07277021a374f8bcd822480affbe606529ccaa271aae788e2df85994c4a69362a469097b6b66915718cacde9ff2bcc69f842a0a86db989176eef9895f9c5c558a0a3bba19c6ebb3c88e0292a0575a1259c5378a03347b48b0caf169c57ff2857bb946718fcfde3f62832861447e251f6ed83331e01a0eb55e4b44ba50575545cf85c12b16a87d4f7d4d11fd82563f0dca172b8b799b5a04d11d7fb7e347ffc1040dcc5126cdf552c11f8675df52a652c514e9f9faec84c"
  }
}
