{
  "input": {
    "data": "0x73e5d5280e7a20fe7e23752057f06c42315ccbed395a46fcad1b68d0afc7c9eaecd8884cefe86f2d2522a0d07437d8eec54b076f5202b95c0ea8026392a800eed6e47d8acf375302569b9e0ad3a26d718c08a482088a6e673144e5f13e9d48f062953e81e48ab058487092c2ee0a881d7e545d97590b6e5de38f2b1ff03fb1455fd7275e47872d7b4a609f8e53123bd14a0de0f96a4bc334eeadb5dee9dcac7388a9c5d3b08447cd9b14047de0af5407f1efe53fd63f1979fceebc27d0e8d64a669bdb3078eeefde4a1898f31db07d9c827866c5a5c7e997943d62f4e006e45b11ff01492a5e393b5b3bcaa7e41bf6f2a9857f761eda23c305ef65d5285914a936a4fe23a6e1c172c0ad73401b3ad22631131cf8a47d07bdf0e0de650d43809290681ecf1a356e2c1cf843eed1657d84ea9f5530487b3784effb1414128089ca46fd1e8367c434ed8df6cf6f9328d572c48fecd5ce8cf0cc44daff4ed062831b29e4bb4b815221436b358c5bf9f3d60c0f4d0be43215b0564cea3b17c9a5ced767f45b6ca2eb89562066f9ebdd011141b7f25704f6e8f6e49f2feaa95b829330a7fffd4b6174c6d63408bf40a0286995da1c51f9c740fddb3d7f03d6ae387d27d2c3d9795a2789ea4d6e95469af2ab71fad86bedb40914492f76ce783b9b82ad51735ebf7a079a1dea3c4f4daa81a491d5bac17d0bc854094f48afe120fb5e6d94762660de1da2ee431a816cb72a291c18d6d970d1df656d20fc55abf790d2506328451a9680bd9a5325cf2c5f7642edafaf39ff7d8f8ffd1b369f0ac8c9c8b6466e75a2f6e9a52a27bc67c8b8492659c02fff4f419f02b72d8d6a13341c1f2924766d285ddc5fda692e30d2aa1a5e65dff998ab78d4c8892863ffdfcb59f047ac7e41cfba9871a1237ef98a735ebfe0dc8a9ca2118fa3db49ea9a8f5ffd678df7f900db631a47d173aa285d2c59ae764f8078f4a4d4ababe90d9dc3db9a60d4db26ca994ee2c014505702c2a81197316252675c17605edcd1c289e5ec2f3f642b65d1195dc93f6d38fc86d472f5bc42410fbed1eeac1100a3d09abf0fe4d1795b1839318b669fcb7095dc146ffcb5803aef07599b4ebe715bae2bbe0da01e8465a9fdd7171668c48887c72f4918a11dcbce4f3c091f9c8ea065b52b9bea8caed2eb8003d7b08f0e4bd2ac3aab19ec6d944f8f23724f57111f51e0d4ec38ba47132e122f60309456137a41e8cd354d6e9dfcb2aed9e8c7ad2608e2a434f3d1ac47e7d01aa10f2d4e88899a68e2cdb0d0e31e04649718ff8c6629b66aef5840796f01f7ea5f5fb9ec517336d8ef88850eabe6bfe38d62a449e76112ad75f9701ccf0489c1b069727bf580e7fa66ecb088ffb7c0545cd87497ccc7741a2eafbded91bb3b2c8ec1edbd56c0e78f372c5e0e20a4ea91bc9eb199abf16bb80ffa0f3b",
    "gasPrice": 1101128364,
    "nonce": 902777,
    "to": "0xe35b9c51cea33334d1420876f6d9737a63cbb00f",
    "value": 9007199254740991,
    "chain": 1,
    "gas": 548750003
  },
  "privateKey": "0xd7f926d038cafa25c374c1ffe4058b25764efc309b5a4245b640b5e0c71bd4f6",
  "output": {
    "v": 38,
    "r": "0x2c2b8969f10e0e7abcec822681311c2e8a0da1ad8de43decc2462b3fad1be99b",
    "s": "0x79e3aba16195e3e4e01686c7dcbdac0015e190a48506afea1dbf8d4c17977a5a",
    "hash": "0x4bd774db9b80a36aa703b3b46a7b51ca975fb51e2331cb0f330947b9566b5b2b",
    "bytes": "0xf90471830dc6798441a1e2ac8420b542b394e35b9c51cea33334d1420876f6d9737a63cbb00f871fffffffffffffb9040073e5d5280e7a20fe7e23752057f06c42315ccbed395a46fcad1b68d0afc7c9eaecd8884cefe86f2d2522a0d07437d8eec54b076f5202b95c0ea8026392a800eed6e47d8acf375302569b9e0ad3a26d718c08a482088a6e673144e5f13e9d48f062953e81e48ab058487092c2ee0a881d7e545d97590b6e5de38f2b1ff03fb1455fd7275e47872d7b4a609f8e53123bd14a0de0f96a4bc334eeadb5dee9dcac7388a9c5d3b08447cd9b14047de0af5407f1efe53fd63f1979fceebc27d0e8d64a669bdb3078eeefde4a1898f31db07d9c827866c5a5c7e997943d62f4e006e45b11ff01492a5e393b5b3bcaa7e41bf6f2a9857f761eda23c305ef65d5285914a936a4fe23a6e1c172c0ad73401b3ad22631131cf8a47d07bdf0e0de650d43809290681ecf1a356e2c1cf843eed1657d84ea9f5530487b3784effb1414128089ca46fd1e8367c434ed8df6cf6f9328d572c48fecd5ce8cf0cc44daff4ed062831b29e4bb4b815221436b358c5bf9f3d60c0f4d0be43215b0564cea3b17c9a5ced767f45b6ca2eb89562066f9ebdd011141b7f25704f6e8f6e49f2feaa95b829330a7fffd4b6174c6d63408bf40a0286995da1c51f9c740fddb3d7f03d6ae387d27d2c3d9795a2789ea4d6e95469af2ab71fad86bedb40914492f76ce783b9b82ad51735ebf7a079a1dea3c4f4daa81a491d5bac17d0bc854094f48afe120fb5e6d94762660de1da2ee431a816cb72a291c18d6d970d1df656d20fc55abf790d2506328451a9680bd9a5325cf2c5f7642edafaf39ff7d8f8ffd1b369f0ac8c9c8b6466e75a2f6e9a52a27bc67c8b8492659c02fff4f419f02b72d8d6a13341c1f2924766d285ddc5fda692e30d2aa1a5e65dff998ab78d4c8892863ffdfcb59f047ac7e41cfba9871a1237ef98a735ebfe0dc8a9ca2118fa3db49ea9a8f5ffd678df7f900db631a47d173aa285d2c59ae764f8078f4a4d4ababe90d9dc3db9a60d4db26ca994ee2c014505702c2a81197316252675c17605edcd1c289e5ec2f3f642b65d1195dc93f6d38fc86d472f5bc42410fbed1eeac1100a3d09abf0fe4d1795b1839318b669fcb7095dc146ffcb5803aef07599b4ebe715bae2bbe0da01e8465a9fdd7171668c48887c72f4918a11dcbce4f3c091f9c8ea065b52b9bea8caed2eb8003d7b08f0e4bd2ac3aab19ec6d944f8f23724f57111f51e0d4ec38ba47132e122f60309456137a41e8cd354d6e9dfcb2aed9e8c7ad2608e2a434f3d1ac47e7d01aa10f2d4e88899a68e2cdb0d0e31e04649718ff8c6629b66aef5840796f01f7ea5f5fb9ec517336d8ef88850eabe6bfe38d62a449e76112ad75f9701ccf0489c1b069727bf580e7fa66ecb088ffb7c0545cd87497ccc7741a2eafbded91bb3b2c8ec1edbd56c0e78f372c5e0e20a4ea91bc9eb199abf16bb80ffa0f3b26a02c2b8969f10e0e7abcec822681311c2e8a0da1ad8de43decc2462b3fad1be99ba079e3aba16195e3e4e01686c7dcbdac0015e190a48506afea1dbf8d4c17977a5a"
  }
}
