{
  "input": {
    "data": "0x46e1405d73a4dddb20b4423564cea554d5ac0a24ae90b75b1142bb49163d1170c407c16b2aad959496eadb1b772f7bd00318e8e9be352fa86ba59df1134414285653403656af5129814ad279d38b2be1d242cb45d07589522409a0ec8d885077ad0a614ca898bd81aa3500cc30938eefbd46ebae47b56b4e21040b3cf36da493f1687f27afab9f7309a9c859a7e13e060d62afe0ab0d4ab6e4ac7fe76d08a0a1df124778f2e68bb506120fbc5e7a9cfa6a44c8816646a26dacc7db7fe820e3d9f0995604ebf1dcc100efddd1088fff2a28ef83e4f4773d6f593cede33ba9185069d8bbcbd08b73b959fd965cb819cd87c6ca341df66536bafd7df56c7bbc01569ed86f8506be22ccedc0cc66b8005fe9d5fa4e3c0b1cdc7505e9e83eb98deaf26d343d4005c9ac6a7b9582835f088b9fe59051a19e5d4b6ad2a9abaab349e5254192bad60def18f713c747ed3a9324bd87f5b2f559649d7db5b0688c73b3f353e249b7e7f96ae22712e7efc78097ee0c9307aa80d136a0b86caa2d9e1d1651b922d64a470757285eb08e80e3aac62c089813b58080993cb8560b519a380dcb05cb5c3492322108dc7ad7448d22d50600c8520f472534816c81fdfe73257cf27efd1220b08e0d1e2d726f6b10224011431830ffdc6de5fa64a6a6e36868737653c2ddded5f081f069cc93989b76533d9df780a493ffafcbe283403c137b0013e40512f4bac83ebc7ad1ebdcee4931ced802ec5cbb7bccf3c81f6d2adcd2f9fbd2b790a70e952108c9bb871a6c261d10b574b129a275c9c89ea6a8733277c72b8b57e9901f967a1685bd2b4a13aa6e37c13f86dd2337c8054e7b60251602f09494142a8c0c3fbc18b5fbf5f4bbc77c8e650cbfe31ec12f4dfb3e7ebf0dc3abb3830e775acb02c4123bfe4883f159b975e8615d1b481a16bcd7948b4437b19fc0d2fa2a71a2c89095996bc49c1af979208fb60244b743587d50f9141089dd2c910d5feeb7b1ef98e30bee01119855b8e63dc9800871a717e87bb022d2257096e766ef418fc39f11aeb35fe2fa7214f436c423912783d2d3e41a2fc5f202900cb5e6b89d9023626e16fab6dc6a8f158bda47b4d07ff783b98027ee527b7de6f4dbdda312bb5517f9c1ee96e9a900c88f4f0005fbfc5f7cce71ce45143362c8c1a37af8895b99a7ca7fece861e7a83359e8251a8bde6bfaed633621e583d9410418a45290ed04e1cb637aefb247938d426c50e71ffa22c25fbfa18be5ffb6f341fd08018cc9527ac0053dc8412739f7b9f4b356fd560d13a31446262f69da2ca22bb1b3d4b84d5ad4751976b2ea7fdad3535e33771d855cc2dbed093037643714a291b4c99aa5398624122697e64a1026e0fb529593f929cdfb524563b6394ba5b28df4cf8e05ba7da4594a52d6a62b5bbfddc608cf1617447b16bdda1215e4540fdd",
    "maxPriorityFeePerGas": 950892793,
    "maxFeePerGas": 1197455469,
    "nonce": 262386,
    "to": "0x0d57f5c59b36529114de8216e6d142753c528bf2",
    "value": 9007199254740991,
    "chain": 1,
    "accessList": [
      {
        "address": "0x6c7e15baa585e516c1bbf183bdb18f6ad8fa59e4",
        "storageKeys": [
          "0xdae7d7f9f2daca6e3b580b6f0c486986aec1970c0f8b5dfbe615a084601110a9"
        ]
      },
      {
        "address": "0x059b39c8bb5f33d78da19661fa57447852c77b88",
        "storageKeys": [
          "0xbca878b5f947cf881c0b3a80f92dc5121efb96f15d81f8519d10ae13a77e607e",
          "0xb07ac55161c8dca07be293a05cd5352e6eadba5352420e3752e5d6ee3434376a",
          "0x33e4ef23e87e7d4c5c7a7f671029651cdac2ac123de19d6faa8227eeb0d467b8",
          "0xc13cd6cdd7d4aa7950eb7d0a7a7d443b6ab8f64c19721e653e38e25230ee41d7"
        ]
      },
      {
        "address": "0x64b85f21578f7a5a4e56da0d7737af9ba23d1a24",
        "storageKeys": [
          "0x33a1548972985be5216a9c8d683740d258654f1963ec3ee4165d27eaee54f0c1",
          "0x701285a83b25bb1170be1161aa1061797642378eb16698eb1afa10ed8a93f418",
          "0x16e4e1778aacd2be02933f4ff9393e78a15171e8d7dd0b08e09e84f79c33d900",
          "0xbfb6b53ac2d712418836b9b00db9e7d1fcfea2490b391c92984239a95e9ee48c"
        ]
      },
      {
        "address": "0x375c3bef904a082459635212a7e313b4578d34eb",
        "storageKeys": [
          "0xc34b9002dae5dacd7958d79a4c925255f7932415aaab8b58231c1686c83069e6",
          "0x2c0ea120c1156f00b51924f01b036b7042f03197da25d70250756f67680d248f"
        ]
      },
      {
        "address": "0x3d6366ebffc8b975ecc28e041a37208a4df115b2",
        "storageKeys": [
          "0xa5c118cbd363194e237eb2ffc4d77b5dd0383d6e2477c61d9e05c1c747cb0c71",
          "0x4ed1575a85af3cecdc16f7d40dddc5abf5fb84f011b834bec2f9f8e14d533910"
        ]
      }
    ],
    "type": "0x02",
    "gas": 514221250
  },
  "privateKey": "0xcf2db0a4963c4be64c117ac0296bb058655b6eaabe6749f6621cb99d85569ac1",
  "output": {
    "v": 1,
    "r": "0x2ed4d8a4a0fa7d2d2c2ee255209c13a7ccfb4a196512ba34e92267c37e5b31e8",
    "s": "0x3d65fdd752b30fad15e285ccf36bce184b123001de6f5961fe7165305db304e5",
    "hash": "0x370b57123973264a8da183d6842f5e62b144f36450d7c0b3d72724dbf79fc9c4",
    "bytes": "0x02f906a201830400f28438ad78f984475fb86d841ea664c2940d57f5c59b36529114de8216e6d142753c528bf2871fffffffffffffb9040046e1405d73a4dddb20b4423564cea554d5ac0a24ae90b75b1142bb49163d1170c407c16b2aad959496eadb1b772f7bd00318e8e9be352fa86ba59df1134414285653403656af5129814ad279d38b2be1d242cb45d07589522409a0ec8d885077ad0a614ca898bd81aa3500cc30938eefbd46ebae47b56b4e21040b3cf36da493f1687f27afab9f7309a9c859a7e13e060d62afe0ab0d4ab6e4ac7fe76d08a0a1df124778f2e68bb506120fbc5e7a9cfa6a44c8816646a26dacc7db7fe820e3d9f0995604ebf1dcc100efddd1088fff2a28ef83e4f4773d6f593cede33ba9185069d8bbcbd08b73b959fd965cb819cd87c6ca341df66536bafd7df56c7bbc01569ed86f8506be22ccedc0cc66b8005fe9d5fa4e3c0b1cdc7505e9e83eb98deaf26d343d4005c9ac6a7b9582835f088b9fe59051a19e5d4b6ad2a9abaab349e5254192bad60def18f713c747ed3a9324bd87f5b2f559649d7db5b0688c73b3f353e249b7e7f96ae22712e7efc78097ee0c9307aa80d136a0b86caa2d9e1d1651b922d64a470757285eb08e80e3aac62c089813b58080993cb8560b519a380dcb05cb5c3492322108dc7ad7448d22d50600c8520f472534816c81fdfe73257cf27efd1220b08e0d1e2d726f6b10224011431830ffdc6de5fa64a6a6e36868737653c2ddded5f081f069cc93989b76533d9df780a493ffafcbe283403c137b0013e40512f4bac83ebc7ad1ebdcee4931ced802ec5cbb7bccf3c81f6d2adcd2f9fbd2b790a70e952108c9bb871a6c261d10b574b129a275c9c89ea6a8733277c72b8b57e9901f967a1685bd2b4a13aa6e37c13f86dd2337c8054e7b60251602f09494142a8c0c3fbc18b5fbf5f4bbc77c8e650cbfe31ec12f4dfb3e7ebf0dc3abb3830e775acb02c4123bfe4883f159b975e8615d1b481a16bcd7948b4437b19fc0d2fa2a71a2c89095996bc49c1af979208fb60244b743587d50f9141089dd2c910d5feeb7b1ef98e30bee01119855b8e63dc9800871a717e87bb022d2257096e766ef418fc39f11aeb35fe2fa7214f436c423912783d2d3e41a2fc5f202900cb5e6b89d9023626e16fab6dc6a8f158bda47b4d07ff783b98027ee527b7de6f4dbdda312bb5517f9c1ee96e9a900c88f4f0005fbfc5f7cce71ce45143362c8c1a37af8895b99a7ca7fece861e7a83359e8251a8bde6bfaed633621e583d9410418a45290ed04e1cb637aefb247938d426c50e71ffa22c25fbfa18be5ffb6f341fd08018cc9527ac0053dc8412739f7b9f4b356fd560d13a31446262f69da2ca22bb1b3d4b84d5ad4751976b2ea7fdad3535e33771d855cc2dbed093037643714a291b4c99aa5398624122697e64a1026e0fb529593f929cdfb524563b6394ba5b28df4cf8e05ba7da4594a52d6a62b5bbfddc608cf1617447b16bdda1215e4540fddf90228f7946c7e15baa585e516c1bbf183bdb18f6ad8fa59e4e1a0dae7d7f9f2daca6e3b580b6f0c486986aec1970c0f8b5dfbe615a084601110a9f89b94059b39c8bb5f33d78da19661fa57447852c77b88f884a0bca878b5f947cf881c0b3a80f92dc5121efb96f15d81f8519d10ae13a77e607ea0b07ac55161c8dca07be293a05cd5352e6eadba5352420e3752e5d6ee3434376aa033e4ef23e87e7d4c5c7a7f671029651cdac2ac123de19d6faa8227eeb0d467b8a0c13cd6cdd7d4aa7950eb7d0a7a7d443b6ab8f64c19721e653e38e25230ee41d7f89b9464b85f21578f7a5a4e56da0d7737af9ba23d1a24f884a033a1548972985be5216a9c8d683740d258654f1963ec3ee4165d27eaee54f0c1a0701285a83b25bb1170be1161aa1061797642378eb16698eb1afa10ed8a93f418a016e4e1778aacd2be02933f4ff9393e78a15171e8d7dd0b08e09e84f79c33d900a0bfb6b53ac2d712418836b9b00db9e7d1fcfea2490b391c92984239a95e9ee48cf85994375c3bef904a082459635212a7e313b4578d34ebf842a0c34b9002dae5dacd7958d79a4c925255f7932415aaab8b58231c1686c83069e6a02c0ea120c1156f00b51924f01b036b7042f03197da25d70250756f67680d248ff859943d6366ebffc8b975ecc28e041a37208a4df115b2f842a0a5c118cbd363194e237eb2ffc4d77b5dd0383d6e2477c61d9e05c1c747cb0c71a04ed1575a85af3cecdc16f7d40dddc5abf5fb84f011b834bec2f9f8e14d53391001a02ed4d8a4a0fa7d2d2c2ee255209c13a7ccfb4a196512ba34e92267c37e5b31e8a03d65fdd752b30fad15e285ccf36bce184b123001de6f5961fe7165305db304e5"
  }
}
