{
  "input": {
    "data": "0xc6baffa5a5dbb57588d05c3fb902dbc8157fb065995d4555c9599723ba134ac853e769e43157b2b6ad29615b9fe7e6e8006d8a21d958cb043e65afb9c1e1aff929cb34c60c7539bb3608078f39bae180cccf75e95a9d58b0169f7da560912c97f2d1ab9701ed4b944761033dbadf0b608d9f50f1b2ebf6de4f03d3e26d11cacd6a61e664d7211b4278ccaf50a551b70db7926fa9295e2331a55baa8ab20c6854ae37d1b4355c4600561632f749f810e2da573f860798a3058cd514018938cb74c4244d5b593f4609bf9f061e52b43569aaba48015465ab8ca7aefd39513925bffbd03865bb3e62b7cb6255b0fd5833187f7d0c261ff486f849d1ac7d1a527737f8bccbe1de7114dfcf0b3fe776a04936bd22cd63ee95c772ae4eb3cce5419328d4b6bfc8250d69457934dfd57518d26d767bd5c656212e0f29c98bf48ef66e3d52b66cf894c342f432686c09a77a7c00bdd7f337bcf041b382667f96e3fd86fda5490332784f39868276c8135fa5ab97d47fa49bcc0268210896dcb62a33f79d2925415c7a3ab55532ea847efcf336a889ceefce5a0fef2e3abbdb61d2622f47baa48b5cb3d9bc9e1d1f563140461a4996d4c07b39b9491775fb296cdf005c947e30a922fb3df163b72510be5e105b231ed56028f153c05a01e3ed2fe6650fe180fe550d196df54a1b3e0b131bcc899b063ee7ec698b80442b312c974007d01c419e8c5699e2f8e50548198d79670194d35af316a2ca1af13f45e98ce03529cdb072f0df9c5c109f6467ce41537878d4af1ef6f25e9c7249ed2be33cb463e7916c2eb4be50bf73c74800658c162a7e719880b66f30eac87d954973de32d39c8e2b68c664be2e5fc1aeb1d136cfe36d7424912a5c420ffd7a1b2f7f9cf6c87f072b97c0468afe0ab060f53858ce3a2a0415a862fd97cdcb9638071e2db8646d71c933a2ba3d70f245b5d4703569dd58ef5ed79575e4f6a3b1145d4adfa5736b351c384196e900719a4f4fd179407acbfd20525c69b40f72d356eb9c03d1683e4a7f67edd02865e8fe5726765cd29da3f051d6a8fa6bf490a6fd764127c779732a2be4677387cb0aa6748556add39b00b85e739ac0784a0adae98ee062565d286ece0fd6e1b9c1b75bab185f4c3abf710dd3ebebe87b220a5351ffe4bae7ffa677b0cf01ce59eb91dd2b3dc47af1ece0ed93fb35516cc0558debad8c91ed9b5aa7a7f0628ac6bde4231769493ec4c025b423ad49dd9030dd6a2b2170f0e740a93b2925f9d4b8f56679eb508693d6c68359dc8239c45ed42c63db3b36f0c4c3c7f7add11f029d9a97c31974230d58e278ade0d74e4d4d745d4cb8910a42898ebb7135ce064c84e796a86c2b09c01606576e49497e454dca2b6470f5dd3f8ac446c8a849ed644cab66fd5b93d02e26b4597ca3c971964942bda5606a1635eba87455",
    "gasPrice": 519837906,
    "nonce": 439932,
    "to": "0x9d8c45368024f609a74b58248cf346e1f47fdc3b",
    "value": 9007199254740991,
    "chain": 1,
    "gas": 2944405021
  },
  "privateKey": "0xdf51058b27f671e5dd1f4990d7f9603591681d77bd0cb742ee1f1169cb9d8b84",
  "output": {
    "v": 37,
    "r": "0xf0ae1bb4924557d069643bbfea8ca3479ed26bad910c8c546f1fbaa385125703",
    "s": "0x1ba3cba3f711abd29d809fd56dd98aa208902a57efd9e9a05c2bf53ccdb7c4ca",
    "hash": "0xbc408212b572b31f65e42b5487945f7e0e341f059adf204746112b80cd880da8",
    "bytes": "0xf904718306b67c841efc18d284af800e1d949d8c45368024f609a74b58248cf346e1f47fdc3b871fffffffffffffb90400c6baffa5a5dbb57588d05c3fb902dbc8157fb065995d4555c9599723ba134ac853e769e43157b2b6ad29615b9fe7e6e8006d8a21d958cb043e65afb9c1e1aff929cb34c60c7539bb3608078f39bae180cccf75e95a9d58b0169f7da560912c97f2d1ab9701ed4b944761033dbadf0b608d9f50f1b2ebf6de4f03d3e26d11cacd6a61e664d7211b4278ccaf50a551b70db7926fa9295e2331a55baa8ab20c6854ae37d1b4355c4600561632f749f810e2da573f860798a3058cd514018938cb74c4244d5b593f4609bf9f061e52b43569aaba48015465ab8ca7aefd39513925bffbd03865bb3e62b7cb6255b0fd5833187f7d0c261ff486f849d1ac7d1a527737f8bccbe1de7114dfcf0b3fe776a04936bd22cd63ee95c772ae4eb3cce5419328d4b6bfc8250d69457934dfd57518d26d767bd5c656212e0f29c98bf48ef66e3d52b66cf894c342f432686c09a77a7c00bdd7f337bcf041b382667f96e3fd86fda5490332784f39868276c8135fa5ab97d47fa49bcc0268210896dcb62a33f79d2925415c7a3ab55532ea847efcf336a889ceefce5a0fef2e3abbdb61d2622f47baa48b5cb3d9bc9e1d1f563140461a4996d4c07b39b9491775fb296cdf005c947e30a922fb3df163b72510be5e105b231ed56028f153c05a01e3ed2fe6650fe180fe550d196df54a1b3e0b131bcc899b063ee7ec698b80442b312c974007d01c419e8c5699e2f8e50548198d79670194d35af316a2ca1af13f45e98ce03529cdb072f0df9c5c109f6467ce41537878d4af1ef6f25e9c7249ed2be33cb463e7916c2eb4be50bf73c74800658c162a7e719880b66f30eac87d954973de32d39c8e2b68c664be2e5fc1aeb1d136cfe36d7424912a5c420ffd7a1b2f7f9cf6c87f072b97c0468afe0ab060f53858ce3a2a0415a862fd97cdcb9638071e2db8646d71c933a2ba3d70f245b5d4703569dd58ef5ed79575e4f6a3b1145d4adfa5736b351c384196e900719a4f4fd179407acbfd20525c69b40f72d356eb9c03d1683e4a7f67edd02865e8fe5726765cd29da3f051d6a8fa6bf490a6fd764127c779732a2be4677387cb0aa6748556add39b00b85e739ac0784a0adae98ee062565d286ece0fd6e1b9c1b75bab185f4c3abf710dd3ebebe87b220a5351ffe4bae7ffa677b0cf01ce59eb91dd2b3dc47af1ece0ed93fb35516cc0558debad8c91ed9b5aa7a7f0628ac6bde4231769493ec4c025b423ad49dd9030dd6a2b2170f0e740a93b2925f9d4b8f56679eb508693d6c68359dc8239c45ed42c63db3b36f0c4c3c7f7add11f029d9a97c31974230d58e278ade0d74e4d4d745d4cb8910a42898ebb7135ce064c84e796a86c2b09c01606576e49497e454dca2b6470f5dd3f8ac446c8a849ed644cab66fd5b93d02e26b4597ca3c971964942bda5606a1635eba8745525a0f0ae1bb4924557d069643bbfea8ca3479ed26bad910c8c546f1fbaa385125703a01ba3cba3f711abd29d809fd56dd98aa208902a57efd9e9a05c2bf53ccdb7c4ca"
  }
}
