{
  "input": {
    "data": "0xccf2af9a450e41132981789cbaf6daf7fee85b4a1778a926560020b9aba256695eb46abc72e4da82df55be7285cbd70f8c28c040e0b164100a800c7b36f804f74d88b769370da5a42465ae5e46fe760302fd634f0f204b8af06caa15d83da4c9b6f77169282b295333cf2f2e5ce8344f4e8c519bad18f16f5064b10e7f51e3d17d725427f7f282b77faab420a393b9b41df785f01d9bb4db0e03ec76b07cd4276134fbd436c4b15f4ef098976e00d3b7b6e492db13c5beb6209124b69ab5c1bb495ea2d587de1594db3e1d640c6581775fd0b63129d2c679e42f0fe7ff3cd7d00d4cdfcedd35ab0318b188b54c536b1dc33879f53cfb5d20bc31fa737da90c49383a2be6e5df59e041d9e2549ad5c6ecfef7d10f089584cdbfc75744c3ceebd34357c177388421786cf0e9852c0df666cfc4d4e338b741fff83ce1b04cc71a8351bd1ab69c50d308f93d42655717b1ffdfb5a5f7d6352e6a72aa6b030ecf988719a4cf66a869de2c95fe4829b31cef0c440a4e5b8829e419013008235a68fa6c5f48d55170013d6af058e5a2d2473dae2ed9c5b111e66a36b0346b765d2c31d358805acd78c77e6fb2c59bfde37c15f41f0fc19e48480324798501f9c8b3095c2d9ae24190e41335f4fdf45205d9148c5abfe186686f3a354c2fe0fa923d582c76b92bae2ca6e3b52bd78eca63653116a19f90485b5b63f5da7333cfde31e4fb997cae1156f557d2309f4a995f032caa790cbd6af18486fb09ff247bddf22c5fab46a5b41d38c511ba0afe1f8584325abf4066b9565c37ed6c5355f4cabb436a327f7bbda496176190eb32e127d740d949b3d655dba0bba568727d5e9454656b16f359d128374147dbc6b0ead71ecef329aadb1def344206da162450e2bc4ef9ee2ad00bfac3008345b11a0fb19106eef571e24f1035546d168a90b977ae42e0d8b99033a0bdccee1110a75a43b737331d3679e9af43663d079d4855cc7d7488d64ea8544081fead6e93778fab123349e1fc0f7c71c00510f351c72aa13d3c026d8a055f897747943bfc461e7cb0ec583c31d29292b0c38e1343402080316652a5ff327ed40ece3c2f6e272f3668e967f483653d6d6b4d64ac28768f34f07986ad2ad6a429663443b94c45fdcc1d0b11ac8de2fda65aed513b383e568dfd7b9315d7571a53a85bb6166367a2947afcde0c3cd855ea05db4e91e392872bf8fa596f98578f7199ce53ed2ea33ba0c349561570f9375752151a3b4b98c6886c23900fcf4b7c8340f773c368a5a5e9bce9b6fd8328ece8e781dd2edae699e978548527d96e09d7a1782ce00b9ff25b6176e0faa434618ee4994d1347edaa53fc584674ca50f47d674dd562a1e7b3dada606ca6ad5c1438329216a0e437eeca9fc016c31cc3e12bff837af34b90447f6e7ba39b92fd12ec0110e761ef78dfb72c1218",
    "gas": 1339425644,
    "gasPrice": 2595386814,
    "nonce": 327256,
    "to": "0x5dec40c37360866146bcca31408a1dc46c5118b2",
    "value": 9007199254740991,
    "chain": 1,
    "accessList": [],
    "type": "0x01"
  },
  "privateKey": "0x58cbbf791f5e97e6c67394dc7be450095e5529dc74e6c13d35fc0912a163434d",
  "output": {
    "v": 1,
    "r": "0xf74ff155c80788518ad1795dfbfff51cc67bd0996789cafb05ccad6d4d6b61d7",
    "s": "0x0b889623ff8f64e709ff68ec14df2aa34e611e9a4904d75762f8e3d84e432ebe",
    "bytes": "0x01f90473018304fe58849ab275be844fd6036c945dec40c37360866146bcca31408a1dc46c5118b2871fffffffffffffb90400ccf2af9a450e41132981789cbaf6daf7fee85b4a1778a926560020b9aba256695eb46abc72e4da82df55be7285cbd70f8c28c040e0b164100a800c7b36f804f74d88b769370da5a42465ae5e46fe760302fd634f0f204b8af06caa15d83da4c9b6f77169282b295333cf2f2e5ce8344f4e8c519bad18f16f5064b10e7f51e3d17d725427f7f282b77faab420a393b9b41df785f01d9bb4db0e03ec76b07cd4276134fbd436c4b15f4ef098976e00d3b7b6e492db13c5beb6209124b69ab5c1bb495ea2d587de1594db3e1d640c6581775fd0b63129d2c679e42f0fe7ff3cd7d00d4cdfcedd35ab0318b188b54c536b1dc33879f53cfb5d20bc31fa737da90c49383a2be6e5df59e041d9e2549ad5c6ecfef7d10f089584cdbfc75744c3ceebd34357c177388421786cf0e9852c0df666cfc4d4e338b741fff83ce1b04cc71a8351bd1ab69c50d308f93d42655717b1ffdfb5a5f7d6352e6a72aa6b030ecf988719a4cf66a869de2c95fe4829b31cef0c440a4e5b8829e419013008235a68fa6c5f48d55170013d6af058e5a2d2473dae2ed9c5b111e66a36b0346b765d2c31d358805acd78c77e6fb2c59bfde37c15f41f0fc19e48480324798501f9c8b3095c2d9ae24190e41335f4fdf45205d9148c5abfe186686f3a354c2fe0fa923d582c76b92bae2ca6e3b52bd78eca63653116a19f90485b5b63f5da7333cfde31e4fb997cae1156f557d2309f4a995f032caa790cbd6af18486fb09ff247bddf22c5fab46a5b41d38c511ba0afe1f8584325abf4066b9565c37ed6c5355f4cabb436a327f7bbda496176190eb32e127d740d949b3d655dba0bba568727d5e9454656b16f359d128374147dbc6b0ead71ecef329aadb1def344206da162450e2bc4ef9ee2ad00bfac3008345b11a0fb19106eef571e24f1035546d168a90b977ae42e0d8b99033a0bdccee1110a75a43b737331d3679e9af43663d079d4855cc7d7488d64ea8544081fead6e93778fab123349e1fc0f7c71c00510f351c72aa13d3c026d8a055f897747943bfc461e7cb0ec583c31d29292b0c38e1343402080316652a5ff327ed40ece3c2f6e272f3668e967f483653d6d6b4d64ac28768f34f07986ad2ad6a429663443b94c45fdcc1d0b11ac8de2fda65aed513b383e568dfd7b9315d7571a53a85bb6166367a2947afcde0c3cd855ea05db4e91e392872bf8fa596f98578f7199ce53ed2ea33ba0c349561570f9375752151a3b4b98c6886c23900fcf4b7c8340f773c368a5a5e9bce9b6fd8328ece8e781dd2edae699e978548527d96e09d7a1782ce00b9ff25b6176e0faa434618ee4994d1347edaa53fc584674ca50f47d674dd562a1e7b3dada606ca6ad5c1438329216a0e437eeca9fc016c31cc3e12bff837af34b90447f6e7ba39b92fd12ec0110e761ef78dfb72c1218c001a0f74ff155c80788518ad1795dfbfff51cc67bd0996789cafb05ccad6d4d6b61d7a00b889623ff8f64e709ff68ec14df2aa34e611e9a4904d75762f8e3d84e432ebe"
  }
}
