{
  "input": {
    "data": "0x587d0d4ef020e2ab3b91ac76e1710cd65fb2240b2f15ba4e4009bb63f20809995581ac90e5b9514a7ea4c9198595231fe07085dedb20f4ab15ce844cf2d6a0827b789d337225823eec0e7ad92d1354966a9bfe14ce5e265a6b707fe7c7848c884631506f05d79525f9064ff74de06378914458358ac6e3fbac9caf392e3cb6bc132a7c2af45f006f548ac5ba9899bd3bccea1a9b5570e372690ade3b0c4a9623ddcb74f628930c55188ffe9c1b1f23732401226fe3b55795c89af4a1b8c44cb82d621ed0b4240909a78c21ae0407d69757940f931a6b901510220fe328f493d7de0a047b3c27c3e259ccd5c7ccf87e3f25fde7d9aec67c5efe28975311f958c2450faf77f968c2a4d16cc85dbf6a951a43762a5415cee7e9ff2103b7745ec454879667a2ed6ca7cd736ae6c5762817b6ea6b02a668bb0e8c440f5f6a5a31f37d3be46ba3ef963b21bbc1daed5d17052bb376655a7bf094835bac1e75c7a0ef251ba23739f382aa12ebf02cbee8ace91bce9368fc72b856fe1eb9e7c2fb70501063885abc2799d764c43d1465bd730f9fe9c4b5628dbcd767aeb73acb7d452581495e79a0efeaf46a4ea1fe2aa38ee131358e2799ea65a118cc52079adb6eed1fa2bbdd5647cfef6c9054e22fbd023cf5c97230ee6ce72fdd5e8591970f3c391d31b436fb6f26382c794e288940c9ff158cf36c19642857ee120ed5ef9bb30371773500b6dc10f938882ca1539c76f9bcb1fb072ca3bd30d17c0175ee1eeaf432371256d2349907b863770a51c5f5539d2580a367670bd1c301069759ae87ca2c6ef709e9d65b057587e05bb668b6973d2d6777acde7c3f5f2c03b900dd5d45b7cc96e63b9fcdfb6923f1fb16e4a94d5e6ac05937d9d401e6a4839089799932e8f4c970db205c8cbd310624dc64a0196059d8ec5cc1efdd3e9e96252e3aa7a4a6ed7346bed2afa76b3605a464e867a1ac57c62b8c1c005cadacc55cadb6fc00b89c23248d5ef99dc5cc4c780cd236b633e59587d9e3b4e53d9bae5c0652d8288b5ab0d14cfafe7b3717d9d2471197a4f7703682515ee86fac0ae18ddb6594790b9a22c596055f144c2b2d07820afc1786c968c088df955fc6441ea1bcb9eab5b4b127ba78bcaa6a0a5cbb67b278f509ee7cb200a5c1835dd690d2d02f888b31b0ab1399524fe067b23ad0fb2435447be09076da46a42057c17ee6f7ae3e737569f7c6bd507ec035a291628e8e0e9d96795acb54aaabaa1f4227248fb2233d9108f44ef55deebb82367590090066e5dcbb35023a1c3441ecc03ab1bfe5b47a7efba339ea68a55edc22fc773832ab0643b362c205b7f8560267533cda0a23434baeabf541002fa3195b49beed4a85fae7e4add1ebfa76f7cfccab15aa4f13ae06ce94c424a264284821d6350e5e1c5c0298658b04caae1b19930e3d26cba20b5d17",
    "gasPrice": 198674588,
    "nonce": 713841,
    "to": "0x9e6179712e88cba8319ea22a17791f7b1c96930a",
    "value": 9007199254740991,
    "chain": 1,
    "gas": 449704657
  },
  "privateKey": "0xef2f73c68089d12b9bb878cc44d4149684226e5eed8a37f75d50eb2c416ffc46",
  "output": {
    "v": 37,
    "r": "0x289defd96b9a6cf489234d899e3cdca61a4a947b52fbd2b871b37af4a5131399",
    "s": "0x5e660d8b97984f601e0610e9810f651f8ce8d66918d14cd99b4fbe2ba1dbe7af",
    "hash": "0xdfa6ea9bc7e309677788ab862113bd52308ec3d125bc923d311482c34cb072e7",
    "bytes": "0xf90471830ae471840bd7889c841acdf2d1949e6179712e88cba8319ea22a17791f7b1c96930a871fffffffffffffb90400587d0d4ef020e2ab3b91ac76e1710cd65fb2240b2f15ba4e4009bb63f20809995581ac90e5b9514a7ea4c9198595231fe07085dedb20f4ab15ce844cf2d6a0827b789d337225823eec0e7ad92d1354966a9bfe14ce5e265a6b707fe7c7848c884631506f05d79525f9064ff74de06378914458358ac6e3fbac9caf392e3cb6bc132a7c2af45f006f548ac5ba9899bd3bccea1a9b5570e372690ade3b0c4a9623ddcb74f628930c55188ffe9c1b1f23732401226fe3b55795c89af4a1b8c44cb82d621ed0b4240909a78c21ae0407d69757940f931a6b901510220fe328f493d7de0a047b3c27c3e259ccd5c7ccf87e3f25fde7d9aec67c5efe28975311f958c2450faf77f968c2a4d16cc85dbf6a951a43762a5415cee7e9ff2103b7745ec454879667a2ed6ca7cd736ae6c5762817b6ea6b02a668bb0e8c440f5f6a5a31f37d3be46ba3ef963b21bbc1daed5d17052bb376655a7bf094835bac1e75c7a0ef251ba23739f382aa12ebf02cbee8ace91bce9368fc72b856fe1eb9e7c2fb70501063885abc2799d764c43d1465bd730f9fe9c4b5628dbcd767aeb73acb7d452581495e79a0efeaf46a4ea1fe2aa38ee131358e2799ea65a118cc52079adb6eed1fa2bbdd5647cfef6c9054e22fbd023cf5c97230ee6ce72fdd5e8591970f3c391d31b436fb6f26382c794e288940c9ff158cf36c19642857ee120ed5ef9bb30371773500b6dc10f938882ca1539c76f9bcb1fb072ca3bd30d17c0175ee1eeaf432371256d2349907b863770a51c5f5539d2580a367670bd1c301069759ae87ca2c6ef709e9d65b057587e05bb668b6973d2d6777acde7c3f5f2c03b900dd5d45b7cc96e63b9fcdfb6923f1fb16e4a94d5e6ac05937d9d401e6a4839089799932e8f4c970db205c8cbd310624dc64a0196059d8ec5cc1efdd3e9e96252e3aa7a4a6ed7346bed2afa76b3605a464e867a1ac57c62b8c1c005cadacc55cadb6fc00b89c23248d5ef99dc5cc4c780cd236b633e59587d9e3b4e53d9bae5c0652d8288b5ab0d14cfafe7b3717d9d2471197a4f7703682515ee86fac0ae18ddb6594790b9a22c596055f144c2b2d07820afc1786c968c088df955fc6441ea1bcb9eab5b4b127ba78bcaa6a0a5cbb67b278f509ee7cb200a5c1835dd690d2d02f888b31b0ab1399524fe067b23ad0fb2435447be09076da46a42057c17ee6f7ae3e737569f7c6bd507ec035a291628e8e0e9d96795acb54aaabaa1f4227248fb2233d9108f44ef55deebb82367590090066e5dcbb35023a1c3441ecc03ab1bfe5b47a7efba339ea68a55edc22fc773832ab0643b362c205b7f8560267533cda0a23434baeabf541002fa3195b49beed4a85fae7e4add1ebfa76f7cfccab15aa4f13ae06ce94c424a264284821d6350e5e1c5c0298658b04caae1b19930e3d26cba20b5d1725a0289defd96b9a6cf489234d899e3cdca61a4a947b52fbd2b871b37af4a5131399a05e660d8b97984f601e0610e9810f651f8ce8d66918d14cd99b4fbe2ba1dbe7af"
  }
}
