{
  "input": {
    "data": "0x3a2d7b547d902ae539973c2fd74ce0219b3ad0b196dfe04bf7dd2e96b272fb5c92ace0c18c084adb28357dec62973562adfbde9b4735050a17a2b026b42ff77c9298e10ecb68619005ddd57c3d4e50b703b2edf3579f2db39c7db9a31f09cc60d3ac0ef4d8570f19bc2b32bfd023f22620bd4cbd1ab4dcf8e945448504fa82b45656bc809ba34f50d19368cb7ee3e6fecd3eb7bcc9a772cbf225034cc3a7dc88df8401a1abcfe23aba298f843a0215b2509a55bce1ff35f57291ada9daec6b66866f93fa28c13ef96057b1a8e6d705257b14e7ec9f6ac5f5be9c5009d488d3007a8b62f758f45738f25919dbae579a7570566243de9fbac6f23c51ffac15d54b67f5fcb9b1e6c450dc26adbc150d52c5975f5ffb3d75a9ab33e41036b2270815858d003a19871c6ee671d95e5edc0ecbfbf03d755a89163ef89943271d26589f592acb1f37851afe61f36defaa069a0c2c4bd6aa53b4c15e54d5edecf0dab7f01330963e97613e8380325aeb5e828cf72b53f14cd5e519e9de733ed5c6a85750526c4210ffda9331bcefbe5829b86ca3b7e2e0b436dd0ff38623d63dd205869bd38985b5dea81166c42ab526a9321cc90e2631333d8b8becbf568fee3c1abb642f2f6130c42c466c47be99e1d7c6c4f1b591d7c815f4eb9039ce09315ed0a4be4f8f03984a85e459d280756ebe3687ec787edef67b01128869f4c06cf4aca3f505f86673cafeafb8a154a04b3e6aeb79c660254cba3501ab04c9607acd29917c3e26fc69aaae30e9f394a48c922573a16c5525ccbb83cc54e9112efd4788b34b0b79807217929c88633ce15c2b1cbdc35c24257509583e5170e5e7164524c8742ad839e50b7c8ddf749e0b2a5a342f57653d225d6c738a9f832774d28dca2c94c198de1d7cb3dba55e3a5a13b5cc8d9a8e703eabe5d866d28bca93695147eab0127a68e25d0511ecd3ff91dd8afca904f5b84876b4c9bd99f364953a25cf4e72a2a1dd1f1621a761657eca717695ddb73cb9d11a00851902ab50d94a71af31f7fddaae32eb7a1d6d0f95e59fedcc6cdd57a34954b52e672a98bb2be7680bb9fa32a0a0fbc2547989c36c1a2b2c1353da49deeb429e8f5baf383d2619cf7a8e044519b3df54be98fe7331ca6ed150a434514531a12a7c46c2742395a9ce45f9c0a762b2be18bb5eb493393f41a99adb79eabbe8d74ec91e2583d868998e1d2d654cca69bae8c551e201b0af6abc77b6841d07d7d531db182a503622cddc892fba38adbb71b029aea0fffd0b099dc3d4726124c769037f176cb8bbd5614bbb2c21a2b1549a9f48df8bcdc1fcd86aca90ca7bed801cd10a6acdb8fb187eadf9bd354ec514260a05681dfa80a7b951253aaa9a0de79d58cadfb5bf4ebdcd5d81dc94f40370edd69c0476237d4c63902f8361558ce8eb4d24224129087f0268302c30",
    "gasPrice": 3130657678,
    "nonce": 965178,
    "to": "0xd14356da98efde5e0842f458b2d06f980d95da2c",
    "value": 9007199254740991,
    "chain": 1,
    "gas": 1959169588
  },
  "privateKey": "0xa30cc2b7b8f7cadf69a1de6179e9cb03d3ae9bb9ad1580539ca714ec0067118d",
  "output": {
    "v": 37,
    "r": "0xd7ebc60d71d8d4cbebd647e20e6ea6cdcbd6197a038ba5bf2771605d66333542",
    "s": "0x5cb74b0b69d9f727f4911ec39fe855508f845e5c581fbb0f7163c5fc550538b0",
    "hash": "0x060e28ea78eec4919ee31eb876181a895dbf1e231f17049997af62ed1033d348",
    "bytes": "0xf90471830eba3a84ba9a0b8e8474c68e3494d14356da98efde5e0842f458b2d06f980d95da2c871fffffffffffffb904003a2d7b547d902ae539973c2fd74ce0219b3ad0b196dfe04bf7dd2e96b272fb5c92ace0c18c084adb28357dec62973562adfbde9b4735050a17a2b026b42ff77c9298e10ecb68619005ddd57c3d4e50b703b2edf3579f2db39c7db9a31f09cc60d3ac0ef4d8570f19bc2b32bfd023f22620bd4cbd1ab4dcf8e945448504fa82b45656bc809ba34f50d19368cb7ee3e6fecd3eb7bcc9a772cbf225034cc3a7dc88df8401a1abcfe23aba298f843a0215b2509a55bce1ff35f57291ada9daec6b66866f93fa28c13ef96057b1a8e6d705257b14e7ec9f6ac5f5be9c5009d488d3007a8b62f758f45738f25919dbae579a7570566243de9fbac6f23c51ffac15d54b67f5fcb9b1e6c450dc26adbc150d52c5975f5ffb3d75a9ab33e41036b2270815858d003a19871c6ee671d95e5edc0ecbfbf03d755a89163ef89943271d26589f592acb1f37851afe61f36defaa069a0c2c4bd6aa53b4c15e54d5edecf0dab7f01330963e97613e8380325aeb5e828cf72b53f14cd5e519e9de733ed5c6a85750526c4210ffda9331bcefbe5829b86ca3b7e2e0b436dd0ff38623d63dd205869bd38985b5dea81166c42ab526a9321cc90e2631333d8b8becbf568fee3c1abb642f2f6130c42c466c47be99e1d7c6c4f1b591d7c815f4eb9039ce09315ed0a4be4f8f03984a85e459d280756ebe3687ec787edef67b01128869f4c06cf4aca3f505f86673cafeafb8a154a04b3e6aeb79c660254cba3501ab04c9607acd29917c3e26fc69aaae30e9f394a48c922573a16c5525ccbb83cc54e9112efd4788b34b0b79807217929c88633ce15c2b1cbdc35c24257509583e5170e5e7164524c8742ad839e50b7c8ddf749e0b2a5a342f57653d225d6c738a9f832774d28dca2c94c198de1d7cb3dba55e3a5a13b5cc8d9a8e703eabe5d866d28bca93695147eab0127a68e25d0511ecd3ff91dd8afca904f5b84876b4c9bd99f364953a25cf4e72a2a1dd1f1621a761657eca717695ddb73cb9d11a00851902ab50d94a71af31f7fddaae32eb7a1d6d0f95e59fedcc6cdd57a34954b52e672a98bb2be7680bb9fa32a0a0fbc2547989c36c1a2b2c1353da49deeb429e8f5baf383d2619cf7a8e044519b3df54be98fe7331ca6ed150a434514531a12a7c46c2742395a9ce45f9c0a762b2be18bb5eb493393f41a99adb79eabbe8d74ec91e2583d868998e1d2d654cca69bae8c551e201b0af6abc77b6841d07d7d531db182a503622cddc892fba38adbb71b029aea0fffd0b099dc3d4726124c769037f176cb8bbd5614bbb2c21a2b1549a9f48df8bcdc1fcd86aca90ca7bed801cd10a6acdb8fb187eadf9bd354ec514260a05681dfa80a7b951253aaa9a0de79d58cadfb5bf4ebdcd5d81dc94f40370edd69c0476237d4c63902f8361558ce8eb4d24224129087f0268302c3025a0d7ebc60d71d8d4cbebd647e20e6ea6cdcbd6197a038ba5bf2771605d66333542a05cb74b0b69d9f727f4911ec39fe855508f845e5c581fbb0f7163c5fc550538b0"
  }
}
