{
  "input": {
    "data": "0xfaa24065e4db9cf8e413be491ee1ef92f4cfb044894420d847dfff09f53c0fc67a7caa066c272dbfe192a7f32fe0eaa8a030642dfb4fc761eeec007867b98fe3d4ba50cd3199cb24c883c0dc658c79bfe7abab104c8cbfc08daa648e08ff7810900c7a14c8437cbf1a4119157e35c20852b4d61e6b1a3a93058828905eff5acb998d432375fd34783c8492acd516b57858b5a89a3619561c75854502983f7eaba576f7bf84102e94874366e7c64a3697c15217b8a77abc9dffa943864bf543a0c12f8574030ad95cba7b61e3c2400c52ec43f1aee32ad1a906896c5df2195890980b062e1c0b6e105c7309be83bd568a63d9abe5d723e6a17e0f306923eb47b61aee047c84aa859f7129b85ae88a3b1bdda3f052b38c561f631f8588eba3cb581ee8bd5d8f83a7b762da937ccd36201f1b5335e8bf22565acb3fdb58624f3cd4d28d4cf90f23aef3a0e2d71ac681d259c66012f692469c1742b0ccc821f73916fa70bdea2f3e204e3ace011871a9f259613963211b14a363f0d3a0d0a4854ad1fe208ea4ec18d6371cb130052761ca1d9ba68851717b4d04c4affe8f5be37a13755b15500c201dcff54303d94505e5bd795149e7131949d21e59c5b591a363820370e274b1d08041e1f0ae85c9db26a5049954f8b9184af44e31da038532d9ab3262507dd62ebb04035a815668eb2292bc624af748445bb6fc070b4dc588d596f0400085f7ee5193f57b4e9bafa8076b310dbee34f906d84c1de94c7e426b0c286843873db687d254359bdbe011f0e7248624bf85a114a13d22418cf66a50819079220caaeedef7f3861e084cda95a15dd29de979d5eeeb3fc50ab176fcbb4adf0e948aca79145b5511c79534f3223216397eba918e75e26e544c0ba2b064d5a3a4c20e4991ff777afc0f5eb85cb726e48fc631589714bd5e558b6aa0a4acc958a32932394644c620341d6a475045f6c9e3c2cf9a473c111290c4ddfda38ed22cd16e4c440b7f8e13e22c7349230fb07719e1ef141fddbf0a1ba1bc01974dc3f447b4a7a47bc28001f83d2209e38f1c15f723e105ce140bf0741ae16d295047526cb68e87cfb9e45517e7310f55ba5da7597a4da80c904d7193841c46c7f75aeb92ae4e9de12e54954e0c1f424a829ef6a9c9449f83ed931a2e1611263758b76ae0650f4b34b64d2f8d9068542c2a7c06bc14994fff5d279bef27f4f469db32f2165e7aa50d357b26a1cec3391f8d4f2e14302a89141fd56ce1c5110d81fb90bd422ee1410806700e7bd7debd67968210b7aa63b89745cef9d7cea5a91d5580264654b184ecfb7d2310d1f24ce436ac1604cfd1cfbf0097a8c81f46d003ccb45bcdaa9d6b0fdd0a4c2da96c631c1b74e7188054ffcf7114b32f2bc2ec5fc21a5a5ade49991a57cdfd78bf872f3df30045bbd2b9d9b0a0d3c35af21aede7c19aa",
    "gasPrice": 1722226246,
    "nonce": 825320,
    "to": "0x34628c1276d07d1fd6374e31db03359fc57220e9",
    "value": 9007199254740991,
    "chain": 1,
    "gas": 1035515227
  },
  "privateKey": "0x67a43569d02a19fe3da29276466746c8eca2f24d65c4ce211b838bf0d4e45fb8",
  "output": {
    "v": 38,
    "r": "0xad04a34715924d26a90d1de047f40f28c1c7a7b2574ff85fe4939ec4c84d9d90",
    "s": "0x788502ff0ea3ac72eff692562877e953a13ea42354d274a0bd589fd7976dfad4",
    "hash": "0x4d5c57dfef98a16e1383fd14eed09f0b0024fcd76133bea173b1663f80923c44",
    "bytes": "0xf90471830c97e88466a71646843db8b55b9434628c1276d07d1fd6374e31db03359fc57220e9871fffffffffffffb90400faa24065e4db9cf8e413be491ee1ef92f4cfb044894420d847dfff09f53c0fc67a7caa066c272dbfe192a7f32fe0eaa8a030642dfb4fc761eeec007867b98fe3d4ba50cd3199cb24c883c0dc658c79bfe7abab104c8cbfc08daa648e08ff7810900c7a14c8437cbf1a4119157e35c20852b4d61e6b1a3a93058828905eff5acb998d432375fd34783c8492acd516b57858b5a89a3619561c75854502983f7eaba576f7bf84102e94874366e7c64a3697c15217b8a77abc9dffa943864bf543a0c12f8574030ad95cba7b61e3c2400c52ec43f1aee32ad1a906896c5df2195890980b062e1c0b6e105c7309be83bd568a63d9abe5d723e6a17e0f306923eb47b61aee047c84aa859f7129b85ae88a3b1bdda3f052b38c561f631f8588eba3cb581ee8bd5d8f83a7b762da937ccd36201f1b5335e8bf22565acb3fdb58624f3cd4d28d4cf90f23aef3a0e2d71ac681d259c66012f692469c1742b0ccc821f73916fa70bdea2f3e204e3ace011871a9f259613963211b14a363f0d3a0d0a4854ad1fe208ea4ec18d6371cb130052761ca1d9ba68851717b4d04c4affe8f5be37a13755b15500c201dcff54303d94505e5bd795149e7131949d21e59c5b591a363820370e274b1d08041e1f0ae85c9db26a5049954f8b9184af44e31da038532d9ab3262507dd62ebb04035a815668eb2292bc624af748445bb6fc070b4dc588d596f0400085f7ee5193f57b4e9bafa8076b310dbee34f906d84c1de94c7e426b0c286843873db687d254359bdbe011f0e7248624bf85a114a13d22418cf66a50819079220caaeedef7f3861e084cda95a15dd29de979d5eeeb3fc50ab176fcbb4adf0e948aca79145b5511c79534f3223216397eba918e75e26e544c0ba2b064d5a3a4c20e4991ff777afc0f5eb85cb726e48fc631589714bd5e558b6aa0a4acc958a32932394644c620341d6a475045f6c9e3c2cf9a473c111290c4ddfda38ed22cd16e4c440b7f8e13e22c7349230fb07719e1ef141fddbf0a1ba1bc01974dc3f447b4a7a47bc28001f83d2209e38f1c15f723e105ce140bf0741ae16d295047526cb68e87cfb9e45517e7310f55ba5da7597a4da80c904d7193841c46c7f75aeb92ae4e9de12e54954e0c1f424a829ef6a9c9449f83ed931a2e1611263758b76ae0650f4b34b64d2f8d9068542c2a7c06bc14994fff5d279bef27f4f469db32f2165e7aa50d357b26a1cec3391f8d4f2e14302a89141fd56ce1c5110d81fb90bd422ee1410806700e7bd7debd67968210b7aa63b89745cef9d7cea5a91d5580264654b184ecfb7d2310d1f24ce436ac1604cfd1cfbf0097a8c81f46d003ccb45bcdaa9d6b0fdd0a4c2da96c631c1b74e7188054ffcf7114b32f2bc2ec5fc21a5a5ade49991a57cdfd78bf872f3df30045bbd2b9d9b0a0d3c35af21aede7c19aa26a0ad04a34715924d26a90d1de047f40f28c1c7a7b2574ff85fe4939ec4c84d9d90a0788502ff0ea3ac72eff692562877e953a13ea42354d274a0bd589fd7976dfad4"
  }
}
