{
  "input": {
    "data": "0x84ed1c64da2cdde97167b624eaa54278de06b893c2101e35b5c10f80ab40c96277a2d250d7778c76a3bf66bfbba6ae6b23894be77351db320a3209517f5e8e20697a307b99deac2a844d6d514cbde2c6204cb92b6587c5266b240525aedb062d892e8d7e00562b4e00fa9536f99962da18490f45e8b0d22a31219daf4744c44654228e91e52d378c40565388ee9427ea073ddc74cd2a5503312a929ecd8a268ee123d8330ffe5415ea5d123efa03edf7d08ba0c2480867ad8e75100363f58c932a8ddb3b436025740df681a7084c1d388639df2d491c68ae6b5fcd138a05d7119986109c0f490c7128c9f946c48cea23eee421b1d062d77b78eec0a2b04b3e924e03e569a99c3435fe33dbf2008a80d6a71901e39f5ac3fd60de65d3b5f8fbc62c16d869e2acdbef6dda8ac8020cd10059591a8c356c53c1adf3ef61e241070ee30fb0adc13d4c3f5f5dbb30b12f8c4ebda6da94eec97109c65cffda56f81f7d6f9b496518975449b929f6dc34b1a9c2f2e9736c52c378e1f5e87fc77eea33ee73cebf1a8e5a6e19b621959e1f98191ca3f0ae5d9683e9f98058cc02faf0b5b72d265d0ad8b3ada53bd54c6b8c3e0c006ebb2b0b28885e47e7ae1840335ecdb5216fdf0d25e459f2cca821658577767612781e15a842e5b35b71011db297785fc3ffe637a5f0561e301ed0d01e3a3895dd938da9d0c835358fb8ffd7338f79723632bbd7bc0ef168bdca875e071c31c4fe0e77cc6eeaa7657303cdde6997e7759f583614ec93b72ee0ea46ad453b4d3a68d493fea89d74f9ca2f082c448b664c1d9f9bdb058b21c88a8cdd3406dd4b9a401c196c90e580e1108146974b41a837ccbd2b58c6ca3611dc2114de908d5e3d20896af036bde203b0fc04bcd208c6a6a4f9cc4b4e791d9a948fd09c9bacf93ee6e476e104172abe78404abf305b81b33b64533d9abaa761fa9ee6f5ce9ddfae9b956022c1c3804d3bec63f470407267f36ed6614038561881192374b718d9810e3009624b981e771a9101836ac5dc614d29c134e60983a893b4e29e16835b7f9548b005c8da2ff45c125f37024d076f964e707e7edc554a18ab6be0f7acb0225c0e4df1220131f850f974bdd0095bf708a26aeb3688acda82a47f1d3816c18bd04527f01940fb16e870f81f8dc7f8d4cbc926341de9c4b6435fcdfcd668e284ac29cfca885e5660a7cbe02fe7a2b575eee1a0255186b6f95bbd17c8f0aeda18db47e3e4f49e86c31f4403845ebc2c74070e11c68207de8ce934cba7c671124cdc68cf43efb37a66a4bb1b439d06a7be73a921a328e097ed1d24111ab5124f56064841d4842520d9c70f6724251617fca27fbbf35aaf0abe3dea32aef69d73e4e0f3c98107a889a66a844954801f36060d7a6c0b0fb3d5bd186c7d74ac87b6ea96e8e6a6024672db5e74ad7ae0ddd311",
    "gasPrice": 721756312,
    "nonce": 456729,
    "to": "0x8ac7f90a10355d518e72d535cd4fe7e168941fe0",
    "value": 9007199254740991,
    "chain": 1,
    "gas": 255313790
  },
  "privateKey": "0xd147c9183a87fdf7ea595e24c4b32b484e4b47cac686b19753965a9579c0eb42",
  "output": {
    "v": 38,
    "r": "0x8cd96bdab1875783f95b26b6b3b953e667b21b4cf874b8d43bdf590f0c219394",
    "s": "0x18ab14d05b2ca8446e9b3030ee1ec33e9a9380d4a6f25a2660e94a51fcfa60f8",
    "hash": "0xd0d3f4acc099bf62523d9d610bd3b711fd6c1b6bfcdfbfd2b2057793f4a456f1",
    "bytes": "0xf904718306f819842b052098840f37c77e948ac7f90a10355d518e72d535cd4fe7e168941fe0871fffffffffffffb9040084ed1c64da2cdde97167b624eaa54278de06b893c2101e35b5c10f80ab40c96277a2d250d7778c76a3bf66bfbba6ae6b23894be77351db320a3209517f5e8e20697a307b99deac2a844d6d514cbde2c6204cb92b6587c5266b240525aedb062d892e8d7e00562b4e00fa9536f99962da18490f45e8b0d22a31219daf4744c44654228e91e52d378c40565388ee9427ea073ddc74cd2a5503312a929ecd8a268ee123d8330ffe5415ea5d123efa03edf7d08ba0c2480867ad8e75100363f58c932a8ddb3b436025740df681a7084c1d388639df2d491c68ae6b5fcd138a05d7119986109c0f490c7128c9f946c48cea23eee421b1d062d77b78eec0a2b04b3e924e03e569a99c3435fe33dbf2008a80d6a71901e39f5ac3fd60de65d3b5f8fbc62c16d869e2acdbef6dda8ac8020cd10059591a8c356c53c1adf3ef61e241070ee30fb0adc13d4c3f5f5dbb30b12f8c4ebda6da94eec97109c65cffda56f81f7d6f9b496518975449b929f6dc34b1a9c2f2e9736c52c378e1f5e87fc77eea33ee73cebf1a8e5a6e19b621959e1f98191ca3f0ae5d9683e9f98058cc02faf0b5b72d265d0ad8b3ada53bd54c6b8c3e0c006ebb2b0b28885e47e7ae1840335ecdb5216fdf0d25e459f2cca821658577767612781e15a842e5b35b71011db297785fc3ffe637a5f0561e301ed0d01e3a3895dd938da9d0c835358fb8ffd7338f79723632bbd7bc0ef168bdca875e071c31c4fe0e77cc6eeaa7657303cdde6997e7759f583614ec93b72ee0ea46ad453b4d3a68d493fea89d74f9ca2f082c448b664c1d9f9bdb058b21c88a8cdd3406dd4b9a401c196c90e580e1108146974b41a837ccbd2b58c6ca3611dc2114de908d5e3d20896af036bde203b0fc04bcd208c6a6a4f9cc4b4e791d9a948fd09c9bacf93ee6e476e104172abe78404abf305b81b33b64533d9abaa761fa9ee6f5ce9ddfae9b956022c1c3804d3bec63f470407267f36ed6614038561881192374b718d9810e3009624b981e771a9101836ac5dc614d29c134e60983a893b4e29e16835b7f9548b005c8da2ff45c125f37024d076f964e707e7edc554a18ab6be0f7acb0225c0e4df1220131f850f974bdd0095bf708a26aeb3688acda82a47f1d3816c18bd04527f01940fb16e870f81f8dc7f8d4cbc926341de9c4b6435fcdfcd668e284ac29cfca885e5660a7cbe02fe7a2b575eee1a0255186b6f95bbd17c8f0aeda18db47e3e4f49e86c31f4403845ebc2c74070e11c68207de8ce934cba7c671124cdc68cf43efb37a66a4bb1b439d06a7be73a921a328e097ed1d24111ab5124f56064841d4842520d9c70f6724251617fca27fbbf35aaf0abe3dea32aef69d73e4e0f3c98107a889a66a844954801f36060d7a6c0b0fb3d5bd186c7d74ac87b6ea96e8e6a6024672db5e74ad7ae0ddd31126a08cd96bdab1875783f95b26b6b3b953e667b21b4cf874b8d43bdf590f0c219394a018ab14d05b2ca8446e9b3030ee1ec33e9a9380d4a6f25a2660e94a51fcfa60f8"
  }
}
