{
  "input": {
    "gasPrice": 0,
    "gas": 0,
    "nonce": 0,
    "to": "0x0000000000000000000000000000000000000000",
    "value": 0,
    "chain": 1,
    "type": "0x01",
    "data": "0x00",
    "accessList": [
      {
        "address": "0x0000000000000000000000000000000000000000",
        "storageKeys": [
          "0x0000000000000000000000000000000000000000000000000000000000000000"
        ]
      }
    ]
  },
  "privateKey": "0x0000000000000000000000000000000000000000000000000000000000000001",
  "output": {
    "v": 0,
    "r": "0x17d1a1d1b672c45e6fd15d396699b2a4f4bcc068404bb50923a961248da4d300",
    "s": "0x3478023f709f215abffb4e6e3c33f9bf10fcd65d2d8dbf6198a583caa63f16ee",
    "hash": "0xb0a0fdcda57691de55d53dbf08ead3d99fc4c5b4fdaf9e8f499f014d39aafc0d",
    "bytes": "0x01f898018080809400000000000000000000000000000000000000008000f838f7940000000000000000000000000000000000000000e1a0000000000000000000000000000000000000000000000000000000000000000080a017d1a1d1b672c45e6fd15d396699b2a4f4bcc068404bb50923a961248da4d300a03478023f709f215abffb4e6e3c33f9bf10fcd65d2d8dbf6198a583caa63f16ee"
  }
}
