{
  "input": {
    "gasPrice": 0,
    "gas": 0,
    "nonce": 1,
    "to": "0x0000000000000000000000000000000000000000",
    "value": 0,
    "chain": 0,
    "data": "0x"
  },
  "privateKey": "0x0000000000000000000000000000000000000000000000000000000000000001",
  "output": {
    "v": 37,
    "r": "0xb98e5741b492c762c2ffdf8f75645d531293110be8fdcd5b6155fabbd685e5bf",
    "s": "0x3ecae0ef49f363830632f19850a66ce31541947059b81d157aa8dd265c36f7fe",
    "bytes": "0xf85d018080940000000000000000000000000000000000000000808025a0b98e5741b492c762c2ffdf8f75645d531293110be8fdcd5b6155fabbd685e5bfa03ecae0ef49f363830632f19850a66ce31541947059b81d157aa8dd265c36f7fe"
  }
}
