{
  "input": {
    "gasPrice": 0,
    "gas": 0,
    "nonce": 0,
    "to": null,
    "value": 0,
    "chain": 1,
    "type": "0x01",
    "data": "0x",
    "accessList": [
      {
        "address": "0x0000000000000000000000000000000000000000",
        "storageKeys": [
          "0x0000000000000000000000000000000000000000000000000000000000000000"
        ]
      }
    ]
  },
  "privateKey": "0x0000000000000000000000000000000000000000000000000000000000000001",
  "output": {
    "v": 0,
    "r": "0xc42489ffd1a9b4abc5ae77d14ea6b969c11dd600a34533ba8ecc1380aa1ed2a3",
    "s": "0x2c86c9a45ad25f2791ba5dbce7383ae49594e50da4680c87ac9b0c249f57b87c",
    "hash": "0x6d0e5d3c87ac98ed98863e819e642c07660f825ee51cbf181499144df3b21fa9",
    "bytes": "0x01f88401808080808080f838f7940000000000000000000000000000000000000000e1a0000000000000000000000000000000000000000000000000000000000000000080a0c42489ffd1a9b4abc5ae77d14ea6b969c11dd600a34533ba8ecc1380aa1ed2a3a02c86c9a45ad25f2791ba5dbce7383ae49594e50da4680c87ac9b0c249f57b87c"
  }
}
