{
  "input": {
    "maxPriorityFeePerGas": 0,
    "maxFeePerGas": 0,
    "gas": 0,
    "nonce": 0,
    "to": null,
    "value": 0,
    "chain": 1,
    "type": "0x02",
    "data": "0x00",
    "accessList": [
      {
        "address": "0x0000000000000000000000000000000000000000",
        "storageKeys": [
          "0x0000000000000000000000000000000000000000000000000000000000000000"
        ]
      },
      {
        "address": "0x0000000000000000000000000000000000000000",
        "storageKeys": [
          "0x0000000000000000000000000000000000000000000000000000000000000000"
        ]
      }
    ]
  },
  "privateKey": "0x0000000000000000000000000000000000000000000000000000000000000001",
  "output": {
    "v": 0,
    "r": "0x7a53fb20b46d9cc2600d8dc3168a698d41c0dec029d46db4ba88ffe359bbe409",
    "s": "0x2536bd58c593edcda36c5f2e35ed4db158b0cab202b6b2648403117e483a9b30",
    "hash": "0xc32ac5ba02818ce7bd5d626b7f97b9ae672b42433e4823e119d79c6c8f58c777",
    "bytes": "0x02f8bd0180808080808000f870f7940000000000000000000000000000000000000000e1a00000000000000000000000000000000000000000000000000000000000000000f7940000000000000000000000000000000000000000e1a0000000000000000000000000000000000000000000000000000000000000000080a07a53fb20b46d9cc2600d8dc3168a698d41c0dec029d46db4ba88ffe359bbe409a02536bd58c593edcda36c5f2e35ed4db158b0cab202b6b2648403117e483a9b30"
  }
}
