{
  "input": {
    "gasPrice": 0,
    "gas": 0,
    "nonce": 0,
    "to": null,
    "value": 0,
    "chain": 1,
    "type": "0x01",
    "data": "0x00",
    "accessList": [
      {
        "address": "0x0000000000000000000000000000000000000000",
        "storageKeys": [
          "0x0000000000000000000000000000000000000000000000000000000000000000"
        ]
      },
      {
        "address": "0x0000000000000000000000000000000000000000",
        "storageKeys": [
          "0x0000000000000000000000000000000000000000000000000000000000000000"
        ]
      }
    ]
  },
  "privateKey": "0x0000000000000000000000000000000000000000000000000000000000000001",
  "output": {
    "v": 1,
    "r": "0xcaec7134a4ee1b1566fe48334d4cbc194af12af22ba813aa24df588362a41298",
    "s": "0x5cf4b47bde2e76d6c9ea0f4affff89a477f8d59b323fe6bd268ca62fa9a3057a",
    "hash": "0x7c65b5138b4a4bb29335bbd25c4ae4a637f4aa1bf02d8a6b4c01d430a89518e1",
    "bytes": "0x01f8bc01808080808000f870f7940000000000000000000000000000000000000000e1a00000000000000000000000000000000000000000000000000000000000000000f7940000000000000000000000000000000000000000e1a0000000000000000000000000000000000000000000000000000000000000000001a0caec7134a4ee1b1566fe48334d4cbc194af12af22ba813aa24df588362a41298a05cf4b47bde2e76d6c9ea0f4affff89a477f8d59b323fe6bd268ca62fa9a3057a"
  }
}
