{
  "input": {
    "data": "0x0x00",
    "gasPrice": 0,
    "nonce": 0,
    "to": "0x0000000000000000000000000000000000000000",
    "value": 0,
    "chain": 1,
    "gas": 0
  },
  "privateKey": "0x0000000000000000000000000000000000000000000000000000000000000001",
  "output": {
    "v": 38,
    "r": "0x348a3e720324ac617dd95c0b074c09b889aa5cbba6cabf1e67a06b48241886d1",
    "s": "0x36304d358b8385640a8a82288b24d1ba411fadd6e7834885d9f7abde8832a3b8",
    "hash": "0xeb86127620fbc047c6b6c2fcedea010143538e452dc7cb67a7fb1f8a00abdbd9",
    "bytes": "0xf85d808080940000000000000000000000000000000000000000800026a0348a3e720324ac617dd95c0b074c09b889aa5cbba6cabf1e67a06b48241886d1a036304d358b8385640a8a82288b24d1ba411fadd6e7834885d9f7abde8832a3b8"
  }
}
