{
  "input": {
    "data": "0x00",
    "gasPrice": 1,
    "nonce": 0,
    "to": "0x0000000000000000000000000000000000000000",
    "value": 0,
    "chain": 1,
    "gas": 1
  },
  "privateKey": "0x0000000000000000000000000000000000000000000000000000000000000001",
  "output": {
    "v": 38,
    "r": "0x3ee6c14dd3fd2e562f36baf76fb80e4162c1afc70a312a065eff0fa39a12f41e",
    "s": "0x273c0c2d8db37d61ab0a9612834c88a923634fd9bf89c09a47b3490fbb100a5f",
    "hash": "0xe806e9970ab41dad03d396aa278ddb3ab4ff0e654a5c37d367b8b394e84d478a",
    "bytes": "0xf85d800180940000000000000000000000000000000000000000808026a03ee6c14dd3fd2e562f36baf76fb80e4162c1afc70a312a065eff0fa39a12f41ea0273c0c2d8db37d61ab0a9612834c88a923634fd9bf89c09a47b3490fbb100a5f"
  }
}
