{
  "input": {
    "data": "0x00",
    "gasPrice": 1,
    "nonce": 0,
    "to": "0x0000000000000000000000000000000000000000",
    "value": 0,
    "chain": 1,
    "gas": 1
  },
  "privateKey": "0x0000000000000000000000000000000000000000000000000000000000000001",
  "output": {
    "v": 38,
    "r": "0x7c579d047b2a11ce3f1ed207cc9196a584fcd3922983d3116d2a965284236564",
    "s": "0x33047d364da1e0ac09c958d3c59df80de5bfaa1c51a59b5cb3b50847dc8badbf",
    "hash": "0xc29376c8efe23bfa0a32f04abc38d49e18f31d56ff7966fbff7a1422d79e45b9",
    "bytes": "0xf85d800101940000000000000000000000000000000000000000800026a07c579d047b2a11ce3f1ed207cc9196a584fcd3922983d3116d2a965284236564a033047d364da1e0ac09c958d3c59df80de5bfaa1c51a59b5cb3b50847dc8badbf"
  }
}
