{
  "input": {
    "gasPrice": 0,
    "nonce": 1,
    "to": "0x0000000000000000000000000000000000000000",
    "value": 0,
    "chain": 0,
    "gas": 0,
    "type": "0x01",
    "data": "0x",
    "accessList": []
  },
  "privateKey": "0x0000000000000000000000000000000000000000000000000000000000000001",
  "output": {
    "v": 1,
    "r": "0x43ea8cf4a4e03f173313c94205ae975efc6894b01a276b28b4223e442ec96a71",
    "s": "0x6686bb0ed9fbd9fd774e667659ba39360675e37098bf33e7cdb3e25e49f1e7a0",
    "bytes": "0x01f85f010180809400000000000000000000000000000000000000008080c001a043ea8cf4a4e03f173313c94205ae975efc6894b01a276b28b4223e442ec96a71a06686bb0ed9fbd9fd774e667659ba39360675e37098bf33e7cdb3e25e49f1e7a0"
  }
}
