{
  "input": {
    "gasPrice": 0,
    "nonce": 0,
    "to": "0x0000000000000000000000000000000000000000",
    "value": 0,
    "chain": 1,
    "gas": 0,
    "type": "0x01",
    "data": "0x",
    "accessList": []
  },
  "privateKey": "0x0000000000000000000000000000000000000000000000000000000000000001",
  "output": {
    "v": 1,
    "r": "0xeb65eabd20b113eabd61c553628595158873d550bf2cb99c2f0234261f691a8c",
    "s": "0x18d86f48d077391b44925d5b70f4de49ca5f7b7f9034b4012cfd50ed8d19c99a",
    "bytes": "0x01f85f018080809400000000000000000000000000000000000000008080c001a0eb65eabd20b113eabd61c553628595158873d550bf2cb99c2f0234261f691a8ca018d86f48d077391b44925d5b70f4de49ca5f7b7f9034b4012cfd50ed8d19c99a"
  }
}
